{
  "_format": "hh-sol-artifact-1",
  "contractName": "AgioERC1155",
  "sourceName": "contracts/AgioERC1155.sol",
  "abi": [
    {
      "inputs": [
        {
          "internalType": "string",
          "name": "_name",
          "type": "string"
        },
        {
          "internalType": "string",
          "name": "_symbol",
          "type": "string"
        }
      ],
      "stateMutability": "nonpayable",
      "type": "constructor"
    },
    {
      "anonymous": false,
      "inputs": [
        {
          "indexed": true,
          "internalType": "address",
          "name": "account",
          "type": "address"
        },
        {
          "indexed": true,
          "internalType": "address",
          "name": "operator",
          "type": "address"
        },
        {
          "indexed": false,
          "internalType": "bool",
          "name": "approved",
          "type": "bool"
        }
      ],
      "name": "ApprovalForAll",
      "type": "event"
    },
    {
      "anonymous": false,
      "inputs": [
        {
          "indexed": true,
          "internalType": "uint256",
          "name": "_id",
          "type": "uint256"
        },
        {
          "indexed": true,
          "internalType": "address",
          "name": "_to",
          "type": "address"
        },
        {
          "indexed": false,
          "internalType": "string",
          "name": "_hash",
          "type": "string"
        },
        {
          "indexed": false,
          "internalType": "string",
          "name": "_name",
          "type": "string"
        }
      ],
      "name": "MintToken",
      "type": "event"
    },
    {
      "anonymous": false,
      "inputs": [
        {
          "indexed": true,
          "internalType": "address",
          "name": "previousOwner",
          "type": "address"
        },
        {
          "indexed": true,
          "internalType": "address",
          "name": "newOwner",
          "type": "address"
        }
      ],
      "name": "OwnershipTransferred",
      "type": "event"
    },
    {
      "anonymous": false,
      "inputs": [
        {
          "indexed": false,
          "internalType": "string",
          "name": "_value",
          "type": "string"
        },
        {
          "indexed": true,
          "internalType": "uint256",
          "name": "_id",
          "type": "uint256"
        }
      ],
      "name": "PermanentURI",
      "type": "event"
    },
    {
      "anonymous": false,
      "inputs": [
        {
          "indexed": false,
          "internalType": "string",
          "name": "_baseTokenURI",
          "type": "string"
        }
      ],
      "name": "SetBaseTokenURI",
      "type": "event"
    },
    {
      "anonymous": false,
      "inputs": [
        {
          "indexed": false,
          "internalType": "string",
          "name": "_contractURI",
          "type": "string"
        }
      ],
      "name": "SetContractURI",
      "type": "event"
    },
    {
      "anonymous": false,
      "inputs": [
        {
          "indexed": false,
          "internalType": "bool",
          "name": "_paused",
          "type": "bool"
        }
      ],
      "name": "SetPaused",
      "type": "event"
    },
    {
      "anonymous": false,
      "inputs": [
        {
          "indexed": true,
          "internalType": "address",
          "name": "operator",
          "type": "address"
        },
        {
          "indexed": true,
          "internalType": "address",
          "name": "from",
          "type": "address"
        },
        {
          "indexed": true,
          "internalType": "address",
          "name": "to",
          "type": "address"
        },
        {
          "indexed": false,
          "internalType": "uint256[]",
          "name": "ids",
          "type": "uint256[]"
        },
        {
          "indexed": false,
          "internalType": "uint256[]",
          "name": "values",
          "type": "uint256[]"
        }
      ],
      "name": "TransferBatch",
      "type": "event"
    },
    {
      "anonymous": false,
      "inputs": [
        {
          "indexed": true,
          "internalType": "address",
          "name": "operator",
          "type": "address"
        },
        {
          "indexed": true,
          "internalType": "address",
          "name": "from",
          "type": "address"
        },
        {
          "indexed": true,
          "internalType": "address",
          "name": "to",
          "type": "address"
        },
        {
          "indexed": false,
          "internalType": "uint256",
          "name": "id",
          "type": "uint256"
        },
        {
          "indexed": false,
          "internalType": "uint256",
          "name": "value",
          "type": "uint256"
        }
      ],
      "name": "TransferSingle",
      "type": "event"
    },
    {
      "anonymous": false,
      "inputs": [
        {
          "indexed": false,
          "internalType": "string",
          "name": "value",
          "type": "string"
        },
        {
          "indexed": true,
          "internalType": "uint256",
          "name": "id",
          "type": "uint256"
        }
      ],
      "name": "URI",
      "type": "event"
    },
    {
      "inputs": [],
      "name": "allTokens",
      "outputs": [
        {
          "components": [
            {
              "internalType": "string",
              "name": "metadataHash",
              "type": "string"
            },
            {
              "internalType": "string",
              "name": "name",
              "type": "string"
            },
            {
              "internalType": "address payable",
              "name": "previousOwner",
              "type": "address"
            },
            {
              "internalType": "address payable",
              "name": "minter",
              "type": "address"
            },
            {
              "internalType": "address payable",
              "name": "owner",
              "type": "address"
            },
            {
              "internalType": "uint256",
              "name": "id",
              "type": "uint256"
            }
          ],
          "internalType": "struct Nft[]",
          "name": "",
          "type": "tuple[]"
        }
      ],
      "stateMutability": "view",
      "type": "function"
    },
    {
      "inputs": [
        {
          "internalType": "address",
          "name": "account",
          "type": "address"
        },
        {
          "internalType": "uint256",
          "name": "id",
          "type": "uint256"
        }
      ],
      "name": "balanceOf",
      "outputs": [
        {
          "internalType": "uint256",
          "name": "",
          "type": "uint256"
        }
      ],
      "stateMutability": "view",
      "type": "function"
    },
    {
      "inputs": [
        {
          "internalType": "address[]",
          "name": "accounts",
          "type": "address[]"
        },
        {
          "internalType": "uint256[]",
          "name": "ids",
          "type": "uint256[]"
        }
      ],
      "name": "balanceOfBatch",
      "outputs": [
        {
          "internalType": "uint256[]",
          "name": "",
          "type": "uint256[]"
        }
      ],
      "stateMutability": "view",
      "type": "function"
    },
    {
      "inputs": [],
      "name": "baseTokenURI",
      "outputs": [
        {
          "internalType": "string",
          "name": "",
          "type": "string"
        }
      ],
      "stateMutability": "view",
      "type": "function"
    },
    {
      "inputs": [],
      "name": "contractURI",
      "outputs": [
        {
          "internalType": "string",
          "name": "",
          "type": "string"
        }
      ],
      "stateMutability": "view",
      "type": "function"
    },
    {
      "inputs": [],
      "name": "getNextTokenId",
      "outputs": [
        {
          "internalType": "uint256",
          "name": "",
          "type": "uint256"
        }
      ],
      "stateMutability": "view",
      "type": "function"
    },
    {
      "inputs": [
        {
          "internalType": "address",
          "name": "account",
          "type": "address"
        },
        {
          "internalType": "address",
          "name": "operator",
          "type": "address"
        }
      ],
      "name": "isApprovedForAll",
      "outputs": [
        {
          "internalType": "bool",
          "name": "",
          "type": "bool"
        }
      ],
      "stateMutability": "view",
      "type": "function"
    },
    {
      "inputs": [
        {
          "internalType": "uint256",
          "name": "_id",
          "type": "uint256"
        }
      ],
      "name": "isOwner",
      "outputs": [
        {
          "internalType": "bool",
          "name": "",
          "type": "bool"
        }
      ],
      "stateMutability": "view",
      "type": "function"
    },
    {
      "inputs": [
        {
          "internalType": "uint256",
          "name": "_id",
          "type": "uint256"
        },
        {
          "internalType": "address",
          "name": "_to",
          "type": "address"
        },
        {
          "internalType": "string",
          "name": "_hash",
          "type": "string"
        },
        {
          "internalType": "string",
          "name": "_name",
          "type": "string"
        }
      ],
      "name": "mintToken",
      "outputs": [],
      "stateMutability": "payable",
      "type": "function"
    },
    {
      "inputs": [],
      "name": "name",
      "outputs": [
        {
          "internalType": "string",
          "name": "",
          "type": "string"
        }
      ],
      "stateMutability": "view",
      "type": "function"
    },
    {
      "inputs": [],
      "name": "originalOwner",
      "outputs": [
        {
          "internalType": "address",
          "name": "",
          "type": "address"
        }
      ],
      "stateMutability": "view",
      "type": "function"
    },
    {
      "inputs": [],
      "name": "owner",
      "outputs": [
        {
          "internalType": "address",
          "name": "",
          "type": "address"
        }
      ],
      "stateMutability": "view",
      "type": "function"
    },
    {
      "inputs": [],
      "name": "paused",
      "outputs": [
        {
          "internalType": "bool",
          "name": "",
          "type": "bool"
        }
      ],
      "stateMutability": "view",
      "type": "function"
    },
    {
      "inputs": [],
      "name": "renounceOwnership",
      "outputs": [],
      "stateMutability": "nonpayable",
      "type": "function"
    },
    {
      "inputs": [
        {
          "internalType": "address",
          "name": "from",
          "type": "address"
        },
        {
          "internalType": "address",
          "name": "to",
          "type": "address"
        },
        {
          "internalType": "uint256[]",
          "name": "ids",
          "type": "uint256[]"
        },
        {
          "internalType": "uint256[]",
          "name": "amounts",
          "type": "uint256[]"
        },
        {
          "internalType": "bytes",
          "name": "data",
          "type": "bytes"
        }
      ],
      "name": "safeBatchTransferFrom",
      "outputs": [],
      "stateMutability": "nonpayable",
      "type": "function"
    },
    {
      "inputs": [
        {
          "internalType": "address",
          "name": "_from",
          "type": "address"
        },
        {
          "internalType": "address",
          "name": "_to",
          "type": "address"
        },
        {
          "internalType": "uint256",
          "name": "_id",
          "type": "uint256"
        },
        {
          "internalType": "uint256",
          "name": "_amount",
          "type": "uint256"
        },
        {
          "internalType": "bytes",
          "name": "_data",
          "type": "bytes"
        }
      ],
      "name": "safeTransferFrom",
      "outputs": [],
      "stateMutability": "nonpayable",
      "type": "function"
    },
    {
      "inputs": [
        {
          "internalType": "address",
          "name": "operator",
          "type": "address"
        },
        {
          "internalType": "bool",
          "name": "approved",
          "type": "bool"
        }
      ],
      "name": "setApprovalForAll",
      "outputs": [],
      "stateMutability": "nonpayable",
      "type": "function"
    },
    {
      "inputs": [
        {
          "internalType": "string",
          "name": "_baseTokenURI",
          "type": "string"
        }
      ],
      "name": "setBaseTokenURI",
      "outputs": [],
      "stateMutability": "nonpayable",
      "type": "function"
    },
    {
      "inputs": [
        {
          "internalType": "string",
          "name": "_contractURI",
          "type": "string"
        }
      ],
      "name": "setContractURI",
      "outputs": [],
      "stateMutability": "nonpayable",
      "type": "function"
    },
    {
      "inputs": [
        {
          "internalType": "bool",
          "name": "_paused",
          "type": "bool"
        }
      ],
      "name": "setPaused",
      "outputs": [],
      "stateMutability": "nonpayable",
      "type": "function"
    },
    {
      "inputs": [
        {
          "internalType": "bytes4",
          "name": "interfaceId",
          "type": "bytes4"
        }
      ],
      "name": "supportsInterface",
      "outputs": [
        {
          "internalType": "bool",
          "name": "",
          "type": "bool"
        }
      ],
      "stateMutability": "view",
      "type": "function"
    },
    {
      "inputs": [],
      "name": "symbol",
      "outputs": [
        {
          "internalType": "string",
          "name": "",
          "type": "string"
        }
      ],
      "stateMutability": "view",
      "type": "function"
    },
    {
      "inputs": [
        {
          "internalType": "uint256",
          "name": "_id",
          "type": "uint256"
        }
      ],
      "name": "tokenExists",
      "outputs": [
        {
          "internalType": "bool",
          "name": "",
          "type": "bool"
        }
      ],
      "stateMutability": "view",
      "type": "function"
    },
    {
      "inputs": [
        {
          "internalType": "uint256",
          "name": "",
          "type": "uint256"
        }
      ],
      "name": "tokens",
      "outputs": [
        {
          "internalType": "string",
          "name": "metadataHash",
          "type": "string"
        },
        {
          "internalType": "string",
          "name": "name",
          "type": "string"
        },
        {
          "internalType": "address payable",
          "name": "previousOwner",
          "type": "address"
        },
        {
          "internalType": "address payable",
          "name": "minter",
          "type": "address"
        },
        {
          "internalType": "address payable",
          "name": "owner",
          "type": "address"
        },
        {
          "internalType": "uint256",
          "name": "id",
          "type": "uint256"
        }
      ],
      "stateMutability": "view",
      "type": "function"
    },
    {
      "inputs": [],
      "name": "totalSupply",
      "outputs": [
        {
          "internalType": "uint256",
          "name": "",
          "type": "uint256"
        }
      ],
      "stateMutability": "view",
      "type": "function"
    },
    {
      "inputs": [],
      "name": "totalTokens",
      "outputs": [
        {
          "internalType": "uint256",
          "name": "",
          "type": "uint256"
        }
      ],
      "stateMutability": "view",
      "type": "function"
    },
    {
      "inputs": [
        {
          "internalType": "address",
          "name": "newOwner",
          "type": "address"
        }
      ],
      "name": "transferOwnership",
      "outputs": [],
      "stateMutability": "nonpayable",
      "type": "function"
    },
    {
      "inputs": [
        {
          "internalType": "uint256",
          "name": "_id",
          "type": "uint256"
        }
      ],
      "name": "uri",
      "outputs": [
        {
          "internalType": "string",
          "name": "",
          "type": "string"
        }
      ],
      "stateMutability": "view",
      "type": "function"
    }
  ],
  "bytecode": "0x60806040526001600360146101000a81548160ff02191690831515021790555030600560006101000a81548173ffffffffffffffffffffffffffffffffffffffff021916908373ffffffffffffffffffffffffffffffffffffffff160217905550604051806020016040528060008152506008908051906020019062000087929190620003fc565b506040518060200160405280600081525060099080519060200190620000af929190620003fc565b50633b9aca00600a556000600b55348015620000ca57600080fd5b5060405162005b1438038062005b148339818101604052810190620000f091906200051e565b604051806020016040528060008152506200011181620001f360201b60201c565b5062000132620001266200020f60201b60201c565b6200021760201b60201c565b33600460006101000a81548173ffffffffffffffffffffffffffffffffffffffff021916908373ffffffffffffffffffffffffffffffffffffffff16021790555081600790805190602001906200018b929190620003fc565b508060069080519060200190620001a4929190620003fc565b50620001eb6040518060400160405280600781526020017f697066733a2f2f00000000000000000000000000000000000000000000000000815250620002dd60201b60201c565b5050620007f4565b80600290805190602001906200020b929190620003fc565b5050565b600033905090565b6000600360009054906101000a900473ffffffffffffffffffffffffffffffffffffffff16905081600360006101000a81548173ffffffffffffffffffffffffffffffffffffffff021916908373ffffffffffffffffffffffffffffffffffffffff1602179055508173ffffffffffffffffffffffffffffffffffffffff168173ffffffffffffffffffffffffffffffffffffffff167f8be0079c531659141344cd1fd0a4f28419497f9722a3daafe3b4186f6b6457e060405160405180910390a35050565b620002ed6200020f60201b60201c565b73ffffffffffffffffffffffffffffffffffffffff1662000313620003d260201b60201c565b73ffffffffffffffffffffffffffffffffffffffff16146200036c576040517f08c379a000000000000000000000000000000000000000000000000000000000815260040162000363906200061d565b60405180910390fd5b6200037d81620001f360201b60201c565b806008908051906020019062000395929190620003fc565b507f199e933997358e1789d8b56ea8c551befeb05ce2fe3fe506199f1230f5a591b481604051620003c79190620005f9565b60405180910390a150565b6000600360009054906101000a900473ffffffffffffffffffffffffffffffffffffffff16905090565b8280546200040a90620006f0565b90600052602060002090601f0160209004810192826200042e57600085556200047a565b82601f106200044957805160ff19168380011785556200047a565b828001600101855582156200047a579182015b82811115620004795782518255916020019190600101906200045c565b5b5090506200048991906200048d565b5090565b5b80821115620004a85760008160009055506001016200048e565b5090565b6000620004c3620004bd8462000668565b6200063f565b905082815260208101848484011115620004dc57600080fd5b620004e9848285620006ba565b509392505050565b600082601f8301126200050357600080fd5b815162000515848260208601620004ac565b91505092915050565b600080604083850312156200053257600080fd5b600083015167ffffffffffffffff8111156200054d57600080fd5b6200055b85828601620004f1565b925050602083015167ffffffffffffffff8111156200057957600080fd5b6200058785828601620004f1565b9150509250929050565b60006200059e826200069e565b620005aa8185620006a9565b9350620005bc818560208601620006ba565b620005c781620007ba565b840191505092915050565b6000620005e1602083620006a9565b9150620005ee82620007cb565b602082019050919050565b6000602082019050818103600083015262000615818462000591565b905092915050565b600060208201905081810360008301526200063881620005d2565b9050919050565b60006200064b6200065e565b905062000659828262000726565b919050565b6000604051905090565b600067ffffffffffffffff8211156200068657620006856200078b565b5b6200069182620007ba565b9050602081019050919050565b600081519050919050565b600082825260208201905092915050565b60005b83811015620006da578082015181840152602081019050620006bd565b83811115620006ea576000848401525b50505050565b600060028204905060018216806200070957607f821691505b6020821081141562000720576200071f6200075c565b5b50919050565b6200073182620007ba565b810181811067ffffffffffffffff821117156200075357620007526200078b565b5b80604052505050565b7f4e487b7100000000000000000000000000000000000000000000000000000000600052602260045260246000fd5b7f4e487b7100000000000000000000000000000000000000000000000000000000600052604160045260246000fd5b6000601f19601f8301169050919050565b7f4f776e61626c653a2063616c6c6572206973206e6f7420746865206f776e6572600082015250565b61531080620008046000396000f3fe6080604052600436106101b55760003560e01c80636ff97f1d116100ec578063caa0f92a1161008a578063e985e9c511610064578063e985e9c514610618578063f1fffdcb14610655578063f242432a14610680578063f2fde38b146106a9576101b5565b8063caa0f92a14610597578063d547cfb7146105c2578063e8a3d485146105ed576101b5565b80638da5cb5b116100c65780638da5cb5b146104ef578063938e3d7b1461051a57806395d89b4114610543578063a22cb4651461056e576101b5565b80636ff97f1d14610482578063715018a6146104ad5780637e1c0c09146104c4576101b5565b80632eb2c2d6116101595780634e1273f4116101335780634e1273f4146103bc5780634f64b2be146103f95780635c975abb1461043b5780636289fa6114610466576101b5565b80632eb2c2d61461032d57806330176e131461035657806339c7639c1461037f576101b5565b806306fdde031161019557806306fdde03146102715780630e89341c1461029c57806316c38b3c146102d957806318160ddd14610302576101b5565b8062923f9e146101ba578062fdd58e146101f757806301ffc9a714610234575b600080fd5b3480156101c657600080fd5b506101e160048036038101906101dc9190613bcd565b6106d2565b6040516101ee9190614462565b60405180910390f35b34801561020357600080fd5b5061021e60048036038101906102199190613a69565b610944565b60405161022b9190614805565b60405180910390f35b34801561024057600080fd5b5061025b60048036038101906102569190613b3a565b610a0d565b6040516102689190614462565b60405180910390f35b34801561027d57600080fd5b50610286610aef565b604051610293919061447d565b60405180910390f35b3480156102a857600080fd5b506102c360048036038101906102be9190613bcd565b610b7d565b6040516102d0919061447d565b60405180910390f35b3480156102e557600080fd5b5061030060048036038101906102fb9190613b11565b610c52565b005b34801561030e57600080fd5b50610317610d78565b6040516103249190614805565b60405180910390f35b34801561033957600080fd5b50610354600480360381019061034f91906138df565b610d7e565b005b34801561036257600080fd5b5061037d60048036038101906103789190613b8c565b610e1f565b005b34801561038b57600080fd5b506103a660048036038101906103a19190613bcd565b610ef5565b6040516103b39190614462565b60405180910390f35b3480156103c857600080fd5b506103e360048036038101906103de9190613aa5565b610f63565b6040516103f09190614409565b60405180910390f35b34801561040557600080fd5b50610420600480360381019061041b9190613bcd565b611114565b604051610432969594939291906144d6565b60405180910390f35b34801561044757600080fd5b506104506112c0565b60405161045d9190614462565b60405180910390f35b610480600480360381019061047b9190613bf6565b6112d3565b005b34801561048e57600080fd5b50610497611361565b6040516104a491906143e7565b60405180910390f35b3480156104b957600080fd5b506104c26116a9565b005b3480156104d057600080fd5b506104d9611731565b6040516104e69190614805565b60405180910390f35b3480156104fb57600080fd5b50610504611737565b604051610511919061430a565b60405180910390f35b34801561052657600080fd5b50610541600480360381019061053c9190613b8c565b611761565b005b34801561054f57600080fd5b5061055861182e565b604051610565919061447d565b60405180910390f35b34801561057a57600080fd5b5061059560048036038101906105909190613a2d565b6118bc565b005b3480156105a357600080fd5b506105ac6118d2565b6040516105b99190614805565b60405180910390f35b3480156105ce57600080fd5b506105d76118e8565b6040516105e4919061447d565b60405180910390f35b3480156105f957600080fd5b50610602611976565b60405161060f919061447d565b60405180910390f35b34801561062457600080fd5b5061063f600480360381019061063a91906138a3565b611a04565b60405161064c9190614462565b60405180910390f35b34801561066157600080fd5b5061066a611a98565b604051610677919061430a565b60405180910390f35b34801561068c57600080fd5b506106a760048036038101906106a2919061399e565b611abe565b005b3480156106b557600080fd5b506106d060048036038101906106cb919061387a565b611ec9565b005b600080600c60008481526020019081526020016000206040518060c001604052908160008201805461070390614b21565b80601f016020809104026020016040519081016040528092919081815260200182805461072f90614b21565b801561077c5780601f106107515761010080835404028352916020019161077c565b820191906000526020600020905b81548152906001019060200180831161075f57829003601f168201915b5050505050815260200160018201805461079590614b21565b80601f01602080910402602001604051908101604052809291908181526020018280546107c190614b21565b801561080e5780601f106107e35761010080835404028352916020019161080e565b820191906000526020600020905b8154815290600101906020018083116107f157829003601f168201915b505050505081526020016002820160009054906101000a900473ffffffffffffffffffffffffffffffffffffffff1673ffffffffffffffffffffffffffffffffffffffff1673ffffffffffffffffffffffffffffffffffffffff1681526020016003820160009054906101000a900473ffffffffffffffffffffffffffffffffffffffff1673ffffffffffffffffffffffffffffffffffffffff1673ffffffffffffffffffffffffffffffffffffffff1681526020016004820160009054906101000a900473ffffffffffffffffffffffffffffffffffffffff1673ffffffffffffffffffffffffffffffffffffffff1673ffffffffffffffffffffffffffffffffffffffff168152602001600582015481525050905060008160a0015111801561093c5750828160a00151145b915050919050565b60008073ffffffffffffffffffffffffffffffffffffffff168373ffffffffffffffffffffffffffffffffffffffff1614156109b5576040517f08c379a00000000000000000000000000000000000000000000000000000000081526004016109ac906145a5565b60405180910390fd5b60008083815260200190815260200160002060008473ffffffffffffffffffffffffffffffffffffffff1673ffffffffffffffffffffffffffffffffffffffff16815260200190815260200160002054905092915050565b60007fd9b67a26000000000000000000000000000000000000000000000000000000007bffffffffffffffffffffffffffffffffffffffffffffffffffffffff1916827bffffffffffffffffffffffffffffffffffffffffffffffffffffffff19161480610ad857507f0e89341c000000000000000000000000000000000000000000000000000000007bffffffffffffffffffffffffffffffffffffffffffffffffffffffff1916827bffffffffffffffffffffffffffffffffffffffffffffffffffffffff1916145b80610ae85750610ae782611fc1565b5b9050919050565b60078054610afc90614b21565b80601f0160208091040260200160405190810160405280929190818152602001828054610b2890614b21565b8015610b755780601f10610b4a57610100808354040283529160200191610b75565b820191906000526020600020905b815481529060010190602001808311610b5857829003601f168201915b505050505081565b6060610b88826106d2565b610ba357604051806020016040528060008152509050610c4d565b610c4a600c60008481526020019081526020016000206000018054610bc790614b21565b80601f0160208091040260200160405190810160405280929190818152602001828054610bf390614b21565b8015610c405780601f10610c1557610100808354040283529160200191610c40565b820191906000526020600020905b815481529060010190602001808311610c2357829003601f168201915b505050505061202b565b90505b919050565b610c5a612057565b73ffffffffffffffffffffffffffffffffffffffff16610c78611737565b73ffffffffffffffffffffffffffffffffffffffff1614610cce576040517f08c379a0000000000000000000000000000000000000000000000000000000008152600401610cc5906146e5565b60405180910390fd5b600360149054906101000a900460ff1615158115151415610d24576040517f08c379a0000000000000000000000000000000000000000000000000000000008152600401610d1b906146a5565b60405180910390fd5b80600360146101000a81548160ff0219169083151502179055507f3c70af01296aef045b2f5c9d3c30b05d4428fd257145b9c7fcd76418e65b598081604051610d6d9190614462565b60405180910390a150565b600a5481565b610d86612057565b73ffffffffffffffffffffffffffffffffffffffff168573ffffffffffffffffffffffffffffffffffffffff161480610dcc5750610dcb85610dc6612057565b611a04565b5b610e0b576040517f08c379a0000000000000000000000000000000000000000000000000000000008152600401610e0290614685565b60405180910390fd5b610e18858585858561205f565b5050505050565b610e27612057565b73ffffffffffffffffffffffffffffffffffffffff16610e45611737565b73ffffffffffffffffffffffffffffffffffffffff1614610e9b576040517f08c379a0000000000000000000000000000000000000000000000000000000008152600401610e92906146e5565b60405180910390fd5b610ea4816123bf565b8060089080519060200190610eba9291906134fa565b507f199e933997358e1789d8b56ea8c551befeb05ce2fe3fe506199f1230f5a591b481604051610eea919061447d565b60405180910390a150565b60003373ffffffffffffffffffffffffffffffffffffffff16600c600084815260200190815260200160002060040160009054906101000a900473ffffffffffffffffffffffffffffffffffffffff1673ffffffffffffffffffffffffffffffffffffffff16149050919050565b60608151835114610fa9576040517f08c379a0000000000000000000000000000000000000000000000000000000008152600401610fa090614785565b60405180910390fd5b6000835167ffffffffffffffff811115610fec577f4e487b7100000000000000000000000000000000000000000000000000000000600052604160045260246000fd5b60405190808252806020026020018201604052801561101a5781602001602082028036833780820191505090505b50905060005b8451811015611109576110b3858281518110611065577f4e487b7100000000000000000000000000000000000000000000000000000000600052603260045260246000fd5b60200260200101518583815181106110a6577f4e487b7100000000000000000000000000000000000000000000000000000000600052603260045260246000fd5b6020026020010151610944565b8282815181106110ec577f4e487b7100000000000000000000000000000000000000000000000000000000600052603260045260246000fd5b6020026020010181815250508061110290614b84565b9050611020565b508091505092915050565b600c60205280600052604060002060009150905080600001805461113790614b21565b80601f016020809104026020016040519081016040528092919081815260200182805461116390614b21565b80156111b05780601f10611185576101008083540402835291602001916111b0565b820191906000526020600020905b81548152906001019060200180831161119357829003601f168201915b5050505050908060010180546111c590614b21565b80601f01602080910402602001604051908101604052809291908181526020018280546111f190614b21565b801561123e5780601f106112135761010080835404028352916020019161123e565b820191906000526020600020905b81548152906001019060200180831161122157829003601f168201915b5050505050908060020160009054906101000a900473ffffffffffffffffffffffffffffffffffffffff16908060030160009054906101000a900473ffffffffffffffffffffffffffffffffffffffff16908060040160009054906101000a900473ffffffffffffffffffffffffffffffffffffffff16908060050154905086565b600360149054906101000a900460ff1681565b6112db612057565b73ffffffffffffffffffffffffffffffffffffffff166112f9611737565b73ffffffffffffffffffffffffffffffffffffffff161461134f576040517f08c379a0000000000000000000000000000000000000000000000000000000008152600401611346906146e5565b60405180910390fd5b61135b848484846123d9565b50505050565b60606000600b5467ffffffffffffffff8111156113a7577f4e487b7100000000000000000000000000000000000000000000000000000000600052604160045260246000fd5b6040519080825280602002602001820160405280156113e057816020015b6113cd613580565b8152602001906001900390816113c55790505b50905060005b600b548110156116a157600c60006001836114019190614a03565b81526020019081526020016000206040518060c001604052908160008201805461142a90614b21565b80601f016020809104026020016040519081016040528092919081815260200182805461145690614b21565b80156114a35780601f10611478576101008083540402835291602001916114a3565b820191906000526020600020905b81548152906001019060200180831161148657829003601f168201915b505050505081526020016001820180546114bc90614b21565b80601f01602080910402602001604051908101604052809291908181526020018280546114e890614b21565b80156115355780601f1061150a57610100808354040283529160200191611535565b820191906000526020600020905b81548152906001019060200180831161151857829003601f168201915b505050505081526020016002820160009054906101000a900473ffffffffffffffffffffffffffffffffffffffff1673ffffffffffffffffffffffffffffffffffffffff1673ffffffffffffffffffffffffffffffffffffffff1681526020016003820160009054906101000a900473ffffffffffffffffffffffffffffffffffffffff1673ffffffffffffffffffffffffffffffffffffffff1673ffffffffffffffffffffffffffffffffffffffff1681526020016004820160009054906101000a900473ffffffffffffffffffffffffffffffffffffffff1673ffffffffffffffffffffffffffffffffffffffff1673ffffffffffffffffffffffffffffffffffffffff168152602001600582015481525050828281518110611683577f4e487b7100000000000000000000000000000000000000000000000000000000600052603260045260246000fd5b6020026020010181905250808061169990614b84565b9150506113e6565b508091505090565b6116b1612057565b73ffffffffffffffffffffffffffffffffffffffff166116cf611737565b73ffffffffffffffffffffffffffffffffffffffff1614611725576040517f08c379a000000000000000000000000000000000000000000000000000000000815260040161171c906146e5565b60405180910390fd5b61172f600061294f565b565b600b5481565b6000600360009054906101000a900473ffffffffffffffffffffffffffffffffffffffff16905090565b611769612057565b73ffffffffffffffffffffffffffffffffffffffff16611787611737565b73ffffffffffffffffffffffffffffffffffffffff16146117dd576040517f08c379a00000000000000000000000000000000000000000000000000000000081526004016117d4906146e5565b60405180910390fd5b80600990805190602001906117f39291906134fa565b507f5ca9f750836b0b7efdace104f07b5c9f0df0650c0fd24f5163e99044ae36ea5281604051611823919061447d565b60405180910390a150565b6006805461183b90614b21565b80601f016020809104026020016040519081016040528092919081815260200182805461186790614b21565b80156118b45780601f10611889576101008083540402835291602001916118b4565b820191906000526020600020905b81548152906001019060200180831161189757829003601f168201915b505050505081565b6118ce6118c7612057565b8383612a15565b5050565b60006001600b546118e39190614a03565b905090565b600880546118f590614b21565b80601f016020809104026020016040519081016040528092919081815260200182805461192190614b21565b801561196e5780601f106119435761010080835404028352916020019161196e565b820191906000526020600020905b81548152906001019060200180831161195157829003601f168201915b505050505081565b6009805461198390614b21565b80601f01602080910402602001604051908101604052809291908181526020018280546119af90614b21565b80156119fc5780601f106119d1576101008083540402835291602001916119fc565b820191906000526020600020905b8154815290600101906020018083116119df57829003601f168201915b505050505081565b6000600160008473ffffffffffffffffffffffffffffffffffffffff1673ffffffffffffffffffffffffffffffffffffffff16815260200190815260200160002060008373ffffffffffffffffffffffffffffffffffffffff1673ffffffffffffffffffffffffffffffffffffffff16815260200190815260200160002060009054906101000a900460ff16905092915050565b600460009054906101000a900473ffffffffffffffffffffffffffffffffffffffff1681565b611acb8585858585612b82565b6000600c60008581526020019081526020016000206040518060c0016040529081600082018054611afb90614b21565b80601f0160208091040260200160405190810160405280929190818152602001828054611b2790614b21565b8015611b745780601f10611b4957610100808354040283529160200191611b74565b820191906000526020600020905b815481529060010190602001808311611b5757829003601f168201915b50505050508152602001600182018054611b8d90614b21565b80601f0160208091040260200160405190810160405280929190818152602001828054611bb990614b21565b8015611c065780601f10611bdb57610100808354040283529160200191611c06565b820191906000526020600020905b815481529060010190602001808311611be957829003601f168201915b505050505081526020016002820160009054906101000a900473ffffffffffffffffffffffffffffffffffffffff1673ffffffffffffffffffffffffffffffffffffffff1673ffffffffffffffffffffffffffffffffffffffff1681526020016003820160009054906101000a900473ffffffffffffffffffffffffffffffffffffffff1673ffffffffffffffffffffffffffffffffffffffff1673ffffffffffffffffffffffffffffffffffffffff1681526020016004820160009054906101000a900473ffffffffffffffffffffffffffffffffffffffff1673ffffffffffffffffffffffffffffffffffffffff1673ffffffffffffffffffffffffffffffffffffffff16815260200160058201548152505090508060800151816040019073ffffffffffffffffffffffffffffffffffffffff16908173ffffffffffffffffffffffffffffffffffffffff168152505084816080019073ffffffffffffffffffffffffffffffffffffffff16908173ffffffffffffffffffffffffffffffffffffffff168152505080600c60008681526020019081526020016000206000820151816000019080519060200190611dc19291906134fa565b506020820151816001019080519060200190611dde9291906134fa565b5060408201518160020160006101000a81548173ffffffffffffffffffffffffffffffffffffffff021916908373ffffffffffffffffffffffffffffffffffffffff16021790555060608201518160030160006101000a81548173ffffffffffffffffffffffffffffffffffffffff021916908373ffffffffffffffffffffffffffffffffffffffff16021790555060808201518160040160006101000a81548173ffffffffffffffffffffffffffffffffffffffff021916908373ffffffffffffffffffffffffffffffffffffffff16021790555060a08201518160050155905050505050505050565b611ed1612057565b73ffffffffffffffffffffffffffffffffffffffff16611eef611737565b73ffffffffffffffffffffffffffffffffffffffff1614611f45576040517f08c379a0000000000000000000000000000000000000000000000000000000008152600401611f3c906146e5565b60405180910390fd5b600073ffffffffffffffffffffffffffffffffffffffff168173ffffffffffffffffffffffffffffffffffffffff161415611fb5576040517f08c379a0000000000000000000000000000000000000000000000000000000008152600401611fac906145c5565b60405180910390fd5b611fbe8161294f565b50565b60007f01ffc9a7000000000000000000000000000000000000000000000000000000007bffffffffffffffffffffffffffffffffffffffffffffffffffffffff1916827bffffffffffffffffffffffffffffffffffffffffffffffffffffffff1916149050919050565b60606008826040516020016120419291906142e6565b6040516020818303038152906040529050919050565b600033905090565b81518351146120a3576040517f08c379a000000000000000000000000000000000000000000000000000000000815260040161209a906147a5565b60405180910390fd5b600073ffffffffffffffffffffffffffffffffffffffff168473ffffffffffffffffffffffffffffffffffffffff161415612113576040517f08c379a000000000000000000000000000000000000000000000000000000000815260040161210a90614665565b60405180910390fd5b600061211d612057565b905061212d818787878787612c23565b60005b845181101561232a576000858281518110612174577f4e487b7100000000000000000000000000000000000000000000000000000000600052603260045260246000fd5b6020026020010151905060008583815181106121b9577f4e487b7100000000000000000000000000000000000000000000000000000000600052603260045260246000fd5b60200260200101519050600080600084815260200190815260200160002060008b73ffffffffffffffffffffffffffffffffffffffff1673ffffffffffffffffffffffffffffffffffffffff1681526020019081526020016000205490508181101561225a576040517f08c379a0000000000000000000000000000000000000000000000000000000008152600401612251906146c5565b60405180910390fd5b81810360008085815260200190815260200160002060008c73ffffffffffffffffffffffffffffffffffffffff1673ffffffffffffffffffffffffffffffffffffffff168152602001908152602001600020819055508160008085815260200190815260200160002060008b73ffffffffffffffffffffffffffffffffffffffff1673ffffffffffffffffffffffffffffffffffffffff168152602001908152602001600020600082825461230f9190614a03565b925050819055505050508061232390614b84565b9050612130565b508473ffffffffffffffffffffffffffffffffffffffff168673ffffffffffffffffffffffffffffffffffffffff168273ffffffffffffffffffffffffffffffffffffffff167f4a39dc06d4c0dbc64b70af90fd698a233a518aa5d07e595d983b8c0526c8f7fb87876040516123a192919061442b565b60405180910390a46123b7818787878787612c2b565b505050505050565b80600290805190602001906123d59291906134fa565b5050565b600360149054906101000a900460ff1615612429576040517f08c379a0000000000000000000000000000000000000000000000000000000008152600401612420906145e5565b60405180910390fd5b60011515612436856106d2565b15151415612479576040517f08c379a000000000000000000000000000000000000000000000000000000000815260040161247090614625565b60405180910390fd5b60011515600e8360405161248d91906142cf565b908152602001604051809103902060009054906101000a900460ff16151514156124ec576040517f08c379a00000000000000000000000000000000000000000000000000000000081526004016124e3906147e5565b60405180910390fd5b6001600b546124fb9190614a03565b841461253c576040517f08c379a000000000000000000000000000000000000000000000000000000000815260040161253390614725565b60405180910390fd5b600082511415612581576040517f08c379a000000000000000000000000000000000000000000000000000000000815260040161257890614745565b60405180910390fd5b6000815114156125c6576040517f08c379a00000000000000000000000000000000000000000000000000000000081526004016125bd90614585565b60405180910390fd5b60011515600d826040516125da91906142cf565b908152602001604051809103902060009054906101000a900460ff1615151415612639576040517f08c379a000000000000000000000000000000000000000000000000000000000815260040161263090614705565b60405180910390fd5b600a5484111561267e576040517f08c379a000000000000000000000000000000000000000000000000000000000815260040161267590614605565b60405180910390fd5b61269a8385600160405180602001604052806000815250612e12565b83600b819055506001600e836040516126b391906142cf565b908152602001604051809103902060006101000a81548160ff0219169083151502179055506001600d826040516126ea91906142cf565b908152602001604051809103902060006101000a81548160ff02191690831515021790555060006040518060c00160405280848152602001838152602001600073ffffffffffffffffffffffffffffffffffffffff1681526020013373ffffffffffffffffffffffffffffffffffffffff1681526020018573ffffffffffffffffffffffffffffffffffffffff16815260200186815250905080600c600087815260200190815260200160002060008201518160000190805190602001906127b39291906134fa565b5060208201518160010190805190602001906127d09291906134fa565b5060408201518160020160006101000a81548173ffffffffffffffffffffffffffffffffffffffff021916908373ffffffffffffffffffffffffffffffffffffffff16021790555060608201518160030160006101000a81548173ffffffffffffffffffffffffffffffffffffffff021916908373ffffffffffffffffffffffffffffffffffffffff16021790555060808201518160040160006101000a81548173ffffffffffffffffffffffffffffffffffffffff021916908373ffffffffffffffffffffffffffffffffffffffff16021790555060a08201518160050155905050847fa109ba539900bf1b633f956d63c96fc89b814c7287f7aa50a9216d0b556572076128de8561202b565b6040516128eb919061447d565b60405180910390a2806080015173ffffffffffffffffffffffffffffffffffffffff16857fc2f71934c9fa401acb377735eaaf77040e19379c58b7963abdbd7a3ed621eec0858560405161294092919061449f565b60405180910390a35050505050565b6000600360009054906101000a900473ffffffffffffffffffffffffffffffffffffffff16905081600360006101000a81548173ffffffffffffffffffffffffffffffffffffffff021916908373ffffffffffffffffffffffffffffffffffffffff1602179055508173ffffffffffffffffffffffffffffffffffffffff168173ffffffffffffffffffffffffffffffffffffffff167f8be0079c531659141344cd1fd0a4f28419497f9722a3daafe3b4186f6b6457e060405160405180910390a35050565b8173ffffffffffffffffffffffffffffffffffffffff168373ffffffffffffffffffffffffffffffffffffffff161415612a84576040517f08c379a0000000000000000000000000000000000000000000000000000000008152600401612a7b90614765565b60405180910390fd5b80600160008573ffffffffffffffffffffffffffffffffffffffff1673ffffffffffffffffffffffffffffffffffffffff16815260200190815260200160002060008473ffffffffffffffffffffffffffffffffffffffff1673ffffffffffffffffffffffffffffffffffffffff16815260200190815260200160002060006101000a81548160ff0219169083151502179055508173ffffffffffffffffffffffffffffffffffffffff168373ffffffffffffffffffffffffffffffffffffffff167f17307eab39ab6107e8899845ad3d59bd9653f200f220920489ca2b5937696c3183604051612b759190614462565b60405180910390a3505050565b612b8a612057565b73ffffffffffffffffffffffffffffffffffffffff168573ffffffffffffffffffffffffffffffffffffffff161480612bd05750612bcf85612bca612057565b611a04565b5b612c0f576040517f08c379a0000000000000000000000000000000000000000000000000000000008152600401612c0690614645565b60405180910390fd5b612c1c8585858585612fa8565b5050505050565b505050505050565b612c4a8473ffffffffffffffffffffffffffffffffffffffff1661322a565b15612e0a578373ffffffffffffffffffffffffffffffffffffffff1663bc197c8187878686866040518663ffffffff1660e01b8152600401612c90959493929190614325565b602060405180830381600087803b158015612caa57600080fd5b505af1925050508015612cdb57506040513d601f19601f82011682018060405250810190612cd89190613b63565b60015b612d8157612ce7614c5a565b806308c379a01415612d445750612cfc6151e8565b80612d075750612d46565b806040517f08c379a0000000000000000000000000000000000000000000000000000000008152600401612d3b919061447d565b60405180910390fd5b505b6040517f08c379a0000000000000000000000000000000000000000000000000000000008152600401612d7890614545565b60405180910390fd5b63bc197c8160e01b7bffffffffffffffffffffffffffffffffffffffffffffffffffffffff1916817bffffffffffffffffffffffffffffffffffffffffffffffffffffffff191614612e08576040517f08c379a0000000000000000000000000000000000000000000000000000000008152600401612dff90614565565b60405180910390fd5b505b505050505050565b600073ffffffffffffffffffffffffffffffffffffffff168473ffffffffffffffffffffffffffffffffffffffff161415612e82576040517f08c379a0000000000000000000000000000000000000000000000000000000008152600401612e79906147c5565b60405180910390fd5b6000612e8c612057565b9050612ead81600087612e9e8861324d565b612ea78861324d565b87612c23565b8260008086815260200190815260200160002060008773ffffffffffffffffffffffffffffffffffffffff1673ffffffffffffffffffffffffffffffffffffffff1681526020019081526020016000206000828254612f0c9190614a03565b925050819055508473ffffffffffffffffffffffffffffffffffffffff16600073ffffffffffffffffffffffffffffffffffffffff168273ffffffffffffffffffffffffffffffffffffffff167fc3d58168c5ae7397731d063d5bbf3d657854427343f4c083240f7aacaa2d0f628787604051612f8a929190614820565b60405180910390a4612fa181600087878787613313565b5050505050565b600073ffffffffffffffffffffffffffffffffffffffff168473ffffffffffffffffffffffffffffffffffffffff161415613018576040517f08c379a000000000000000000000000000000000000000000000000000000000815260040161300f90614665565b60405180910390fd5b6000613022612057565b90506130428187876130338861324d565b61303c8861324d565b87612c23565b600080600086815260200190815260200160002060008873ffffffffffffffffffffffffffffffffffffffff1673ffffffffffffffffffffffffffffffffffffffff168152602001908152602001600020549050838110156130d9576040517f08c379a00000000000000000000000000000000000000000000000000000000081526004016130d0906146c5565b60405180910390fd5b83810360008087815260200190815260200160002060008973ffffffffffffffffffffffffffffffffffffffff1673ffffffffffffffffffffffffffffffffffffffff168152602001908152602001600020819055508360008087815260200190815260200160002060008873ffffffffffffffffffffffffffffffffffffffff1673ffffffffffffffffffffffffffffffffffffffff168152602001908152602001600020600082825461318e9190614a03565b925050819055508573ffffffffffffffffffffffffffffffffffffffff168773ffffffffffffffffffffffffffffffffffffffff168373ffffffffffffffffffffffffffffffffffffffff167fc3d58168c5ae7397731d063d5bbf3d657854427343f4c083240f7aacaa2d0f62888860405161320b929190614820565b60405180910390a4613221828888888888613313565b50505050505050565b6000808273ffffffffffffffffffffffffffffffffffffffff163b119050919050565b60606000600167ffffffffffffffff811115613292577f4e487b7100000000000000000000000000000000000000000000000000000000600052604160045260246000fd5b6040519080825280602002602001820160405280156132c05781602001602082028036833780820191505090505b50905082816000815181106132fe577f4e487b7100000000000000000000000000000000000000000000000000000000600052603260045260246000fd5b60200260200101818152505080915050919050565b6133328473ffffffffffffffffffffffffffffffffffffffff1661322a565b156134f2578373ffffffffffffffffffffffffffffffffffffffff1663f23a6e6187878686866040518663ffffffff1660e01b815260040161337895949392919061438d565b602060405180830381600087803b15801561339257600080fd5b505af19250505080156133c357506040513d601f19601f820116820180604052508101906133c09190613b63565b60015b613469576133cf614c5a565b806308c379a0141561342c57506133e46151e8565b806133ef575061342e565b806040517f08c379a0000000000000000000000000000000000000000000000000000000008152600401613423919061447d565b60405180910390fd5b505b6040517f08c379a000000000000000000000000000000000000000000000000000000000815260040161346090614545565b60405180910390fd5b63f23a6e6160e01b7bffffffffffffffffffffffffffffffffffffffffffffffffffffffff1916817bffffffffffffffffffffffffffffffffffffffffffffffffffffffff1916146134f0576040517f08c379a00000000000000000000000000000000000000000000000000000000081526004016134e790614565565b60405180910390fd5b505b505050505050565b82805461350690614b21565b90600052602060002090601f016020900481019282613528576000855561356f565b82601f1061354157805160ff191683800117855561356f565b8280016001018555821561356f579182015b8281111561356e578251825591602001919060010190613553565b5b50905061357c91906135f8565b5090565b6040518060c001604052806060815260200160608152602001600073ffffffffffffffffffffffffffffffffffffffff168152602001600073ffffffffffffffffffffffffffffffffffffffff168152602001600073ffffffffffffffffffffffffffffffffffffffff168152602001600081525090565b5b808211156136115760008160009055506001016135f9565b5090565b60006136286136238461486e565b614849565b9050808382526020820190508285602086028201111561364757600080fd5b60005b85811015613677578161365d8882613769565b84526020840193506020830192505060018101905061364a565b5050509392505050565b600061369461368f8461489a565b614849565b905080838252602082019050828560208602820111156136b357600080fd5b60005b858110156136e357816136c98882613865565b8452602084019350602083019250506001810190506136b6565b5050509392505050565b60006137006136fb846148c6565b614849565b90508281526020810184848401111561371857600080fd5b613723848285614adf565b509392505050565b600061373e613739846148f7565b614849565b90508281526020810184848401111561375657600080fd5b613761848285614adf565b509392505050565b6000813590506137788161527e565b92915050565b600082601f83011261378f57600080fd5b813561379f848260208601613615565b91505092915050565b600082601f8301126137b957600080fd5b81356137c9848260208601613681565b91505092915050565b6000813590506137e181615295565b92915050565b6000813590506137f6816152ac565b92915050565b60008151905061380b816152ac565b92915050565b600082601f83011261382257600080fd5b81356138328482602086016136ed565b91505092915050565b600082601f83011261384c57600080fd5b813561385c84826020860161372b565b91505092915050565b600081359050613874816152c3565b92915050565b60006020828403121561388c57600080fd5b600061389a84828501613769565b91505092915050565b600080604083850312156138b657600080fd5b60006138c485828601613769565b92505060206138d585828601613769565b9150509250929050565b600080600080600060a086880312156138f757600080fd5b600061390588828901613769565b955050602061391688828901613769565b945050604086013567ffffffffffffffff81111561393357600080fd5b61393f888289016137a8565b935050606086013567ffffffffffffffff81111561395c57600080fd5b613968888289016137a8565b925050608086013567ffffffffffffffff81111561398557600080fd5b61399188828901613811565b9150509295509295909350565b600080600080600060a086880312156139b657600080fd5b60006139c488828901613769565b95505060206139d588828901613769565b94505060406139e688828901613865565b93505060606139f788828901613865565b925050608086013567ffffffffffffffff811115613a1457600080fd5b613a2088828901613811565b9150509295509295909350565b60008060408385031215613a4057600080fd5b6000613a4e85828601613769565b9250506020613a5f858286016137d2565b9150509250929050565b60008060408385031215613a7c57600080fd5b6000613a8a85828601613769565b9250506020613a9b85828601613865565b9150509250929050565b60008060408385031215613ab857600080fd5b600083013567ffffffffffffffff811115613ad257600080fd5b613ade8582860161377e565b925050602083013567ffffffffffffffff811115613afb57600080fd5b613b07858286016137a8565b9150509250929050565b600060208284031215613b2357600080fd5b6000613b31848285016137d2565b91505092915050565b600060208284031215613b4c57600080fd5b6000613b5a848285016137e7565b91505092915050565b600060208284031215613b7557600080fd5b6000613b83848285016137fc565b91505092915050565b600060208284031215613b9e57600080fd5b600082013567ffffffffffffffff811115613bb857600080fd5b613bc48482850161383b565b91505092915050565b600060208284031215613bdf57600080fd5b6000613bed84828501613865565b91505092915050565b60008060008060808587031215613c0c57600080fd5b6000613c1a87828801613865565b9450506020613c2b87828801613769565b935050604085013567ffffffffffffffff811115613c4857600080fd5b613c548782880161383b565b925050606085013567ffffffffffffffff811115613c7157600080fd5b613c7d8782880161383b565b91505092959194509250565b6000613c958383614221565b905092915050565b6000613ca983836142b1565b60208301905092915050565b613cbe81614a6b565b82525050565b613ccd81614a6b565b82525050565b613cdc81614a59565b82525050565b6000613ced8261495d565b613cf781856149a3565b935083602082028501613d0985614928565b8060005b85811015613d455784840389528151613d268582613c89565b9450613d3183614989565b925060208a01995050600181019050613d0d565b50829750879550505050505092915050565b6000613d6282614968565b613d6c81856149b4565b9350613d7783614938565b8060005b83811015613da8578151613d8f8882613c9d565b9750613d9a83614996565b925050600181019050613d7b565b5085935050505092915050565b613dbe81614a7d565b82525050565b6000613dcf82614973565b613dd981856149c5565b9350613de9818560208601614aee565b613df281614c7c565b840191505092915050565b6000613e088261497e565b613e1281856149d6565b9350613e22818560208601614aee565b613e2b81614c7c565b840191505092915050565b6000613e418261497e565b613e4b81856149e7565b9350613e5b818560208601614aee565b613e6481614c7c565b840191505092915050565b6000613e7a8261497e565b613e8481856149f8565b9350613e94818560208601614aee565b80840191505092915050565b60008154613ead81614b21565b613eb781866149f8565b94506001821660008114613ed25760018114613ee357613f16565b60ff19831686528186019350613f16565b613eec85614948565b60005b83811015613f0e57815481890152600182019150602081019050613eef565b838801955050505b50505092915050565b6000613f2c6034836149e7565b9150613f3782614c9a565b604082019050919050565b6000613f4f6028836149e7565b9150613f5a82614ce9565b604082019050919050565b6000613f72600d836149e7565b9150613f7d82614d38565b602082019050919050565b6000613f95602b836149e7565b9150613fa082614d61565b604082019050919050565b6000613fb86026836149e7565b9150613fc382614db0565b604082019050919050565b6000613fdb6018836149e7565b9150613fe682614dff565b602082019050919050565b6000613ffe6011836149e7565b915061400982614e28565b602082019050919050565b60006140216014836149e7565b915061402c82614e51565b602082019050919050565b60006140446029836149e7565b915061404f82614e7a565b604082019050919050565b60006140676025836149e7565b915061407282614ec9565b604082019050919050565b600061408a6032836149e7565b915061409582614f18565b604082019050919050565b60006140ad6012836149e7565b91506140b882614f67565b602082019050919050565b60006140d0602a836149e7565b91506140db82614f90565b604082019050919050565b60006140f36020836149e7565b91506140fe82614fdf565b602082019050919050565b60006141166013836149e7565b915061412182615008565b602082019050919050565b60006141396012836149e7565b915061414482615031565b602082019050919050565b600061415c6016836149e7565b91506141678261505a565b602082019050919050565b600061417f6029836149e7565b915061418a82615083565b604082019050919050565b60006141a26029836149e7565b91506141ad826150d2565b604082019050919050565b60006141c56028836149e7565b91506141d082615121565b604082019050919050565b60006141e86021836149e7565b91506141f382615170565b604082019050919050565b600061420b6013836149e7565b9150614216826151bf565b602082019050919050565b600060c083016000830151848203600086015261423e8282613dfd565b915050602083015184820360208601526142588282613dfd565b915050604083015161426d6040860182613cb5565b5060608301516142806060860182613cb5565b5060808301516142936080860182613cb5565b5060a08301516142a660a08601826142b1565b508091505092915050565b6142ba81614ad5565b82525050565b6142c981614ad5565b82525050565b60006142db8284613e6f565b915081905092915050565b60006142f28285613ea0565b91506142fe8284613e6f565b91508190509392505050565b600060208201905061431f6000830184613cd3565b92915050565b600060a08201905061433a6000830188613cd3565b6143476020830187613cd3565b81810360408301526143598186613d57565b9050818103606083015261436d8185613d57565b905081810360808301526143818184613dc4565b90509695505050505050565b600060a0820190506143a26000830188613cd3565b6143af6020830187613cd3565b6143bc60408301866142c0565b6143c960608301856142c0565b81810360808301526143db8184613dc4565b90509695505050505050565b600060208201905081810360008301526144018184613ce2565b905092915050565b600060208201905081810360008301526144238184613d57565b905092915050565b600060408201905081810360008301526144458185613d57565b905081810360208301526144598184613d57565b90509392505050565b60006020820190506144776000830184613db5565b92915050565b600060208201905081810360008301526144978184613e36565b905092915050565b600060408201905081810360008301526144b98185613e36565b905081810360208301526144cd8184613e36565b90509392505050565b600060c08201905081810360008301526144f08189613e36565b905081810360208301526145048188613e36565b90506145136040830187613cc4565b6145206060830186613cc4565b61452d6080830185613cc4565b61453a60a08301846142c0565b979650505050505050565b6000602082019050818103600083015261455e81613f1f565b9050919050565b6000602082019050818103600083015261457e81613f42565b9050919050565b6000602082019050818103600083015261459e81613f65565b9050919050565b600060208201905081810360008301526145be81613f88565b9050919050565b600060208201905081810360008301526145de81613fab565b9050919050565b600060208201905081810360008301526145fe81613fce565b9050919050565b6000602082019050818103600083015261461e81613ff1565b9050919050565b6000602082019050818103600083015261463e81614014565b9050919050565b6000602082019050818103600083015261465e81614037565b9050919050565b6000602082019050818103600083015261467e8161405a565b9050919050565b6000602082019050818103600083015261469e8161407d565b9050919050565b600060208201905081810360008301526146be816140a0565b9050919050565b600060208201905081810360008301526146de816140c3565b9050919050565b600060208201905081810360008301526146fe816140e6565b9050919050565b6000602082019050818103600083015261471e81614109565b9050919050565b6000602082019050818103600083015261473e8161412c565b9050919050565b6000602082019050818103600083015261475e8161414f565b9050919050565b6000602082019050818103600083015261477e81614172565b9050919050565b6000602082019050818103600083015261479e81614195565b9050919050565b600060208201905081810360008301526147be816141b8565b9050919050565b600060208201905081810360008301526147de816141db565b9050919050565b600060208201905081810360008301526147fe816141fe565b9050919050565b600060208201905061481a60008301846142c0565b92915050565b600060408201905061483560008301856142c0565b61484260208301846142c0565b9392505050565b6000614853614864565b905061485f8282614b53565b919050565b6000604051905090565b600067ffffffffffffffff82111561488957614888614c2b565b5b602082029050602081019050919050565b600067ffffffffffffffff8211156148b5576148b4614c2b565b5b602082029050602081019050919050565b600067ffffffffffffffff8211156148e1576148e0614c2b565b5b6148ea82614c7c565b9050602081019050919050565b600067ffffffffffffffff82111561491257614911614c2b565b5b61491b82614c7c565b9050602081019050919050565b6000819050602082019050919050565b6000819050602082019050919050565b60008190508160005260206000209050919050565b600081519050919050565b600081519050919050565b600081519050919050565b600081519050919050565b6000602082019050919050565b6000602082019050919050565b600082825260208201905092915050565b600082825260208201905092915050565b600082825260208201905092915050565b600082825260208201905092915050565b600082825260208201905092915050565b600081905092915050565b6000614a0e82614ad5565b9150614a1983614ad5565b9250827fffffffffffffffffffffffffffffffffffffffffffffffffffffffffffffffff03821115614a4e57614a4d614bcd565b5b828201905092915050565b6000614a6482614ab5565b9050919050565b6000614a7682614ab5565b9050919050565b60008115159050919050565b60007fffffffff0000000000000000000000000000000000000000000000000000000082169050919050565b600073ffffffffffffffffffffffffffffffffffffffff82169050919050565b6000819050919050565b82818337600083830152505050565b60005b83811015614b0c578082015181840152602081019050614af1565b83811115614b1b576000848401525b50505050565b60006002820490506001821680614b3957607f821691505b60208210811415614b4d57614b4c614bfc565b5b50919050565b614b5c82614c7c565b810181811067ffffffffffffffff82111715614b7b57614b7a614c2b565b5b80604052505050565b6000614b8f82614ad5565b91507fffffffffffffffffffffffffffffffffffffffffffffffffffffffffffffffff821415614bc257614bc1614bcd565b5b600182019050919050565b7f4e487b7100000000000000000000000000000000000000000000000000000000600052601160045260246000fd5b7f4e487b7100000000000000000000000000000000000000000000000000000000600052602260045260246000fd5b7f4e487b7100000000000000000000000000000000000000000000000000000000600052604160045260246000fd5b600060033d1115614c795760046000803e614c76600051614c8d565b90505b90565b6000601f19601f8301169050919050565b60008160e01c9050919050565b7f455243313135353a207472616e7366657220746f206e6f6e204552433131353560008201527f526563656976657220696d706c656d656e746572000000000000000000000000602082015250565b7f455243313135353a204552433131353552656365697665722072656a6563746560008201527f6420746f6b656e73000000000000000000000000000000000000000000000000602082015250565b7f4e616d6520726571756972656400000000000000000000000000000000000000600082015250565b7f455243313135353a2062616c616e636520717565727920666f7220746865207a60008201527f65726f2061646472657373000000000000000000000000000000000000000000602082015250565b7f4f776e61626c653a206e6577206f776e657220697320746865207a65726f206160008201527f6464726573730000000000000000000000000000000000000000000000000000602082015250565b7f4f6e6c79206e6f74207768656e206e6f74207061757365640000000000000000600082015250565b7f416c6c20746f6b656e73206d696e746564000000000000000000000000000000600082015250565b7f546f6b656e20616c726561647920657869737473000000000000000000000000600082015250565b7f455243313135353a2063616c6c6572206973206e6f74206f776e6572206e6f7260008201527f20617070726f7665640000000000000000000000000000000000000000000000602082015250565b7f455243313135353a207472616e7366657220746f20746865207a65726f20616460008201527f6472657373000000000000000000000000000000000000000000000000000000602082015250565b7f455243313135353a207472616e736665722063616c6c6572206973206e6f742060008201527f6f776e6572206e6f7220617070726f7665640000000000000000000000000000602082015250565b7f4e65772076616c75652072657175697265640000000000000000000000000000600082015250565b7f455243313135353a20696e73756666696369656e742062616c616e636520666f60008201527f72207472616e7366657200000000000000000000000000000000000000000000602082015250565b7f4f776e61626c653a2063616c6c6572206973206e6f7420746865206f776e6572600082015250565b7f4e616d6520616c72656164792065786973747300000000000000000000000000600082015250565b7f546f6b656e20494420696e636f72726563740000000000000000000000000000600082015250565b7f4d65746164617461204861736820726571756972656400000000000000000000600082015250565b7f455243313135353a2073657474696e6720617070726f76616c2073746174757360008201527f20666f722073656c660000000000000000000000000000000000000000000000602082015250565b7f455243313135353a206163636f756e747320616e6420696473206c656e67746860008201527f206d69736d617463680000000000000000000000000000000000000000000000602082015250565b7f455243313135353a2069647320616e6420616d6f756e7473206c656e6774682060008201527f6d69736d61746368000000000000000000000000000000000000000000000000602082015250565b7f455243313135353a206d696e7420746f20746865207a65726f2061646472657360008201527f7300000000000000000000000000000000000000000000000000000000000000602082015250565b7f4861736820616c72656164792065786973747300000000000000000000000000600082015250565b600060443d10156151f85761527b565b615200614864565b60043d036004823e80513d602482011167ffffffffffffffff8211171561522857505061527b565b808201805167ffffffffffffffff811115615246575050505061527b565b80602083010160043d03850181111561526357505050505061527b565b61527282602001850186614b53565b82955050505050505b90565b61528781614a59565b811461529257600080fd5b50565b61529e81614a7d565b81146152a957600080fd5b50565b6152b581614a89565b81146152c057600080fd5b50565b6152cc81614ad5565b81146152d757600080fd5b5056fea26469706673582212203b7fc02abb953688c9760faae6dea20bd72575d358d79501304a491f15c6b5fe64736f6c63430008040033",
  "linkReferences": {},
  "deployedLinkReferences": {}
}