{
  "_format": "hh-sol-artifact-1",
  "contractName": "AgioGovernance",
  "sourceName": "contracts/AgioGovernance.sol",
  "abi": [
    {
      "inputs": [
        {
          "internalType": "string",
          "name": "_name",
          "type": "string"
        },
        {
          "internalType": "string",
          "name": "_symbol",
          "type": "string"
        },
        {
          "internalType": "uint256",
          "name": "_initialSupply",
          "type": "uint256"
        },
        {
          "internalType": "address",
          "name": "_reciever",
          "type": "address"
        }
      ],
      "stateMutability": "nonpayable",
      "type": "constructor"
    },
    {
      "anonymous": false,
      "inputs": [
        {
          "indexed": true,
          "internalType": "address",
          "name": "owner",
          "type": "address"
        },
        {
          "indexed": true,
          "internalType": "address",
          "name": "spender",
          "type": "address"
        },
        {
          "indexed": false,
          "internalType": "uint256",
          "name": "value",
          "type": "uint256"
        }
      ],
      "name": "Approval",
      "type": "event"
    },
    {
      "anonymous": false,
      "inputs": [
        {
          "indexed": true,
          "internalType": "address",
          "name": "delegator",
          "type": "address"
        },
        {
          "indexed": true,
          "internalType": "address",
          "name": "fromDelegate",
          "type": "address"
        },
        {
          "indexed": true,
          "internalType": "address",
          "name": "toDelegate",
          "type": "address"
        }
      ],
      "name": "DelegateChanged",
      "type": "event"
    },
    {
      "anonymous": false,
      "inputs": [
        {
          "indexed": true,
          "internalType": "address",
          "name": "delegate",
          "type": "address"
        },
        {
          "indexed": false,
          "internalType": "uint256",
          "name": "previousBalance",
          "type": "uint256"
        },
        {
          "indexed": false,
          "internalType": "uint256",
          "name": "newBalance",
          "type": "uint256"
        }
      ],
      "name": "DelegateVotesChanged",
      "type": "event"
    },
    {
      "anonymous": false,
      "inputs": [
        {
          "indexed": true,
          "internalType": "address",
          "name": "previousOwner",
          "type": "address"
        },
        {
          "indexed": true,
          "internalType": "address",
          "name": "newOwner",
          "type": "address"
        }
      ],
      "name": "OwnershipTransferred",
      "type": "event"
    },
    {
      "anonymous": false,
      "inputs": [
        {
          "indexed": false,
          "internalType": "address",
          "name": "account",
          "type": "address"
        }
      ],
      "name": "Paused",
      "type": "event"
    },
    {
      "anonymous": false,
      "inputs": [
        {
          "indexed": true,
          "internalType": "address",
          "name": "from",
          "type": "address"
        },
        {
          "indexed": true,
          "internalType": "address",
          "name": "to",
          "type": "address"
        },
        {
          "indexed": false,
          "internalType": "uint256",
          "name": "value",
          "type": "uint256"
        }
      ],
      "name": "Transfer",
      "type": "event"
    },
    {
      "anonymous": false,
      "inputs": [
        {
          "indexed": false,
          "internalType": "address",
          "name": "account",
          "type": "address"
        }
      ],
      "name": "Unpaused",
      "type": "event"
    },
    {
      "inputs": [],
      "name": "DOMAIN_SEPARATOR",
      "outputs": [
        {
          "internalType": "bytes32",
          "name": "",
          "type": "bytes32"
        }
      ],
      "stateMutability": "view",
      "type": "function"
    },
    {
      "inputs": [
        {
          "internalType": "address",
          "name": "owner",
          "type": "address"
        },
        {
          "internalType": "address",
          "name": "spender",
          "type": "address"
        }
      ],
      "name": "allowance",
      "outputs": [
        {
          "internalType": "uint256",
          "name": "",
          "type": "uint256"
        }
      ],
      "stateMutability": "view",
      "type": "function"
    },
    {
      "inputs": [
        {
          "internalType": "address",
          "name": "spender",
          "type": "address"
        },
        {
          "internalType": "uint256",
          "name": "amount",
          "type": "uint256"
        }
      ],
      "name": "approve",
      "outputs": [
        {
          "internalType": "bool",
          "name": "",
          "type": "bool"
        }
      ],
      "stateMutability": "nonpayable",
      "type": "function"
    },
    {
      "inputs": [
        {
          "internalType": "address",
          "name": "account",
          "type": "address"
        }
      ],
      "name": "balanceOf",
      "outputs": [
        {
          "internalType": "uint256",
          "name": "",
          "type": "uint256"
        }
      ],
      "stateMutability": "view",
      "type": "function"
    },
    {
      "inputs": [
        {
          "internalType": "address",
          "name": "account",
          "type": "address"
        },
        {
          "internalType": "uint32",
          "name": "pos",
          "type": "uint32"
        }
      ],
      "name": "checkpoints",
      "outputs": [
        {
          "components": [
            {
              "internalType": "uint32",
              "name": "fromBlock",
              "type": "uint32"
            },
            {
              "internalType": "uint224",
              "name": "votes",
              "type": "uint224"
            }
          ],
          "internalType": "struct ERC20Votes.Checkpoint",
          "name": "",
          "type": "tuple"
        }
      ],
      "stateMutability": "view",
      "type": "function"
    },
    {
      "inputs": [],
      "name": "decimals",
      "outputs": [
        {
          "internalType": "uint8",
          "name": "",
          "type": "uint8"
        }
      ],
      "stateMutability": "view",
      "type": "function"
    },
    {
      "inputs": [
        {
          "internalType": "address",
          "name": "spender",
          "type": "address"
        },
        {
          "internalType": "uint256",
          "name": "subtractedValue",
          "type": "uint256"
        }
      ],
      "name": "decreaseAllowance",
      "outputs": [
        {
          "internalType": "bool",
          "name": "",
          "type": "bool"
        }
      ],
      "stateMutability": "nonpayable",
      "type": "function"
    },
    {
      "inputs": [
        {
          "internalType": "address",
          "name": "delegatee",
          "type": "address"
        }
      ],
      "name": "delegate",
      "outputs": [],
      "stateMutability": "nonpayable",
      "type": "function"
    },
    {
      "inputs": [
        {
          "internalType": "address",
          "name": "delegatee",
          "type": "address"
        },
        {
          "internalType": "uint256",
          "name": "nonce",
          "type": "uint256"
        },
        {
          "internalType": "uint256",
          "name": "expiry",
          "type": "uint256"
        },
        {
          "internalType": "uint8",
          "name": "v",
          "type": "uint8"
        },
        {
          "internalType": "bytes32",
          "name": "r",
          "type": "bytes32"
        },
        {
          "internalType": "bytes32",
          "name": "s",
          "type": "bytes32"
        }
      ],
      "name": "delegateBySig",
      "outputs": [],
      "stateMutability": "nonpayable",
      "type": "function"
    },
    {
      "inputs": [
        {
          "internalType": "address",
          "name": "account",
          "type": "address"
        }
      ],
      "name": "delegates",
      "outputs": [
        {
          "internalType": "address",
          "name": "",
          "type": "address"
        }
      ],
      "stateMutability": "view",
      "type": "function"
    },
    {
      "inputs": [
        {
          "internalType": "uint256",
          "name": "blockNumber",
          "type": "uint256"
        }
      ],
      "name": "getPastTotalSupply",
      "outputs": [
        {
          "internalType": "uint256",
          "name": "",
          "type": "uint256"
        }
      ],
      "stateMutability": "view",
      "type": "function"
    },
    {
      "inputs": [
        {
          "internalType": "address",
          "name": "account",
          "type": "address"
        },
        {
          "internalType": "uint256",
          "name": "blockNumber",
          "type": "uint256"
        }
      ],
      "name": "getPastVotes",
      "outputs": [
        {
          "internalType": "uint256",
          "name": "",
          "type": "uint256"
        }
      ],
      "stateMutability": "view",
      "type": "function"
    },
    {
      "inputs": [
        {
          "internalType": "address",
          "name": "account",
          "type": "address"
        }
      ],
      "name": "getVotes",
      "outputs": [
        {
          "internalType": "uint256",
          "name": "",
          "type": "uint256"
        }
      ],
      "stateMutability": "view",
      "type": "function"
    },
    {
      "inputs": [
        {
          "internalType": "address",
          "name": "spender",
          "type": "address"
        },
        {
          "internalType": "uint256",
          "name": "addedValue",
          "type": "uint256"
        }
      ],
      "name": "increaseAllowance",
      "outputs": [
        {
          "internalType": "bool",
          "name": "",
          "type": "bool"
        }
      ],
      "stateMutability": "nonpayable",
      "type": "function"
    },
    {
      "inputs": [],
      "name": "mint",
      "outputs": [],
      "stateMutability": "payable",
      "type": "function"
    },
    {
      "inputs": [
        {
          "internalType": "address",
          "name": "account",
          "type": "address"
        }
      ],
      "name": "mintTo",
      "outputs": [],
      "stateMutability": "payable",
      "type": "function"
    },
    {
      "inputs": [],
      "name": "name",
      "outputs": [
        {
          "internalType": "string",
          "name": "",
          "type": "string"
        }
      ],
      "stateMutability": "view",
      "type": "function"
    },
    {
      "inputs": [
        {
          "internalType": "address",
          "name": "owner",
          "type": "address"
        }
      ],
      "name": "nonces",
      "outputs": [
        {
          "internalType": "uint256",
          "name": "",
          "type": "uint256"
        }
      ],
      "stateMutability": "view",
      "type": "function"
    },
    {
      "inputs": [
        {
          "internalType": "address",
          "name": "account",
          "type": "address"
        }
      ],
      "name": "numCheckpoints",
      "outputs": [
        {
          "internalType": "uint32",
          "name": "",
          "type": "uint32"
        }
      ],
      "stateMutability": "view",
      "type": "function"
    },
    {
      "inputs": [],
      "name": "owner",
      "outputs": [
        {
          "internalType": "address",
          "name": "",
          "type": "address"
        }
      ],
      "stateMutability": "view",
      "type": "function"
    },
    {
      "inputs": [],
      "name": "pause",
      "outputs": [],
      "stateMutability": "nonpayable",
      "type": "function"
    },
    {
      "inputs": [],
      "name": "paused",
      "outputs": [
        {
          "internalType": "bool",
          "name": "",
          "type": "bool"
        }
      ],
      "stateMutability": "view",
      "type": "function"
    },
    {
      "inputs": [
        {
          "internalType": "address",
          "name": "owner",
          "type": "address"
        },
        {
          "internalType": "address",
          "name": "spender",
          "type": "address"
        },
        {
          "internalType": "uint256",
          "name": "value",
          "type": "uint256"
        },
        {
          "internalType": "uint256",
          "name": "deadline",
          "type": "uint256"
        },
        {
          "internalType": "uint8",
          "name": "v",
          "type": "uint8"
        },
        {
          "internalType": "bytes32",
          "name": "r",
          "type": "bytes32"
        },
        {
          "internalType": "bytes32",
          "name": "s",
          "type": "bytes32"
        }
      ],
      "name": "permit",
      "outputs": [],
      "stateMutability": "nonpayable",
      "type": "function"
    },
    {
      "inputs": [],
      "name": "renounceOwnership",
      "outputs": [],
      "stateMutability": "nonpayable",
      "type": "function"
    },
    {
      "inputs": [],
      "name": "symbol",
      "outputs": [
        {
          "internalType": "string",
          "name": "",
          "type": "string"
        }
      ],
      "stateMutability": "view",
      "type": "function"
    },
    {
      "inputs": [],
      "name": "tokenPrice",
      "outputs": [
        {
          "internalType": "uint256",
          "name": "",
          "type": "uint256"
        }
      ],
      "stateMutability": "view",
      "type": "function"
    },
    {
      "inputs": [],
      "name": "totalSupply",
      "outputs": [
        {
          "internalType": "uint256",
          "name": "",
          "type": "uint256"
        }
      ],
      "stateMutability": "view",
      "type": "function"
    },
    {
      "inputs": [
        {
          "internalType": "address",
          "name": "to",
          "type": "address"
        },
        {
          "internalType": "uint256",
          "name": "amount",
          "type": "uint256"
        }
      ],
      "name": "transfer",
      "outputs": [
        {
          "internalType": "bool",
          "name": "",
          "type": "bool"
        }
      ],
      "stateMutability": "nonpayable",
      "type": "function"
    },
    {
      "inputs": [
        {
          "internalType": "address",
          "name": "from",
          "type": "address"
        },
        {
          "internalType": "address",
          "name": "to",
          "type": "address"
        },
        {
          "internalType": "uint256",
          "name": "amount",
          "type": "uint256"
        }
      ],
      "name": "transferFrom",
      "outputs": [
        {
          "internalType": "bool",
          "name": "",
          "type": "bool"
        }
      ],
      "stateMutability": "nonpayable",
      "type": "function"
    },
    {
      "inputs": [
        {
          "internalType": "address",
          "name": "newOwner",
          "type": "address"
        }
      ],
      "name": "transferOwnership",
      "outputs": [],
      "stateMutability": "nonpayable",
      "type": "function"
    },
    {
      "inputs": [],
      "name": "unpause",
      "outputs": [],
      "stateMutability": "nonpayable",
      "type": "function"
    }
  ],
  "bytecode": "0x6101606040527f6e71edae12b1b97f4d1f60370fef10105fa2faae0126114a169c64845d6126c961014090815250620000426200021c60201b620009551760201c565b600a620000509190620012a7565b6113886200005f9190620013e4565b600a556703782dace9d90000600b553480156200007b57600080fd5b5060405162006039380380620060398339818101604052810190620000a1919062000e9a565b83806040518060400160405280600181526020017f310000000000000000000000000000000000000000000000000000000000000081525086868160039080519060200190620000f392919062000d4a565b5080600490805190602001906200010c92919062000d4a565b5050506000600560006101000a81548160ff0219169083151502179055506200014a6200013e6200022560201b60201c565b6200022d60201b60201c565b60008280519060200120905060008280519060200120905060007f8b73c3c69bb8fe3d512ecc4cf759cc79239f7b179b0ffacaa9a75d522b39400f90508260e081815250508161010081815250504660a08181525050620001b3818484620002f360201b60201c565b608081815250503073ffffffffffffffffffffffffffffffffffffffff1660c08173ffffffffffffffffffffffffffffffffffffffff1660601b815250508061012081815250505050505050506200021281836200032f60201b60201c565b5050505062001795565b60006012905090565b600033905090565b6000600560019054906101000a900473ffffffffffffffffffffffffffffffffffffffff16905081600560016101000a81548173ffffffffffffffffffffffffffffffffffffffff021916908373ffffffffffffffffffffffffffffffffffffffff1602179055508173ffffffffffffffffffffffffffffffffffffffff168173ffffffffffffffffffffffffffffffffffffffff167f8be0079c531659141344cd1fd0a4f28419497f9722a3daafe3b4186f6b6457e060405160405180910390a35050565b60008383834630604051602001620003109594939291906200102e565b6040516020818303038152906040528051906020012090509392505050565b6200034682826200034a60201b620016e41760201c565b5050565b6200036182826200040860201b620017711760201c565b620003716200058160201b60201c565b7bffffffffffffffffffffffffffffffffffffffffffffffffffffffff166200039f620005a560201b60201c565b1115620003e3576040517f08c379a0000000000000000000000000000000000000000000000000000000008152600401620003da90620010ad565b60405180910390fd5b620004026009620005af60201b620018d11783620005c760201b60201c565b50505050565b600073ffffffffffffffffffffffffffffffffffffffff168273ffffffffffffffffffffffffffffffffffffffff1614156200047b576040517f08c379a0000000000000000000000000000000000000000000000000000000008152600401620004729062001113565b60405180910390fd5b6200048f60008383620008e460201b60201c565b8060026000828254620004a39190620011ef565b92505081905550806000808473ffffffffffffffffffffffffffffffffffffffff1673ffffffffffffffffffffffffffffffffffffffff1681526020019081526020016000206000828254620004fa9190620011ef565b925050819055508173ffffffffffffffffffffffffffffffffffffffff16600073ffffffffffffffffffffffffffffffffffffffff167fddf252ad1be2c89b69c2b068fc378daa952ba7f163c4a11628f55a4df523b3ef8360405162000561919062001135565b60405180910390a36200057d600083836200095460201b60201c565b5050565b60007bffffffffffffffffffffffffffffffffffffffffffffffffffffffff905090565b6000600254905090565b60008183620005bf9190620011ef565b905092915050565b60008060008580549050905060008114620006605785600182620005ec919062001445565b8154811062000624577f4e487b7100000000000000000000000000000000000000000000000000000000600052603260045260246000fd5b9060005260206000200160000160049054906101000a90047bffffffffffffffffffffffffffffffffffffffffffffffffffffffff1662000663565b60005b7bffffffffffffffffffffffffffffffffffffffffffffffffffffffff1692506200068f83858760201c565b91506000811180156200070c57504386600183620006ae919062001445565b81548110620006e6577f4e487b7100000000000000000000000000000000000000000000000000000000600052603260045260246000fd5b9060005260206000200160000160009054906101000a900463ffffffff1663ffffffff16145b15620007d15762000728826200097160201b620018e71760201c565b8660018362000738919062001445565b8154811062000770577f4e487b7100000000000000000000000000000000000000000000000000000000600052603260045260246000fd5b9060005260206000200160000160046101000a8154817bffffffffffffffffffffffffffffffffffffffffffffffffffffffff02191690837bffffffffffffffffffffffffffffffffffffffffffffffffffffffff160217905550620008db565b856040518060400160405280620007f343620009df60201b620019521760201c565b63ffffffff16815260200162000814856200097160201b620018e71760201c565b7bffffffffffffffffffffffffffffffffffffffffffffffffffffffff168152509080600181540180825580915050600190039060005260206000200160009091909190915060008201518160000160006101000a81548163ffffffff021916908363ffffffff16021790555060208201518160000160046101000a8154817bffffffffffffffffffffffffffffffffffffffffffffffffffffffff02191690837bffffffffffffffffffffffffffffffffffffffffffffffffffffffff16021790555050505b50935093915050565b620008f462000a3560201b60201c565b1562000937576040517f08c379a00000000000000000000000000000000000000000000000000000000081526004016200092e906200108b565b60405180910390fd5b6200094f83838362000a4c60201b620019a51760201c565b505050565b6200096c83838362000a5160201b620019aa1760201c565b505050565b60007bffffffffffffffffffffffffffffffffffffffffffffffffffffffff8016821115620009d7576040517f08c379a0000000000000000000000000000000000000000000000000000000008152600401620009ce90620010cf565b60405180910390fd5b819050919050565b600063ffffffff801682111562000a2d576040517f08c379a000000000000000000000000000000000000000000000000000000000815260040162000a2490620010f1565b60405180910390fd5b819050919050565b6000600560009054906101000a900460ff16905090565b505050565b62000a6983838362000aa160201b620019d51760201c565b62000a9c62000a7e8462000aa660201b60201c565b62000a8f8462000aa660201b60201c565b8362000b0f60201b60201c565b505050565b505050565b6000600760008373ffffffffffffffffffffffffffffffffffffffff1673ffffffffffffffffffffffffffffffffffffffff16815260200190815260200160002060009054906101000a900473ffffffffffffffffffffffffffffffffffffffff169050919050565b8173ffffffffffffffffffffffffffffffffffffffff168373ffffffffffffffffffffffffffffffffffffffff161415801562000b4c5750600081115b1562000d2d57600073ffffffffffffffffffffffffffffffffffffffff168373ffffffffffffffffffffffffffffffffffffffff161462000c3f5760008062000be6600860008773ffffffffffffffffffffffffffffffffffffffff1673ffffffffffffffffffffffffffffffffffffffff16815260200190815260200160002062000d3260201b620019da1785620005c760201b60201c565b915091508473ffffffffffffffffffffffffffffffffffffffff167fdec2bacdd2f05b59de34da9b523dff8be42e5e38e818c82fdb0bae774387a724838360405162000c3492919062001152565b60405180910390a250505b600073ffffffffffffffffffffffffffffffffffffffff168273ffffffffffffffffffffffffffffffffffffffff161462000d2c5760008062000cd3600860008673ffffffffffffffffffffffffffffffffffffffff1673ffffffffffffffffffffffffffffffffffffffff168152602001908152602001600020620005af60201b620018d11785620005c760201b60201c565b915091508373ffffffffffffffffffffffffffffffffffffffff167fdec2bacdd2f05b59de34da9b523dff8be42e5e38e818c82fdb0bae774387a724838360405162000d2192919062001152565b60405180910390a250505b5b505050565b6000818362000d42919062001445565b905092915050565b82805462000d58906200150b565b90600052602060002090601f01602090048101928262000d7c576000855562000dc8565b82601f1062000d9757805160ff191683800117855562000dc8565b8280016001018555821562000dc8579182015b8281111562000dc757825182559160200191906001019062000daa565b5b50905062000dd7919062000ddb565b5090565b5b8082111562000df657600081600090555060010162000ddc565b5090565b600062000e1162000e0b84620011a8565b6200117f565b90508281526020810184848401111562000e2a57600080fd5b62000e37848285620014d5565b509392505050565b60008151905062000e508162001761565b92915050565b600082601f83011262000e6857600080fd5b815162000e7a84826020860162000dfa565b91505092915050565b60008151905062000e94816200177b565b92915050565b6000806000806080858703121562000eb157600080fd5b600085015167ffffffffffffffff81111562000ecc57600080fd5b62000eda8782880162000e56565b945050602085015167ffffffffffffffff81111562000ef857600080fd5b62000f068782880162000e56565b935050604062000f198782880162000e83565b925050606062000f2c8782880162000e3f565b91505092959194509250565b62000f438162001480565b82525050565b62000f548162001494565b82525050565b600062000f69601083620011de565b915062000f768262001622565b602082019050919050565b600062000f90603083620011de565b915062000f9d826200164b565b604082019050919050565b600062000fb7602783620011de565b915062000fc4826200169a565b604082019050919050565b600062000fde602683620011de565b915062000feb82620016e9565b604082019050919050565b600062001005601f83620011de565b9150620010128262001738565b602082019050919050565b6200102881620014be565b82525050565b600060a08201905062001045600083018862000f49565b62001054602083018762000f49565b62001063604083018662000f49565b6200107260608301856200101d565b62001081608083018462000f38565b9695505050505050565b60006020820190508181036000830152620010a68162000f5a565b9050919050565b60006020820190508181036000830152620010c88162000f81565b9050919050565b60006020820190508181036000830152620010ea8162000fa8565b9050919050565b600060208201905081810360008301526200110c8162000fcf565b9050919050565b600060208201905081810360008301526200112e8162000ff6565b9050919050565b60006020820190506200114c60008301846200101d565b92915050565b60006040820190506200116960008301856200101d565b6200117860208301846200101d565b9392505050565b60006200118b6200119e565b905062001199828262001541565b919050565b6000604051905090565b600067ffffffffffffffff821115620011c657620011c5620015d5565b5b620011d18262001604565b9050602081019050919050565b600082825260208201905092915050565b6000620011fc82620014be565b91506200120983620014be565b9250827fffffffffffffffffffffffffffffffffffffffffffffffffffffffffffffffff0382111562001241576200124062001577565b5b828201905092915050565b6000808291508390505b60018511156200129e5780860481111562001276576200127562001577565b5b6001851615620012865780820291505b8081029050620012968562001615565b945062001256565b94509492505050565b6000620012b482620014be565b9150620012c183620014c8565b9250620012f07fffffffffffffffffffffffffffffffffffffffffffffffffffffffffffffffff8484620012f8565b905092915050565b6000826200130a5760019050620013dd565b816200131a5760009050620013dd565b81600181146200133357600281146200133e5762001374565b6001915050620013dd565b60ff84111562001353576200135262001577565b5b8360020a9150848211156200136d576200136c62001577565b5b50620013dd565b5060208310610133831016604e8410600b8410161715620013ae5782820a905083811115620013a857620013a762001577565b5b620013dd565b620013bd84848460016200124c565b92509050818404811115620013d757620013d662001577565b5b81810290505b9392505050565b6000620013f182620014be565b9150620013fe83620014be565b9250817fffffffffffffffffffffffffffffffffffffffffffffffffffffffffffffffff04831182151516156200143a576200143962001577565b5b828202905092915050565b60006200145282620014be565b91506200145f83620014be565b92508282101562001475576200147462001577565b5b828203905092915050565b60006200148d826200149e565b9050919050565b6000819050919050565b600073ffffffffffffffffffffffffffffffffffffffff82169050919050565b6000819050919050565b600060ff82169050919050565b60005b83811015620014f5578082015181840152602081019050620014d8565b8381111562001505576000848401525b50505050565b600060028204905060018216806200152457607f821691505b602082108114156200153b576200153a620015a6565b5b50919050565b6200154c8262001604565b810181811067ffffffffffffffff821117156200156e576200156d620015d5565b5b80604052505050565b7f4e487b7100000000000000000000000000000000000000000000000000000000600052601160045260246000fd5b7f4e487b7100000000000000000000000000000000000000000000000000000000600052602260045260246000fd5b7f4e487b7100000000000000000000000000000000000000000000000000000000600052604160045260246000fd5b6000601f19601f8301169050919050565b60008160011c9050919050565b7f5061757361626c653a2070617573656400000000000000000000000000000000600082015250565b7f4552433230566f7465733a20746f74616c20737570706c79207269736b73206f60008201527f766572666c6f77696e6720766f74657300000000000000000000000000000000602082015250565b7f53616665436173743a2076616c756520646f65736e27742066697420696e203260008201527f3234206269747300000000000000000000000000000000000000000000000000602082015250565b7f53616665436173743a2076616c756520646f65736e27742066697420696e203360008201527f3220626974730000000000000000000000000000000000000000000000000000602082015250565b7f45524332303a206d696e7420746f20746865207a65726f206164647265737300600082015250565b6200176c8162001480565b81146200177857600080fd5b50565b6200178681620014be565b81146200179257600080fd5b50565b60805160a05160c05160601c60e051610100516101205161014051614846620017f3600039600061133401526000611f8c01526000611fce01526000611fad01526000611ee201526000611f3801526000611f6101526148466000f3fe6080604052600436106101d85760003560e01c8063715018a6116101025780639ab24eb011610095578063d505accf11610064578063d505accf146106ce578063dd62ed3e146106f7578063f1127ed814610734578063f2fde38b14610771576101d8565b80639ab24eb0146105ee578063a457c2d71461062b578063a9059cbb14610668578063c3cda520146106a5576101d8565b80638456cb59116100d15780638456cb59146105445780638da5cb5b1461055b5780638e539e8c1461058657806395d89b41146105c3576101d8565b8063715018a6146104a9578063755edd17146104c05780637ecebe00146104dc5780637ff9b59614610519576101d8565b8063395093511161017a5780635c19a95c116101495780635c19a95c146103db5780635c975abb146104045780636fcfff451461042f57806370a082311461046c576101d8565b8063395093511461030d5780633a46b1a81461034a5780633f4ba83a14610387578063587cde1e1461039e576101d8565b806318160ddd116101b657806318160ddd1461024f57806323b872dd1461027a578063313ce567146102b75780633644e515146102e2576101d8565b806306fdde03146101dd578063095ea7b3146102085780631249c58b14610245575b600080fd5b3480156101e957600080fd5b506101f261079a565b6040516101ff919061392d565b60405180910390f35b34801561021457600080fd5b5061022f600480360381019061022a9190613195565b61082c565b60405161023c91906137b9565b60405180910390f35b61024d61084f565b005b34801561025b57600080fd5b5061026461091c565b6040516102719190613caa565b60405180910390f35b34801561028657600080fd5b506102a1600480360381019061029c91906130a8565b610926565b6040516102ae91906137b9565b60405180910390f35b3480156102c357600080fd5b506102cc610955565b6040516102d99190613d09565b60405180910390f35b3480156102ee57600080fd5b506102f761095e565b60405161030491906137d4565b60405180910390f35b34801561031957600080fd5b50610334600480360381019061032f9190613195565b61096d565b60405161034191906137b9565b60405180910390f35b34801561035657600080fd5b50610371600480360381019061036c9190613195565b610a17565b60405161037e9190613caa565b60405180910390f35b34801561039357600080fd5b5061039c610aab565b005b3480156103aa57600080fd5b506103c560048036038101906103c09190613043565b610b31565b6040516103d2919061379e565b60405180910390f35b3480156103e757600080fd5b5061040260048036038101906103fd9190613043565b610b9a565b005b34801561041057600080fd5b50610419610bae565b60405161042691906137b9565b60405180910390f35b34801561043b57600080fd5b5061045660048036038101906104519190613043565b610bc5565b6040516104639190613cee565b60405180910390f35b34801561047857600080fd5b50610493600480360381019061048e9190613043565b610c19565b6040516104a09190613caa565b60405180910390f35b3480156104b557600080fd5b506104be610c61565b005b6104da60048036038101906104d59190613043565b610ce9565b005b3480156104e857600080fd5b5061050360048036038101906104fe9190613043565b610db7565b6040516105109190613caa565b60405180910390f35b34801561052557600080fd5b5061052e610e07565b60405161053b9190613caa565b60405180910390f35b34801561055057600080fd5b50610559610e0d565b005b34801561056757600080fd5b50610570610e93565b60405161057d919061379e565b60405180910390f35b34801561059257600080fd5b506105ad60048036038101906105a89190613296565b610ebd565b6040516105ba9190613caa565b60405180910390f35b3480156105cf57600080fd5b506105d8610f13565b6040516105e5919061392d565b60405180910390f35b3480156105fa57600080fd5b5061061560048036038101906106109190613043565b610fa5565b6040516106229190613caa565b60405180910390f35b34801561063757600080fd5b50610652600480360381019061064d9190613195565b6110dc565b60405161065f91906137b9565b60405180910390f35b34801561067457600080fd5b5061068f600480360381019061068a9190613195565b6111c6565b60405161069c91906137b9565b60405180910390f35b3480156106b157600080fd5b506106cc60048036038101906106c791906131d1565b6111e9565b005b3480156106da57600080fd5b506106f560048036038101906106f091906130f7565b6112ed565b005b34801561070357600080fd5b5061071e6004803603810190610719919061306c565b61142f565b60405161072b9190613caa565b60405180910390f35b34801561074057600080fd5b5061075b6004803603810190610756919061325a565b6114b6565b6040516107689190613c8f565b60405180910390f35b34801561077d57600080fd5b5061079860048036038101906107939190613043565b6115ec565b005b6060600380546107a99061409b565b80601f01602080910402602001604051908101604052809291908181526020018280546107d59061409b565b80156108225780601f106107f757610100808354040283529160200191610822565b820191906000526020600020905b81548152906001019060200180831161080557829003601f168201915b5050505050905090565b6000806108376119f0565b90506108448185856119f8565b600191505092915050565b600b54341015610894576040517f08c379a000000000000000000000000000000000000000000000000000000000815260040161088b90613c2f565b60405180910390fd5b6000600b54346108a49190613da1565b905060006108b0610955565b600a6108bc9190613e25565b826108c79190613f43565b9050600a5481111561090e576040517f08c379a0000000000000000000000000000000000000000000000000000000008152600401610905906139cf565b60405180910390fd5b6109183382611bc3565b5050565b6000600254905090565b6000806109316119f0565b905061093e858285611bd1565b610949858585611c5d565b60019150509392505050565b60006012905090565b6000610968611ede565b905090565b6000806109786119f0565b9050610a0c818585600160008673ffffffffffffffffffffffffffffffffffffffff1673ffffffffffffffffffffffffffffffffffffffff16815260200190815260200160002060008973ffffffffffffffffffffffffffffffffffffffff1673ffffffffffffffffffffffffffffffffffffffff16815260200190815260200160002054610a079190613d4b565b6119f8565b600191505092915050565b6000438210610a5b576040517f08c379a0000000000000000000000000000000000000000000000000000000008152600401610a529061398f565b60405180910390fd5b610aa3600860008573ffffffffffffffffffffffffffffffffffffffff1673ffffffffffffffffffffffffffffffffffffffff16815260200190815260200160002083611ff8565b905092915050565b610ab36119f0565b73ffffffffffffffffffffffffffffffffffffffff16610ad1610e93565b73ffffffffffffffffffffffffffffffffffffffff1614610b27576040517f08c379a0000000000000000000000000000000000000000000000000000000008152600401610b1e90613b8f565b60405180910390fd5b610b2f612150565b565b6000600760008373ffffffffffffffffffffffffffffffffffffffff1673ffffffffffffffffffffffffffffffffffffffff16815260200190815260200160002060009054906101000a900473ffffffffffffffffffffffffffffffffffffffff169050919050565b610bab610ba56119f0565b826121f2565b50565b6000600560009054906101000a900460ff16905090565b6000610c12600860008473ffffffffffffffffffffffffffffffffffffffff1673ffffffffffffffffffffffffffffffffffffffff16815260200190815260200160002080549050611952565b9050919050565b60008060008373ffffffffffffffffffffffffffffffffffffffff1673ffffffffffffffffffffffffffffffffffffffff168152602001908152602001600020549050919050565b610c696119f0565b73ffffffffffffffffffffffffffffffffffffffff16610c87610e93565b73ffffffffffffffffffffffffffffffffffffffff1614610cdd576040517f08c379a0000000000000000000000000000000000000000000000000000000008152600401610cd490613b8f565b60405180910390fd5b610ce7600061230c565b565b600b54341015610d2e576040517f08c379a0000000000000000000000000000000000000000000000000000000008152600401610d2590613c2f565b60405180910390fd5b6000600b5434610d3e9190613da1565b90506000610d4a610955565b600a610d569190613e25565b82610d619190613f43565b9050600a54811115610da8576040517f08c379a0000000000000000000000000000000000000000000000000000000008152600401610d9f906139cf565b60405180910390fd5b610db28382611bc3565b505050565b6000610e00600660008473ffffffffffffffffffffffffffffffffffffffff1673ffffffffffffffffffffffffffffffffffffffff1681526020019081526020016000206123d2565b9050919050565b600b5481565b610e156119f0565b73ffffffffffffffffffffffffffffffffffffffff16610e33610e93565b73ffffffffffffffffffffffffffffffffffffffff1614610e89576040517f08c379a0000000000000000000000000000000000000000000000000000000008152600401610e8090613b8f565b60405180910390fd5b610e916123e0565b565b6000600560019054906101000a900473ffffffffffffffffffffffffffffffffffffffff16905090565b6000438210610f01576040517f08c379a0000000000000000000000000000000000000000000000000000000008152600401610ef89061398f565b60405180910390fd5b610f0c600983611ff8565b9050919050565b606060048054610f229061409b565b80601f0160208091040260200160405190810160405280929190818152602001828054610f4e9061409b565b8015610f9b5780601f10610f7057610100808354040283529160200191610f9b565b820191906000526020600020905b815481529060010190602001808311610f7e57829003601f168201915b5050505050905090565b600080600860008473ffffffffffffffffffffffffffffffffffffffff1673ffffffffffffffffffffffffffffffffffffffff168152602001908152602001600020805490509050600081146110b357600860008473ffffffffffffffffffffffffffffffffffffffff1673ffffffffffffffffffffffffffffffffffffffff1681526020019081526020016000206001826110419190613f9d565b81548110611078577f4e487b7100000000000000000000000000000000000000000000000000000000600052603260045260246000fd5b9060005260206000200160000160049054906101000a90047bffffffffffffffffffffffffffffffffffffffffffffffffffffffff166110b6565b60005b7bffffffffffffffffffffffffffffffffffffffffffffffffffffffff16915050919050565b6000806110e76119f0565b90506000600160008373ffffffffffffffffffffffffffffffffffffffff1673ffffffffffffffffffffffffffffffffffffffff16815260200190815260200160002060008673ffffffffffffffffffffffffffffffffffffffff1673ffffffffffffffffffffffffffffffffffffffff168152602001908152602001600020549050838110156111ad576040517f08c379a00000000000000000000000000000000000000000000000000000000081526004016111a490613c4f565b60405180910390fd5b6111ba82868684036119f8565b60019250505092915050565b6000806111d16119f0565b90506111de818585611c5d565b600191505092915050565b8342111561122c576040517f08c379a0000000000000000000000000000000000000000000000000000000008152600401611223906139ef565b60405180910390fd5b600061128e6112867fe48329057bfd03d55e49b547132e39cffd9c1820ad7b9d4c5307691425d15adf89898960405160200161126b9493929190613850565b60405160208183030381529060405280519060200120612483565b85858561249d565b9050611299816124c8565b86146112da576040517f08c379a00000000000000000000000000000000000000000000000000000000081526004016112d190613a2f565b60405180910390fd5b6112e481886121f2565b50505050505050565b83421115611330576040517f08c379a000000000000000000000000000000000000000000000000000000000815260040161132790613aaf565b60405180910390fd5b60007f000000000000000000000000000000000000000000000000000000000000000088888861135f8c6124c8565b89604051602001611375969594939291906137ef565b604051602081830303815290604052805190602001209050600061139882612483565b905060006113a88287878761249d565b90508973ffffffffffffffffffffffffffffffffffffffff168173ffffffffffffffffffffffffffffffffffffffff1614611418576040517f08c379a000000000000000000000000000000000000000000000000000000000815260040161140f90613b4f565b60405180910390fd5b6114238a8a8a6119f8565b50505050505050505050565b6000600160008473ffffffffffffffffffffffffffffffffffffffff1673ffffffffffffffffffffffffffffffffffffffff16815260200190815260200160002060008373ffffffffffffffffffffffffffffffffffffffff1673ffffffffffffffffffffffffffffffffffffffff16815260200190815260200160002054905092915050565b6114be612f9c565b600860008473ffffffffffffffffffffffffffffffffffffffff1673ffffffffffffffffffffffffffffffffffffffff1681526020019081526020016000208263ffffffff168154811061153b577f4e487b7100000000000000000000000000000000000000000000000000000000600052603260045260246000fd5b906000526020600020016040518060400160405290816000820160009054906101000a900463ffffffff1663ffffffff1663ffffffff1681526020016000820160049054906101000a90047bffffffffffffffffffffffffffffffffffffffffffffffffffffffff167bffffffffffffffffffffffffffffffffffffffffffffffffffffffff167bffffffffffffffffffffffffffffffffffffffffffffffffffffffff1681525050905092915050565b6115f46119f0565b73ffffffffffffffffffffffffffffffffffffffff16611612610e93565b73ffffffffffffffffffffffffffffffffffffffff1614611668576040517f08c379a000000000000000000000000000000000000000000000000000000000815260040161165f90613b8f565b60405180910390fd5b600073ffffffffffffffffffffffffffffffffffffffff168173ffffffffffffffffffffffffffffffffffffffff1614156116d8576040517f08c379a00000000000000000000000000000000000000000000000000000000081526004016116cf90613a4f565b60405180910390fd5b6116e18161230c565b50565b6116ee8282611771565b6116f6612526565b7bffffffffffffffffffffffffffffffffffffffffffffffffffffffff1661171c61091c565b111561175d576040517f08c379a000000000000000000000000000000000000000000000000000000000815260040161175490613b6f565b60405180910390fd5b61176b60096118d18361254a565b50505050565b600073ffffffffffffffffffffffffffffffffffffffff168273ffffffffffffffffffffffffffffffffffffffff1614156117e1576040517f08c379a00000000000000000000000000000000000000000000000000000000081526004016117d890613c6f565b60405180910390fd5b6117ed60008383612834565b80600260008282546117ff9190613d4b565b92505081905550806000808473ffffffffffffffffffffffffffffffffffffffff1673ffffffffffffffffffffffffffffffffffffffff16815260200190815260200160002060008282546118549190613d4b565b925050819055508173ffffffffffffffffffffffffffffffffffffffff16600073ffffffffffffffffffffffffffffffffffffffff167fddf252ad1be2c89b69c2b068fc378daa952ba7f163c4a11628f55a4df523b3ef836040516118b99190613caa565b60405180910390a36118cd6000838361288c565b5050565b600081836118df9190613d4b565b905092915050565b60007bffffffffffffffffffffffffffffffffffffffffffffffffffffffff801682111561194a576040517f08c379a000000000000000000000000000000000000000000000000000000000815260040161194190613baf565b60405180910390fd5b819050919050565b600063ffffffff801682111561199d576040517f08c379a000000000000000000000000000000000000000000000000000000000815260040161199490613bef565b60405180910390fd5b819050919050565b505050565b6119b58383836119d5565b6119d06119c184610b31565b6119ca84610b31565b8361289c565b505050565b505050565b600081836119e89190613f9d565b905092915050565b600033905090565b600073ffffffffffffffffffffffffffffffffffffffff168373ffffffffffffffffffffffffffffffffffffffff161415611a68576040517f08c379a0000000000000000000000000000000000000000000000000000000008152600401611a5f90613c0f565b60405180910390fd5b600073ffffffffffffffffffffffffffffffffffffffff168273ffffffffffffffffffffffffffffffffffffffff161415611ad8576040517f08c379a0000000000000000000000000000000000000000000000000000000008152600401611acf90613a6f565b60405180910390fd5b80600160008573ffffffffffffffffffffffffffffffffffffffff1673ffffffffffffffffffffffffffffffffffffffff16815260200190815260200160002060008473ffffffffffffffffffffffffffffffffffffffff1673ffffffffffffffffffffffffffffffffffffffff168152602001908152602001600020819055508173ffffffffffffffffffffffffffffffffffffffff168373ffffffffffffffffffffffffffffffffffffffff167f8c5be1e5ebec7d5bd14f71427d1e84f3dd0314c0f7b2291e5b200ac8c7c3b92583604051611bb69190613caa565b60405180910390a3505050565b611bcd82826116e4565b5050565b6000611bdd848461142f565b90507fffffffffffffffffffffffffffffffffffffffffffffffffffffffffffffffff8114611c575781811015611c49576040517f08c379a0000000000000000000000000000000000000000000000000000000008152600401611c4090613a8f565b60405180910390fd5b611c5684848484036119f8565b5b50505050565b600073ffffffffffffffffffffffffffffffffffffffff168373ffffffffffffffffffffffffffffffffffffffff161415611ccd576040517f08c379a0000000000000000000000000000000000000000000000000000000008152600401611cc490613bcf565b60405180910390fd5b600073ffffffffffffffffffffffffffffffffffffffff168273ffffffffffffffffffffffffffffffffffffffff161415611d3d576040517f08c379a0000000000000000000000000000000000000000000000000000000008152600401611d349061396f565b60405180910390fd5b611d48838383612834565b60008060008573ffffffffffffffffffffffffffffffffffffffff1673ffffffffffffffffffffffffffffffffffffffff16815260200190815260200160002054905081811015611dce576040517f08c379a0000000000000000000000000000000000000000000000000000000008152600401611dc590613acf565b60405180910390fd5b8181036000808673ffffffffffffffffffffffffffffffffffffffff1673ffffffffffffffffffffffffffffffffffffffff16815260200190815260200160002081905550816000808573ffffffffffffffffffffffffffffffffffffffff1673ffffffffffffffffffffffffffffffffffffffff1681526020019081526020016000206000828254611e619190613d4b565b925050819055508273ffffffffffffffffffffffffffffffffffffffff168473ffffffffffffffffffffffffffffffffffffffff167fddf252ad1be2c89b69c2b068fc378daa952ba7f163c4a11628f55a4df523b3ef84604051611ec59190613caa565b60405180910390a3611ed884848461288c565b50505050565b60007f000000000000000000000000000000000000000000000000000000000000000073ffffffffffffffffffffffffffffffffffffffff163073ffffffffffffffffffffffffffffffffffffffff16148015611f5a57507f000000000000000000000000000000000000000000000000000000000000000046145b15611f87577f00000000000000000000000000000000000000000000000000000000000000009050611ff5565b611ff27f00000000000000000000000000000000000000000000000000000000000000007f00000000000000000000000000000000000000000000000000000000000000007f0000000000000000000000000000000000000000000000000000000000000000612a95565b90505b90565b6000808380549050905060005b8181101561209d5760006120198284612acf565b905084868281548110612055577f4e487b7100000000000000000000000000000000000000000000000000000000600052603260045260246000fd5b9060005260206000200160000160009054906101000a900463ffffffff1663ffffffff16111561208757809250612097565b6001816120949190613d4b565b91505b50612005565b6000821461212557846001836120b39190613f9d565b815481106120ea577f4e487b7100000000000000000000000000000000000000000000000000000000600052603260045260246000fd5b9060005260206000200160000160049054906101000a90047bffffffffffffffffffffffffffffffffffffffffffffffffffffffff16612128565b60005b7bffffffffffffffffffffffffffffffffffffffffffffffffffffffff169250505092915050565b612158610bae565b612197576040517f08c379a000000000000000000000000000000000000000000000000000000000815260040161218e906139af565b60405180910390fd5b6000600560006101000a81548160ff0219169083151502179055507f5db9ee0a495bf2e6ff9c91a7834c1ba4fdd244a5e8aa4e537bd38aeae4b073aa6121db6119f0565b6040516121e8919061379e565b60405180910390a1565b60006121fd83610b31565b9050600061220a84610c19565b905082600760008673ffffffffffffffffffffffffffffffffffffffff1673ffffffffffffffffffffffffffffffffffffffff16815260200190815260200160002060006101000a81548173ffffffffffffffffffffffffffffffffffffffff021916908373ffffffffffffffffffffffffffffffffffffffff1602179055508273ffffffffffffffffffffffffffffffffffffffff168273ffffffffffffffffffffffffffffffffffffffff168573ffffffffffffffffffffffffffffffffffffffff167f3134e8a2e6d97e929a7e54011ea5485d7d196dd5f0ba4d4ef95803e8e3fc257f60405160405180910390a461230682848361289c565b50505050565b6000600560019054906101000a900473ffffffffffffffffffffffffffffffffffffffff16905081600560016101000a81548173ffffffffffffffffffffffffffffffffffffffff021916908373ffffffffffffffffffffffffffffffffffffffff1602179055508173ffffffffffffffffffffffffffffffffffffffff168173ffffffffffffffffffffffffffffffffffffffff167f8be0079c531659141344cd1fd0a4f28419497f9722a3daafe3b4186f6b6457e060405160405180910390a35050565b600081600001549050919050565b6123e8610bae565b15612428576040517f08c379a000000000000000000000000000000000000000000000000000000000815260040161241f90613b0f565b60405180910390fd5b6001600560006101000a81548160ff0219169083151502179055507f62e78cea01bee320cd4e420270b5ea74000d11b0c9f74754ebdbfc544b05a25861246c6119f0565b604051612479919061379e565b60405180910390a1565b6000612496612490611ede565b83612af5565b9050919050565b60008060006124ae87878787612b28565b915091506124bb81612c35565b8192505050949350505050565b600080600660008473ffffffffffffffffffffffffffffffffffffffff1673ffffffffffffffffffffffffffffffffffffffff1681526020019081526020016000209050612515816123d2565b915061252081612f86565b50919050565b60007bffffffffffffffffffffffffffffffffffffffffffffffffffffffff905090565b600080600085805490509050600081146125de578560018261256c9190613f9d565b815481106125a3577f4e487b7100000000000000000000000000000000000000000000000000000000600052603260045260246000fd5b9060005260206000200160000160049054906101000a90047bffffffffffffffffffffffffffffffffffffffffffffffffffffffff166125e1565b60005b7bffffffffffffffffffffffffffffffffffffffffffffffffffffffff16925061260f83858763ffffffff16565b91506000811180156126885750438660018361262b9190613f9d565b81548110612662577f4e487b7100000000000000000000000000000000000000000000000000000000600052603260045260246000fd5b9060005260206000200160000160009054906101000a900463ffffffff1663ffffffff16145b1561273b57612696826118e7565b866001836126a49190613f9d565b815481106126db577f4e487b7100000000000000000000000000000000000000000000000000000000600052603260045260246000fd5b9060005260206000200160000160046101000a8154817bffffffffffffffffffffffffffffffffffffffffffffffffffffffff02191690837bffffffffffffffffffffffffffffffffffffffffffffffffffffffff16021790555061282b565b85604051806040016040528061275043611952565b63ffffffff168152602001612764856118e7565b7bffffffffffffffffffffffffffffffffffffffffffffffffffffffff168152509080600181540180825580915050600190039060005260206000200160009091909190915060008201518160000160006101000a81548163ffffffff021916908363ffffffff16021790555060208201518160000160046101000a8154817bffffffffffffffffffffffffffffffffffffffffffffffffffffffff02191690837bffffffffffffffffffffffffffffffffffffffffffffffffffffffff16021790555050505b50935093915050565b61283c610bae565b1561287c576040517f08c379a000000000000000000000000000000000000000000000000000000000815260040161287390613b0f565b60405180910390fd5b6128878383836119a5565b505050565b6128978383836119aa565b505050565b8173ffffffffffffffffffffffffffffffffffffffff168373ffffffffffffffffffffffffffffffffffffffff16141580156128d85750600081115b15612a9057600073ffffffffffffffffffffffffffffffffffffffff168373ffffffffffffffffffffffffffffffffffffffff16146129b65760008061295f600860008773ffffffffffffffffffffffffffffffffffffffff1673ffffffffffffffffffffffffffffffffffffffff1681526020019081526020016000206119da8561254a565b915091508473ffffffffffffffffffffffffffffffffffffffff167fdec2bacdd2f05b59de34da9b523dff8be42e5e38e818c82fdb0bae774387a72483836040516129ab929190613cc5565b60405180910390a250505b600073ffffffffffffffffffffffffffffffffffffffff168273ffffffffffffffffffffffffffffffffffffffff1614612a8f57600080612a38600860008673ffffffffffffffffffffffffffffffffffffffff1673ffffffffffffffffffffffffffffffffffffffff1681526020019081526020016000206118d18561254a565b915091508373ffffffffffffffffffffffffffffffffffffffff167fdec2bacdd2f05b59de34da9b523dff8be42e5e38e818c82fdb0bae774387a7248383604051612a84929190613cc5565b60405180910390a250505b5b505050565b60008383834630604051602001612ab0959493929190613895565b6040516020818303038152906040528051906020012090509392505050565b60006002828418612ae09190613da1565b828416612aed9190613d4b565b905092915050565b60008282604051602001612b0a929190613767565b60405160208183030381529060405280519060200120905092915050565b6000807f7fffffffffffffffffffffffffffffff5d576e7357a4501ddfe92f46681b20a08360001c1115612b63576000600391509150612c2c565b601b8560ff1614158015612b7b5750601c8560ff1614155b15612b8d576000600491509150612c2c565b600060018787878760405160008152602001604052604051612bb294939291906138e8565b6020604051602081039080840390855afa158015612bd4573d6000803e3d6000fd5b505050602060405103519050600073ffffffffffffffffffffffffffffffffffffffff168173ffffffffffffffffffffffffffffffffffffffff161415612c2357600060019250925050612c2c565b80600092509250505b94509492505050565b60006004811115612c6f577f4e487b7100000000000000000000000000000000000000000000000000000000600052602160045260246000fd5b816004811115612ca8577f4e487b7100000000000000000000000000000000000000000000000000000000600052602160045260246000fd5b1415612cb357612f83565b60016004811115612ced577f4e487b7100000000000000000000000000000000000000000000000000000000600052602160045260246000fd5b816004811115612d26577f4e487b7100000000000000000000000000000000000000000000000000000000600052602160045260246000fd5b1415612d67576040517f08c379a0000000000000000000000000000000000000000000000000000000008152600401612d5e9061394f565b60405180910390fd5b60026004811115612da1577f4e487b7100000000000000000000000000000000000000000000000000000000600052602160045260246000fd5b816004811115612dda577f4e487b7100000000000000000000000000000000000000000000000000000000600052602160045260246000fd5b1415612e1b576040517f08c379a0000000000000000000000000000000000000000000000000000000008152600401612e1290613a0f565b60405180910390fd5b60036004811115612e55577f4e487b7100000000000000000000000000000000000000000000000000000000600052602160045260246000fd5b816004811115612e8e577f4e487b7100000000000000000000000000000000000000000000000000000000600052602160045260246000fd5b1415612ecf576040517f08c379a0000000000000000000000000000000000000000000000000000000008152600401612ec690613aef565b60405180910390fd5b600480811115612f08577f4e487b7100000000000000000000000000000000000000000000000000000000600052602160045260246000fd5b816004811115612f41577f4e487b7100000000000000000000000000000000000000000000000000000000600052602160045260246000fd5b1415612f82576040517f08c379a0000000000000000000000000000000000000000000000000000000008152600401612f7990613b2f565b60405180910390fd5b5b50565b6001816000016000828254019250508190555050565b6040518060400160405280600063ffffffff16815260200160007bffffffffffffffffffffffffffffffffffffffffffffffffffffffff1681525090565b600081359050612fe98161479d565b92915050565b600081359050612ffe816147b4565b92915050565b600081359050613013816147cb565b92915050565b600081359050613028816147e2565b92915050565b60008135905061303d816147f9565b92915050565b60006020828403121561305557600080fd5b600061306384828501612fda565b91505092915050565b6000806040838503121561307f57600080fd5b600061308d85828601612fda565b925050602061309e85828601612fda565b9150509250929050565b6000806000606084860312156130bd57600080fd5b60006130cb86828701612fda565b93505060206130dc86828701612fda565b92505060406130ed86828701613004565b9150509250925092565b600080600080600080600060e0888a03121561311257600080fd5b60006131208a828b01612fda565b97505060206131318a828b01612fda565b96505060406131428a828b01613004565b95505060606131538a828b01613004565b94505060806131648a828b0161302e565b93505060a06131758a828b01612fef565b92505060c06131868a828b01612fef565b91505092959891949750929550565b600080604083850312156131a857600080fd5b60006131b685828601612fda565b92505060206131c785828601613004565b9150509250929050565b60008060008060008060c087890312156131ea57600080fd5b60006131f889828a01612fda565b965050602061320989828a01613004565b955050604061321a89828a01613004565b945050606061322b89828a0161302e565b935050608061323c89828a01612fef565b92505060a061324d89828a01612fef565b9150509295509295509295565b6000806040838503121561326d57600080fd5b600061327b85828601612fda565b925050602061328c85828601613019565b9150509250929050565b6000602082840312156132a857600080fd5b60006132b684828501613004565b91505092915050565b6132c881613fd1565b82525050565b6132d781613fe3565b82525050565b6132e681613fef565b82525050565b6132fd6132f882613fef565b6140cd565b82525050565b600061330e82613d24565b6133188185613d2f565b9350613328818560208601614068565b61333181614164565b840191505092915050565b6000613349601883613d2f565b915061335482614182565b602082019050919050565b600061336c602383613d2f565b9150613377826141ab565b604082019050919050565b600061338f601f83613d2f565b915061339a826141fa565b602082019050919050565b60006133b2601483613d2f565b91506133bd82614223565b602082019050919050565b60006133d5601983613d2f565b91506133e08261424c565b602082019050919050565b60006133f8601d83613d2f565b915061340382614275565b602082019050919050565b600061341b601f83613d2f565b91506134268261429e565b602082019050919050565b600061343e601983613d2f565b9150613449826142c7565b602082019050919050565b6000613461602683613d2f565b915061346c826142f0565b604082019050919050565b6000613484602283613d2f565b915061348f8261433f565b604082019050919050565b60006134a7600283613d40565b91506134b28261438e565b600282019050919050565b60006134ca601d83613d2f565b91506134d5826143b7565b602082019050919050565b60006134ed601d83613d2f565b91506134f8826143e0565b602082019050919050565b6000613510602683613d2f565b915061351b82614409565b604082019050919050565b6000613533602283613d2f565b915061353e82614458565b604082019050919050565b6000613556601083613d2f565b9150613561826144a7565b602082019050919050565b6000613579602283613d2f565b9150613584826144d0565b604082019050919050565b600061359c601e83613d2f565b91506135a78261451f565b602082019050919050565b60006135bf603083613d2f565b91506135ca82614548565b604082019050919050565b60006135e2602083613d2f565b91506135ed82614597565b602082019050919050565b6000613605602783613d2f565b9150613610826145c0565b604082019050919050565b6000613628602583613d2f565b91506136338261460f565b604082019050919050565b600061364b602683613d2f565b91506136568261465e565b604082019050919050565b600061366e602483613d2f565b9150613679826146ad565b604082019050919050565b6000613691601b83613d2f565b915061369c826146fc565b602082019050919050565b60006136b4602583613d2f565b91506136bf82614725565b604082019050919050565b60006136d7601f83613d2f565b91506136e282614774565b602082019050919050565b604082016000820151613703600085018261373a565b506020820151613716602085018261371c565b50505050565b61372581614019565b82525050565b61373481614041565b82525050565b6137438161404b565b82525050565b6137528161404b565b82525050565b6137618161405b565b82525050565b60006137728261349a565b915061377e82856132ec565b60208201915061378e82846132ec565b6020820191508190509392505050565b60006020820190506137b360008301846132bf565b92915050565b60006020820190506137ce60008301846132ce565b92915050565b60006020820190506137e960008301846132dd565b92915050565b600060c08201905061380460008301896132dd565b61381160208301886132bf565b61381e60408301876132bf565b61382b606083018661372b565b613838608083018561372b565b61384560a083018461372b565b979650505050505050565b600060808201905061386560008301876132dd565b61387260208301866132bf565b61387f604083018561372b565b61388c606083018461372b565b95945050505050565b600060a0820190506138aa60008301886132dd565b6138b760208301876132dd565b6138c460408301866132dd565b6138d1606083018561372b565b6138de60808301846132bf565b9695505050505050565b60006080820190506138fd60008301876132dd565b61390a6020830186613758565b61391760408301856132dd565b61392460608301846132dd565b95945050505050565b600060208201905081810360008301526139478184613303565b905092915050565b600060208201905081810360008301526139688161333c565b9050919050565b600060208201905081810360008301526139888161335f565b9050919050565b600060208201905081810360008301526139a881613382565b9050919050565b600060208201905081810360008301526139c8816133a5565b9050919050565b600060208201905081810360008301526139e8816133c8565b9050919050565b60006020820190508181036000830152613a08816133eb565b9050919050565b60006020820190508181036000830152613a288161340e565b9050919050565b60006020820190508181036000830152613a4881613431565b9050919050565b60006020820190508181036000830152613a6881613454565b9050919050565b60006020820190508181036000830152613a8881613477565b9050919050565b60006020820190508181036000830152613aa8816134bd565b9050919050565b60006020820190508181036000830152613ac8816134e0565b9050919050565b60006020820190508181036000830152613ae881613503565b9050919050565b60006020820190508181036000830152613b0881613526565b9050919050565b60006020820190508181036000830152613b2881613549565b9050919050565b60006020820190508181036000830152613b488161356c565b9050919050565b60006020820190508181036000830152613b688161358f565b9050919050565b60006020820190508181036000830152613b88816135b2565b9050919050565b60006020820190508181036000830152613ba8816135d5565b9050919050565b60006020820190508181036000830152613bc8816135f8565b9050919050565b60006020820190508181036000830152613be88161361b565b9050919050565b60006020820190508181036000830152613c088161363e565b9050919050565b60006020820190508181036000830152613c2881613661565b9050919050565b60006020820190508181036000830152613c4881613684565b9050919050565b60006020820190508181036000830152613c68816136a7565b9050919050565b60006020820190508181036000830152613c88816136ca565b9050919050565b6000604082019050613ca460008301846136ed565b92915050565b6000602082019050613cbf600083018461372b565b92915050565b6000604082019050613cda600083018561372b565b613ce7602083018461372b565b9392505050565b6000602082019050613d036000830184613749565b92915050565b6000602082019050613d1e6000830184613758565b92915050565b600081519050919050565b600082825260208201905092915050565b600081905092915050565b6000613d5682614041565b9150613d6183614041565b9250827fffffffffffffffffffffffffffffffffffffffffffffffffffffffffffffffff03821115613d9657613d956140d7565b5b828201905092915050565b6000613dac82614041565b9150613db783614041565b925082613dc757613dc6614106565b5b828204905092915050565b6000808291508390505b6001851115613e1c57808604811115613df857613df76140d7565b5b6001851615613e075780820291505b8081029050613e1585614175565b9450613ddc565b94509492505050565b6000613e3082614041565b9150613e3b8361405b565b9250613e687fffffffffffffffffffffffffffffffffffffffffffffffffffffffffffffffff8484613e70565b905092915050565b600082613e805760019050613f3c565b81613e8e5760009050613f3c565b8160018114613ea45760028114613eae57613edd565b6001915050613f3c565b60ff841115613ec057613ebf6140d7565b5b8360020a915084821115613ed757613ed66140d7565b5b50613f3c565b5060208310610133831016604e8410600b8410161715613f125782820a905083811115613f0d57613f0c6140d7565b5b613f3c565b613f1f8484846001613dd2565b92509050818404811115613f3657613f356140d7565b5b81810290505b9392505050565b6000613f4e82614041565b9150613f5983614041565b9250817fffffffffffffffffffffffffffffffffffffffffffffffffffffffffffffffff0483118215151615613f9257613f916140d7565b5b828202905092915050565b6000613fa882614041565b9150613fb383614041565b925082821015613fc657613fc56140d7565b5b828203905092915050565b6000613fdc82613ff9565b9050919050565b60008115159050919050565b6000819050919050565b600073ffffffffffffffffffffffffffffffffffffffff82169050919050565b60007bffffffffffffffffffffffffffffffffffffffffffffffffffffffff82169050919050565b6000819050919050565b600063ffffffff82169050919050565b600060ff82169050919050565b60005b8381101561408657808201518184015260208101905061406b565b83811115614095576000848401525b50505050565b600060028204905060018216806140b357607f821691505b602082108114156140c7576140c6614135565b5b50919050565b6000819050919050565b7f4e487b7100000000000000000000000000000000000000000000000000000000600052601160045260246000fd5b7f4e487b7100000000000000000000000000000000000000000000000000000000600052601260045260246000fd5b7f4e487b7100000000000000000000000000000000000000000000000000000000600052602260045260246000fd5b6000601f19601f8301169050919050565b60008160011c9050919050565b7f45434453413a20696e76616c6964207369676e61747572650000000000000000600082015250565b7f45524332303a207472616e7366657220746f20746865207a65726f206164647260008201527f6573730000000000000000000000000000000000000000000000000000000000602082015250565b7f4552433230566f7465733a20626c6f636b206e6f7420796574206d696e656400600082015250565b7f5061757361626c653a206e6f7420706175736564000000000000000000000000600082015250565b7f414d4f554e545f455843454544535f4d41585f535550504c5900000000000000600082015250565b7f4552433230566f7465733a207369676e61747572652065787069726564000000600082015250565b7f45434453413a20696e76616c6964207369676e6174757265206c656e67746800600082015250565b7f4552433230566f7465733a20696e76616c6964206e6f6e636500000000000000600082015250565b7f4f776e61626c653a206e6577206f776e657220697320746865207a65726f206160008201527f6464726573730000000000000000000000000000000000000000000000000000602082015250565b7f45524332303a20617070726f766520746f20746865207a65726f20616464726560008201527f7373000000000000000000000000000000000000000000000000000000000000602082015250565b7f1901000000000000000000000000000000000000000000000000000000000000600082015250565b7f45524332303a20696e73756666696369656e7420616c6c6f77616e6365000000600082015250565b7f45524332305065726d69743a206578706972656420646561646c696e65000000600082015250565b7f45524332303a207472616e7366657220616d6f756e742065786365656473206260008201527f616c616e63650000000000000000000000000000000000000000000000000000602082015250565b7f45434453413a20696e76616c6964207369676e6174757265202773272076616c60008201527f7565000000000000000000000000000000000000000000000000000000000000602082015250565b7f5061757361626c653a2070617573656400000000000000000000000000000000600082015250565b7f45434453413a20696e76616c6964207369676e6174757265202776272076616c60008201527f7565000000000000000000000000000000000000000000000000000000000000602082015250565b7f45524332305065726d69743a20696e76616c6964207369676e61747572650000600082015250565b7f4552433230566f7465733a20746f74616c20737570706c79207269736b73206f60008201527f766572666c6f77696e6720766f74657300000000000000000000000000000000602082015250565b7f4f776e61626c653a2063616c6c6572206973206e6f7420746865206f776e6572600082015250565b7f53616665436173743a2076616c756520646f65736e27742066697420696e203260008201527f3234206269747300000000000000000000000000000000000000000000000000602082015250565b7f45524332303a207472616e736665722066726f6d20746865207a65726f20616460008201527f6472657373000000000000000000000000000000000000000000000000000000602082015250565b7f53616665436173743a2076616c756520646f65736e27742066697420696e203360008201527f3220626974730000000000000000000000000000000000000000000000000000602082015250565b7f45524332303a20617070726f76652066726f6d20746865207a65726f2061646460008201527f7265737300000000000000000000000000000000000000000000000000000000602082015250565b7f4d494e494d554d5f544f4b454e5f50524943455f4e4f545f4d45540000000000600082015250565b7f45524332303a2064656372656173656420616c6c6f77616e63652062656c6f7760008201527f207a65726f000000000000000000000000000000000000000000000000000000602082015250565b7f45524332303a206d696e7420746f20746865207a65726f206164647265737300600082015250565b6147a681613fd1565b81146147b157600080fd5b50565b6147bd81613fef565b81146147c857600080fd5b50565b6147d481614041565b81146147df57600080fd5b50565b6147eb8161404b565b81146147f657600080fd5b50565b6148028161405b565b811461480d57600080fd5b5056fea26469706673582212201e1ad209d7d93a2640ab6a9cb92dc67090b61c7967ca23caa72a1da67e8ad73c64736f6c63430008040033",
  "linkReferences": {},
  "deployedLinkReferences": {}
}