{
  "_format": "hh-sol-artifact-1",
  "contractName": "Deploy",
  "sourceName": "contracts/Deploy.sol",
  "abi": [
    {
      "inputs": [],
      "stateMutability": "payable",
      "type": "constructor"
    },
    {
      "inputs": [],
      "name": "dao",
      "outputs": [
        {
          "internalType": "contract AgioSMARTDAO",
          "name": "",
          "type": "address"
        }
      ],
      "stateMutability": "view",
      "type": "function"
    },
    {
      "inputs": [],
      "name": "nft",
      "outputs": [
        {
          "internalType": "contract AgioERC1155",
          "name": "",
          "type": "address"
        }
      ],
      "stateMutability": "view",
      "type": "function"
    },
    {
      "inputs": [],
      "name": "token",
      "outputs": [
        {
          "internalType": "contract AgioGovernance",
          "name": "",
          "type": "address"
        }
      ],
      "stateMutability": "view",
      "type": "function"
    }
  ],
  "bytecode": "0x608060405260008030905081816040516200001a90620001c0565b62000027929190620002f1565b604051809103906000f08015801562000044573d6000803e3d6000fd5b506000806101000a81548173ffffffffffffffffffffffffffffffffffffffff021916908373ffffffffffffffffffffffffffffffffffffffff1602179055506040516200009290620001ce565b6200009d906200038a565b604051809103906000f080158015620000ba573d6000803e3d6000fd5b50600160006101000a81548173ffffffffffffffffffffffffffffffffffffffff021916908373ffffffffffffffffffffffffffffffffffffffff16021790555060008054906101000a900473ffffffffffffffffffffffffffffffffffffffff16600160009054906101000a900473ffffffffffffffffffffffffffffffffffffffff166040516200014d90620001dc565b6200015a92919062000348565b604051809103906000f08015801562000177573d6000803e3d6000fd5b50600260006101000a81548173ffffffffffffffffffffffffffffffffffffffff021916908373ffffffffffffffffffffffffffffffffffffffff160217905550505062000553565b61603980620007b383390190565b615b1480620067ec83390190565b6153ea806200c30083390190565b620001f581620003d2565b82525050565b620002068162000410565b82525050565b620002178162000438565b82525050565b60006200022c601583620003c1565b9150620002398262000460565b602082019050919050565b600062000253600583620003c1565b9150620002608262000489565b602082019050919050565b60006200027a600e83620003c1565b91506200028782620004b2565b602082019050919050565b6000620002a1602183620003c1565b9150620002ae82620004db565b604082019050919050565b6000620002c8600483620003c1565b9150620002d5826200052a565b602082019050919050565b620002eb8162000406565b82525050565b600060808201905081810360008301526200030c816200021d565b905081810360208301526200032181620002b9565b9050620003326040830185620002e0565b620003416060830184620001ea565b9392505050565b6000606082019050818103600083015262000363816200026b565b90506200037460208301856200020c565b620003836040830184620001fb565b9392505050565b60006040820190508181036000830152620003a58162000292565b90508181036020830152620003ba8162000244565b9050919050565b600082825260208201905092915050565b6000620003df82620003e6565b9050919050565b600073ffffffffffffffffffffffffffffffffffffffff82169050919050565b6000819050919050565b60006200041d8262000424565b9050919050565b60006200043182620003e6565b9050919050565b600062000445826200044c565b9050919050565b60006200045982620003e6565b9050919050565b7f4167696f20476f7665726e616e636520546f6b656e0000000000000000000000600082015250565b7f534d415254000000000000000000000000000000000000000000000000000000600082015250565b7f4167696f20534d4152542044414f000000000000000000000000000000000000600082015250565b7f4167696f20417070726f76656420496e766573746d656e742050726f706f736160008201527f6c00000000000000000000000000000000000000000000000000000000000000602082015250565b7f4147494f00000000000000000000000000000000000000000000000000000000600082015250565b61025080620005636000396000f3fe608060405234801561001057600080fd5b50600436106100415760003560e01c80634162169f1461004657806347ccca0214610064578063fc0c546a14610082575b600080fd5b61004e6100a0565b60405161005b9190610173565b60405180910390f35b61006c6100c6565b604051610079919061013d565b60405180910390f35b61008a6100ec565b6040516100979190610158565b60405180910390f35b600260009054906101000a900473ffffffffffffffffffffffffffffffffffffffff1681565b600160009054906101000a900473ffffffffffffffffffffffffffffffffffffffff1681565b60008054906101000a900473ffffffffffffffffffffffffffffffffffffffff1681565b610119816101ae565b82525050565b610128816101d2565b82525050565b610137816101f6565b82525050565b60006020820190506101526000830184610110565b92915050565b600060208201905061016d600083018461011f565b92915050565b6000602082019050610188600083018461012e565b92915050565b600073ffffffffffffffffffffffffffffffffffffffff82169050919050565b60006101b9826101c0565b9050919050565b60006101cb8261018e565b9050919050565b60006101dd826101e4565b9050919050565b60006101ef8261018e565b9050919050565b600061020182610208565b9050919050565b60006102138261018e565b905091905056fea2646970667358221220f7d426bced5991a7abe82b9c28c38741f292e58b02d668f6951ac9ca511686a964736f6c634300080400336101606040527f6e71edae12b1b97f4d1f60370fef10105fa2faae0126114a169c64845d6126c961014090815250620000426200021c60201b620009551760201c565b600a620000509190620012a7565b6113886200005f9190620013e4565b600a556703782dace9d90000600b553480156200007b57600080fd5b5060405162006039380380620060398339818101604052810190620000a1919062000e9a565b83806040518060400160405280600181526020017f310000000000000000000000000000000000000000000000000000000000000081525086868160039080519060200190620000f392919062000d4a565b5080600490805190602001906200010c92919062000d4a565b5050506000600560006101000a81548160ff0219169083151502179055506200014a6200013e6200022560201b60201c565b6200022d60201b60201c565b60008280519060200120905060008280519060200120905060007f8b73c3c69bb8fe3d512ecc4cf759cc79239f7b179b0ffacaa9a75d522b39400f90508260e081815250508161010081815250504660a08181525050620001b3818484620002f360201b60201c565b608081815250503073ffffffffffffffffffffffffffffffffffffffff1660c08173ffffffffffffffffffffffffffffffffffffffff1660601b815250508061012081815250505050505050506200021281836200032f60201b60201c565b5050505062001795565b60006012905090565b600033905090565b6000600560019054906101000a900473ffffffffffffffffffffffffffffffffffffffff16905081600560016101000a81548173ffffffffffffffffffffffffffffffffffffffff021916908373ffffffffffffffffffffffffffffffffffffffff1602179055508173ffffffffffffffffffffffffffffffffffffffff168173ffffffffffffffffffffffffffffffffffffffff167f8be0079c531659141344cd1fd0a4f28419497f9722a3daafe3b4186f6b6457e060405160405180910390a35050565b60008383834630604051602001620003109594939291906200102e565b6040516020818303038152906040528051906020012090509392505050565b6200034682826200034a60201b620016e41760201c565b5050565b6200036182826200040860201b620017711760201c565b620003716200058160201b60201c565b7bffffffffffffffffffffffffffffffffffffffffffffffffffffffff166200039f620005a560201b60201c565b1115620003e3576040517f08c379a0000000000000000000000000000000000000000000000000000000008152600401620003da90620010ad565b60405180910390fd5b620004026009620005af60201b620018d11783620005c760201b60201c565b50505050565b600073ffffffffffffffffffffffffffffffffffffffff168273ffffffffffffffffffffffffffffffffffffffff1614156200047b576040517f08c379a0000000000000000000000000000000000000000000000000000000008152600401620004729062001113565b60405180910390fd5b6200048f60008383620008e460201b60201c565b8060026000828254620004a39190620011ef565b92505081905550806000808473ffffffffffffffffffffffffffffffffffffffff1673ffffffffffffffffffffffffffffffffffffffff1681526020019081526020016000206000828254620004fa9190620011ef565b925050819055508173ffffffffffffffffffffffffffffffffffffffff16600073ffffffffffffffffffffffffffffffffffffffff167fddf252ad1be2c89b69c2b068fc378daa952ba7f163c4a11628f55a4df523b3ef8360405162000561919062001135565b60405180910390a36200057d600083836200095460201b60201c565b5050565b60007bffffffffffffffffffffffffffffffffffffffffffffffffffffffff905090565b6000600254905090565b60008183620005bf9190620011ef565b905092915050565b60008060008580549050905060008114620006605785600182620005ec919062001445565b8154811062000624577f4e487b7100000000000000000000000000000000000000000000000000000000600052603260045260246000fd5b9060005260206000200160000160049054906101000a90047bffffffffffffffffffffffffffffffffffffffffffffffffffffffff1662000663565b60005b7bffffffffffffffffffffffffffffffffffffffffffffffffffffffff1692506200068f83858760201c565b91506000811180156200070c57504386600183620006ae919062001445565b81548110620006e6577f4e487b7100000000000000000000000000000000000000000000000000000000600052603260045260246000fd5b9060005260206000200160000160009054906101000a900463ffffffff1663ffffffff16145b15620007d15762000728826200097160201b620018e71760201c565b8660018362000738919062001445565b8154811062000770577f4e487b7100000000000000000000000000000000000000000000000000000000600052603260045260246000fd5b9060005260206000200160000160046101000a8154817bffffffffffffffffffffffffffffffffffffffffffffffffffffffff02191690837bffffffffffffffffffffffffffffffffffffffffffffffffffffffff160217905550620008db565b856040518060400160405280620007f343620009df60201b620019521760201c565b63ffffffff16815260200162000814856200097160201b620018e71760201c565b7bffffffffffffffffffffffffffffffffffffffffffffffffffffffff168152509080600181540180825580915050600190039060005260206000200160009091909190915060008201518160000160006101000a81548163ffffffff021916908363ffffffff16021790555060208201518160000160046101000a8154817bffffffffffffffffffffffffffffffffffffffffffffffffffffffff02191690837bffffffffffffffffffffffffffffffffffffffffffffffffffffffff16021790555050505b50935093915050565b620008f462000a3560201b60201c565b1562000937576040517f08c379a00000000000000000000000000000000000000000000000000000000081526004016200092e906200108b565b60405180910390fd5b6200094f83838362000a4c60201b620019a51760201c565b505050565b6200096c83838362000a5160201b620019aa1760201c565b505050565b60007bffffffffffffffffffffffffffffffffffffffffffffffffffffffff8016821115620009d7576040517f08c379a0000000000000000000000000000000000000000000000000000000008152600401620009ce90620010cf565b60405180910390fd5b819050919050565b600063ffffffff801682111562000a2d576040517f08c379a000000000000000000000000000000000000000000000000000000000815260040162000a2490620010f1565b60405180910390fd5b819050919050565b6000600560009054906101000a900460ff16905090565b505050565b62000a6983838362000aa160201b620019d51760201c565b62000a9c62000a7e8462000aa660201b60201c565b62000a8f8462000aa660201b60201c565b8362000b0f60201b60201c565b505050565b505050565b6000600760008373ffffffffffffffffffffffffffffffffffffffff1673ffffffffffffffffffffffffffffffffffffffff16815260200190815260200160002060009054906101000a900473ffffffffffffffffffffffffffffffffffffffff169050919050565b8173ffffffffffffffffffffffffffffffffffffffff168373ffffffffffffffffffffffffffffffffffffffff161415801562000b4c5750600081115b1562000d2d57600073ffffffffffffffffffffffffffffffffffffffff168373ffffffffffffffffffffffffffffffffffffffff161462000c3f5760008062000be6600860008773ffffffffffffffffffffffffffffffffffffffff1673ffffffffffffffffffffffffffffffffffffffff16815260200190815260200160002062000d3260201b620019da1785620005c760201b60201c565b915091508473ffffffffffffffffffffffffffffffffffffffff167fdec2bacdd2f05b59de34da9b523dff8be42e5e38e818c82fdb0bae774387a724838360405162000c3492919062001152565b60405180910390a250505b600073ffffffffffffffffffffffffffffffffffffffff168273ffffffffffffffffffffffffffffffffffffffff161462000d2c5760008062000cd3600860008673ffffffffffffffffffffffffffffffffffffffff1673ffffffffffffffffffffffffffffffffffffffff168152602001908152602001600020620005af60201b620018d11785620005c760201b60201c565b915091508373ffffffffffffffffffffffffffffffffffffffff167fdec2bacdd2f05b59de34da9b523dff8be42e5e38e818c82fdb0bae774387a724838360405162000d2192919062001152565b60405180910390a250505b5b505050565b6000818362000d42919062001445565b905092915050565b82805462000d58906200150b565b90600052602060002090601f01602090048101928262000d7c576000855562000dc8565b82601f1062000d9757805160ff191683800117855562000dc8565b8280016001018555821562000dc8579182015b8281111562000dc757825182559160200191906001019062000daa565b5b50905062000dd7919062000ddb565b5090565b5b8082111562000df657600081600090555060010162000ddc565b5090565b600062000e1162000e0b84620011a8565b6200117f565b90508281526020810184848401111562000e2a57600080fd5b62000e37848285620014d5565b509392505050565b60008151905062000e508162001761565b92915050565b600082601f83011262000e6857600080fd5b815162000e7a84826020860162000dfa565b91505092915050565b60008151905062000e94816200177b565b92915050565b6000806000806080858703121562000eb157600080fd5b600085015167ffffffffffffffff81111562000ecc57600080fd5b62000eda8782880162000e56565b945050602085015167ffffffffffffffff81111562000ef857600080fd5b62000f068782880162000e56565b935050604062000f198782880162000e83565b925050606062000f2c8782880162000e3f565b91505092959194509250565b62000f438162001480565b82525050565b62000f548162001494565b82525050565b600062000f69601083620011de565b915062000f768262001622565b602082019050919050565b600062000f90603083620011de565b915062000f9d826200164b565b604082019050919050565b600062000fb7602783620011de565b915062000fc4826200169a565b604082019050919050565b600062000fde602683620011de565b915062000feb82620016e9565b604082019050919050565b600062001005601f83620011de565b9150620010128262001738565b602082019050919050565b6200102881620014be565b82525050565b600060a08201905062001045600083018862000f49565b62001054602083018762000f49565b62001063604083018662000f49565b6200107260608301856200101d565b62001081608083018462000f38565b9695505050505050565b60006020820190508181036000830152620010a68162000f5a565b9050919050565b60006020820190508181036000830152620010c88162000f81565b9050919050565b60006020820190508181036000830152620010ea8162000fa8565b9050919050565b600060208201905081810360008301526200110c8162000fcf565b9050919050565b600060208201905081810360008301526200112e8162000ff6565b9050919050565b60006020820190506200114c60008301846200101d565b92915050565b60006040820190506200116960008301856200101d565b6200117860208301846200101d565b9392505050565b60006200118b6200119e565b905062001199828262001541565b919050565b6000604051905090565b600067ffffffffffffffff821115620011c657620011c5620015d5565b5b620011d18262001604565b9050602081019050919050565b600082825260208201905092915050565b6000620011fc82620014be565b91506200120983620014be565b9250827fffffffffffffffffffffffffffffffffffffffffffffffffffffffffffffffff0382111562001241576200124062001577565b5b828201905092915050565b6000808291508390505b60018511156200129e5780860481111562001276576200127562001577565b5b6001851615620012865780820291505b8081029050620012968562001615565b945062001256565b94509492505050565b6000620012b482620014be565b9150620012c183620014c8565b9250620012f07fffffffffffffffffffffffffffffffffffffffffffffffffffffffffffffffff8484620012f8565b905092915050565b6000826200130a5760019050620013dd565b816200131a5760009050620013dd565b81600181146200133357600281146200133e5762001374565b6001915050620013dd565b60ff84111562001353576200135262001577565b5b8360020a9150848211156200136d576200136c62001577565b5b50620013dd565b5060208310610133831016604e8410600b8410161715620013ae5782820a905083811115620013a857620013a762001577565b5b620013dd565b620013bd84848460016200124c565b92509050818404811115620013d757620013d662001577565b5b81810290505b9392505050565b6000620013f182620014be565b9150620013fe83620014be565b9250817fffffffffffffffffffffffffffffffffffffffffffffffffffffffffffffffff04831182151516156200143a576200143962001577565b5b828202905092915050565b60006200145282620014be565b91506200145f83620014be565b92508282101562001475576200147462001577565b5b828203905092915050565b60006200148d826200149e565b9050919050565b6000819050919050565b600073ffffffffffffffffffffffffffffffffffffffff82169050919050565b6000819050919050565b600060ff82169050919050565b60005b83811015620014f5578082015181840152602081019050620014d8565b8381111562001505576000848401525b50505050565b600060028204905060018216806200152457607f821691505b602082108114156200153b576200153a620015a6565b5b50919050565b6200154c8262001604565b810181811067ffffffffffffffff821117156200156e576200156d620015d5565b5b80604052505050565b7f4e487b7100000000000000000000000000000000000000000000000000000000600052601160045260246000fd5b7f4e487b7100000000000000000000000000000000000000000000000000000000600052602260045260246000fd5b7f4e487b7100000000000000000000000000000000000000000000000000000000600052604160045260246000fd5b6000601f19601f8301169050919050565b60008160011c9050919050565b7f5061757361626c653a2070617573656400000000000000000000000000000000600082015250565b7f4552433230566f7465733a20746f74616c20737570706c79207269736b73206f60008201527f766572666c6f77696e6720766f74657300000000000000000000000000000000602082015250565b7f53616665436173743a2076616c756520646f65736e27742066697420696e203260008201527f3234206269747300000000000000000000000000000000000000000000000000602082015250565b7f53616665436173743a2076616c756520646f65736e27742066697420696e203360008201527f3220626974730000000000000000000000000000000000000000000000000000602082015250565b7f45524332303a206d696e7420746f20746865207a65726f206164647265737300600082015250565b6200176c8162001480565b81146200177857600080fd5b50565b6200178681620014be565b81146200179257600080fd5b50565b60805160a05160c05160601c60e051610100516101205161014051614846620017f3600039600061133401526000611f8c01526000611fce01526000611fad01526000611ee201526000611f3801526000611f6101526148466000f3fe6080604052600436106101d85760003560e01c8063715018a6116101025780639ab24eb011610095578063d505accf11610064578063d505accf146106ce578063dd62ed3e146106f7578063f1127ed814610734578063f2fde38b14610771576101d8565b80639ab24eb0146105ee578063a457c2d71461062b578063a9059cbb14610668578063c3cda520146106a5576101d8565b80638456cb59116100d15780638456cb59146105445780638da5cb5b1461055b5780638e539e8c1461058657806395d89b41146105c3576101d8565b8063715018a6146104a9578063755edd17146104c05780637ecebe00146104dc5780637ff9b59614610519576101d8565b8063395093511161017a5780635c19a95c116101495780635c19a95c146103db5780635c975abb146104045780636fcfff451461042f57806370a082311461046c576101d8565b8063395093511461030d5780633a46b1a81461034a5780633f4ba83a14610387578063587cde1e1461039e576101d8565b806318160ddd116101b657806318160ddd1461024f57806323b872dd1461027a578063313ce567146102b75780633644e515146102e2576101d8565b806306fdde03146101dd578063095ea7b3146102085780631249c58b14610245575b600080fd5b3480156101e957600080fd5b506101f261079a565b6040516101ff919061392d565b60405180910390f35b34801561021457600080fd5b5061022f600480360381019061022a9190613195565b61082c565b60405161023c91906137b9565b60405180910390f35b61024d61084f565b005b34801561025b57600080fd5b5061026461091c565b6040516102719190613caa565b60405180910390f35b34801561028657600080fd5b506102a1600480360381019061029c91906130a8565b610926565b6040516102ae91906137b9565b60405180910390f35b3480156102c357600080fd5b506102cc610955565b6040516102d99190613d09565b60405180910390f35b3480156102ee57600080fd5b506102f761095e565b60405161030491906137d4565b60405180910390f35b34801561031957600080fd5b50610334600480360381019061032f9190613195565b61096d565b60405161034191906137b9565b60405180910390f35b34801561035657600080fd5b50610371600480360381019061036c9190613195565b610a17565b60405161037e9190613caa565b60405180910390f35b34801561039357600080fd5b5061039c610aab565b005b3480156103aa57600080fd5b506103c560048036038101906103c09190613043565b610b31565b6040516103d2919061379e565b60405180910390f35b3480156103e757600080fd5b5061040260048036038101906103fd9190613043565b610b9a565b005b34801561041057600080fd5b50610419610bae565b60405161042691906137b9565b60405180910390f35b34801561043b57600080fd5b5061045660048036038101906104519190613043565b610bc5565b6040516104639190613cee565b60405180910390f35b34801561047857600080fd5b50610493600480360381019061048e9190613043565b610c19565b6040516104a09190613caa565b60405180910390f35b3480156104b557600080fd5b506104be610c61565b005b6104da60048036038101906104d59190613043565b610ce9565b005b3480156104e857600080fd5b5061050360048036038101906104fe9190613043565b610db7565b6040516105109190613caa565b60405180910390f35b34801561052557600080fd5b5061052e610e07565b60405161053b9190613caa565b60405180910390f35b34801561055057600080fd5b50610559610e0d565b005b34801561056757600080fd5b50610570610e93565b60405161057d919061379e565b60405180910390f35b34801561059257600080fd5b506105ad60048036038101906105a89190613296565b610ebd565b6040516105ba9190613caa565b60405180910390f35b3480156105cf57600080fd5b506105d8610f13565b6040516105e5919061392d565b60405180910390f35b3480156105fa57600080fd5b5061061560048036038101906106109190613043565b610fa5565b6040516106229190613caa565b60405180910390f35b34801561063757600080fd5b50610652600480360381019061064d9190613195565b6110dc565b60405161065f91906137b9565b60405180910390f35b34801561067457600080fd5b5061068f600480360381019061068a9190613195565b6111c6565b60405161069c91906137b9565b60405180910390f35b3480156106b157600080fd5b506106cc60048036038101906106c791906131d1565b6111e9565b005b3480156106da57600080fd5b506106f560048036038101906106f091906130f7565b6112ed565b005b34801561070357600080fd5b5061071e6004803603810190610719919061306c565b61142f565b60405161072b9190613caa565b60405180910390f35b34801561074057600080fd5b5061075b6004803603810190610756919061325a565b6114b6565b6040516107689190613c8f565b60405180910390f35b34801561077d57600080fd5b5061079860048036038101906107939190613043565b6115ec565b005b6060600380546107a99061409b565b80601f01602080910402602001604051908101604052809291908181526020018280546107d59061409b565b80156108225780601f106107f757610100808354040283529160200191610822565b820191906000526020600020905b81548152906001019060200180831161080557829003601f168201915b5050505050905090565b6000806108376119f0565b90506108448185856119f8565b600191505092915050565b600b54341015610894576040517f08c379a000000000000000000000000000000000000000000000000000000000815260040161088b90613c2f565b60405180910390fd5b6000600b54346108a49190613da1565b905060006108b0610955565b600a6108bc9190613e25565b826108c79190613f43565b9050600a5481111561090e576040517f08c379a0000000000000000000000000000000000000000000000000000000008152600401610905906139cf565b60405180910390fd5b6109183382611bc3565b5050565b6000600254905090565b6000806109316119f0565b905061093e858285611bd1565b610949858585611c5d565b60019150509392505050565b60006012905090565b6000610968611ede565b905090565b6000806109786119f0565b9050610a0c818585600160008673ffffffffffffffffffffffffffffffffffffffff1673ffffffffffffffffffffffffffffffffffffffff16815260200190815260200160002060008973ffffffffffffffffffffffffffffffffffffffff1673ffffffffffffffffffffffffffffffffffffffff16815260200190815260200160002054610a079190613d4b565b6119f8565b600191505092915050565b6000438210610a5b576040517f08c379a0000000000000000000000000000000000000000000000000000000008152600401610a529061398f565b60405180910390fd5b610aa3600860008573ffffffffffffffffffffffffffffffffffffffff1673ffffffffffffffffffffffffffffffffffffffff16815260200190815260200160002083611ff8565b905092915050565b610ab36119f0565b73ffffffffffffffffffffffffffffffffffffffff16610ad1610e93565b73ffffffffffffffffffffffffffffffffffffffff1614610b27576040517f08c379a0000000000000000000000000000000000000000000000000000000008152600401610b1e90613b8f565b60405180910390fd5b610b2f612150565b565b6000600760008373ffffffffffffffffffffffffffffffffffffffff1673ffffffffffffffffffffffffffffffffffffffff16815260200190815260200160002060009054906101000a900473ffffffffffffffffffffffffffffffffffffffff169050919050565b610bab610ba56119f0565b826121f2565b50565b6000600560009054906101000a900460ff16905090565b6000610c12600860008473ffffffffffffffffffffffffffffffffffffffff1673ffffffffffffffffffffffffffffffffffffffff16815260200190815260200160002080549050611952565b9050919050565b60008060008373ffffffffffffffffffffffffffffffffffffffff1673ffffffffffffffffffffffffffffffffffffffff168152602001908152602001600020549050919050565b610c696119f0565b73ffffffffffffffffffffffffffffffffffffffff16610c87610e93565b73ffffffffffffffffffffffffffffffffffffffff1614610cdd576040517f08c379a0000000000000000000000000000000000000000000000000000000008152600401610cd490613b8f565b60405180910390fd5b610ce7600061230c565b565b600b54341015610d2e576040517f08c379a0000000000000000000000000000000000000000000000000000000008152600401610d2590613c2f565b60405180910390fd5b6000600b5434610d3e9190613da1565b90506000610d4a610955565b600a610d569190613e25565b82610d619190613f43565b9050600a54811115610da8576040517f08c379a0000000000000000000000000000000000000000000000000000000008152600401610d9f906139cf565b60405180910390fd5b610db28382611bc3565b505050565b6000610e00600660008473ffffffffffffffffffffffffffffffffffffffff1673ffffffffffffffffffffffffffffffffffffffff1681526020019081526020016000206123d2565b9050919050565b600b5481565b610e156119f0565b73ffffffffffffffffffffffffffffffffffffffff16610e33610e93565b73ffffffffffffffffffffffffffffffffffffffff1614610e89576040517f08c379a0000000000000000000000000000000000000000000000000000000008152600401610e8090613b8f565b60405180910390fd5b610e916123e0565b565b6000600560019054906101000a900473ffffffffffffffffffffffffffffffffffffffff16905090565b6000438210610f01576040517f08c379a0000000000000000000000000000000000000000000000000000000008152600401610ef89061398f565b60405180910390fd5b610f0c600983611ff8565b9050919050565b606060048054610f229061409b565b80601f0160208091040260200160405190810160405280929190818152602001828054610f4e9061409b565b8015610f9b5780601f10610f7057610100808354040283529160200191610f9b565b820191906000526020600020905b815481529060010190602001808311610f7e57829003601f168201915b5050505050905090565b600080600860008473ffffffffffffffffffffffffffffffffffffffff1673ffffffffffffffffffffffffffffffffffffffff168152602001908152602001600020805490509050600081146110b357600860008473ffffffffffffffffffffffffffffffffffffffff1673ffffffffffffffffffffffffffffffffffffffff1681526020019081526020016000206001826110419190613f9d565b81548110611078577f4e487b7100000000000000000000000000000000000000000000000000000000600052603260045260246000fd5b9060005260206000200160000160049054906101000a90047bffffffffffffffffffffffffffffffffffffffffffffffffffffffff166110b6565b60005b7bffffffffffffffffffffffffffffffffffffffffffffffffffffffff16915050919050565b6000806110e76119f0565b90506000600160008373ffffffffffffffffffffffffffffffffffffffff1673ffffffffffffffffffffffffffffffffffffffff16815260200190815260200160002060008673ffffffffffffffffffffffffffffffffffffffff1673ffffffffffffffffffffffffffffffffffffffff168152602001908152602001600020549050838110156111ad576040517f08c379a00000000000000000000000000000000000000000000000000000000081526004016111a490613c4f565b60405180910390fd5b6111ba82868684036119f8565b60019250505092915050565b6000806111d16119f0565b90506111de818585611c5d565b600191505092915050565b8342111561122c576040517f08c379a0000000000000000000000000000000000000000000000000000000008152600401611223906139ef565b60405180910390fd5b600061128e6112867fe48329057bfd03d55e49b547132e39cffd9c1820ad7b9d4c5307691425d15adf89898960405160200161126b9493929190613850565b60405160208183030381529060405280519060200120612483565b85858561249d565b9050611299816124c8565b86146112da576040517f08c379a00000000000000000000000000000000000000000000000000000000081526004016112d190613a2f565b60405180910390fd5b6112e481886121f2565b50505050505050565b83421115611330576040517f08c379a000000000000000000000000000000000000000000000000000000000815260040161132790613aaf565b60405180910390fd5b60007f000000000000000000000000000000000000000000000000000000000000000088888861135f8c6124c8565b89604051602001611375969594939291906137ef565b604051602081830303815290604052805190602001209050600061139882612483565b905060006113a88287878761249d565b90508973ffffffffffffffffffffffffffffffffffffffff168173ffffffffffffffffffffffffffffffffffffffff1614611418576040517f08c379a000000000000000000000000000000000000000000000000000000000815260040161140f90613b4f565b60405180910390fd5b6114238a8a8a6119f8565b50505050505050505050565b6000600160008473ffffffffffffffffffffffffffffffffffffffff1673ffffffffffffffffffffffffffffffffffffffff16815260200190815260200160002060008373ffffffffffffffffffffffffffffffffffffffff1673ffffffffffffffffffffffffffffffffffffffff16815260200190815260200160002054905092915050565b6114be612f9c565b600860008473ffffffffffffffffffffffffffffffffffffffff1673ffffffffffffffffffffffffffffffffffffffff1681526020019081526020016000208263ffffffff168154811061153b577f4e487b7100000000000000000000000000000000000000000000000000000000600052603260045260246000fd5b906000526020600020016040518060400160405290816000820160009054906101000a900463ffffffff1663ffffffff1663ffffffff1681526020016000820160049054906101000a90047bffffffffffffffffffffffffffffffffffffffffffffffffffffffff167bffffffffffffffffffffffffffffffffffffffffffffffffffffffff167bffffffffffffffffffffffffffffffffffffffffffffffffffffffff1681525050905092915050565b6115f46119f0565b73ffffffffffffffffffffffffffffffffffffffff16611612610e93565b73ffffffffffffffffffffffffffffffffffffffff1614611668576040517f08c379a000000000000000000000000000000000000000000000000000000000815260040161165f90613b8f565b60405180910390fd5b600073ffffffffffffffffffffffffffffffffffffffff168173ffffffffffffffffffffffffffffffffffffffff1614156116d8576040517f08c379a00000000000000000000000000000000000000000000000000000000081526004016116cf90613a4f565b60405180910390fd5b6116e18161230c565b50565b6116ee8282611771565b6116f6612526565b7bffffffffffffffffffffffffffffffffffffffffffffffffffffffff1661171c61091c565b111561175d576040517f08c379a000000000000000000000000000000000000000000000000000000000815260040161175490613b6f565b60405180910390fd5b61176b60096118d18361254a565b50505050565b600073ffffffffffffffffffffffffffffffffffffffff168273ffffffffffffffffffffffffffffffffffffffff1614156117e1576040517f08c379a00000000000000000000000000000000000000000000000000000000081526004016117d890613c6f565b60405180910390fd5b6117ed60008383612834565b80600260008282546117ff9190613d4b565b92505081905550806000808473ffffffffffffffffffffffffffffffffffffffff1673ffffffffffffffffffffffffffffffffffffffff16815260200190815260200160002060008282546118549190613d4b565b925050819055508173ffffffffffffffffffffffffffffffffffffffff16600073ffffffffffffffffffffffffffffffffffffffff167fddf252ad1be2c89b69c2b068fc378daa952ba7f163c4a11628f55a4df523b3ef836040516118b99190613caa565b60405180910390a36118cd6000838361288c565b5050565b600081836118df9190613d4b565b905092915050565b60007bffffffffffffffffffffffffffffffffffffffffffffffffffffffff801682111561194a576040517f08c379a000000000000000000000000000000000000000000000000000000000815260040161194190613baf565b60405180910390fd5b819050919050565b600063ffffffff801682111561199d576040517f08c379a000000000000000000000000000000000000000000000000000000000815260040161199490613bef565b60405180910390fd5b819050919050565b505050565b6119b58383836119d5565b6119d06119c184610b31565b6119ca84610b31565b8361289c565b505050565b505050565b600081836119e89190613f9d565b905092915050565b600033905090565b600073ffffffffffffffffffffffffffffffffffffffff168373ffffffffffffffffffffffffffffffffffffffff161415611a68576040517f08c379a0000000000000000000000000000000000000000000000000000000008152600401611a5f90613c0f565b60405180910390fd5b600073ffffffffffffffffffffffffffffffffffffffff168273ffffffffffffffffffffffffffffffffffffffff161415611ad8576040517f08c379a0000000000000000000000000000000000000000000000000000000008152600401611acf90613a6f565b60405180910390fd5b80600160008573ffffffffffffffffffffffffffffffffffffffff1673ffffffffffffffffffffffffffffffffffffffff16815260200190815260200160002060008473ffffffffffffffffffffffffffffffffffffffff1673ffffffffffffffffffffffffffffffffffffffff168152602001908152602001600020819055508173ffffffffffffffffffffffffffffffffffffffff168373ffffffffffffffffffffffffffffffffffffffff167f8c5be1e5ebec7d5bd14f71427d1e84f3dd0314c0f7b2291e5b200ac8c7c3b92583604051611bb69190613caa565b60405180910390a3505050565b611bcd82826116e4565b5050565b6000611bdd848461142f565b90507fffffffffffffffffffffffffffffffffffffffffffffffffffffffffffffffff8114611c575781811015611c49576040517f08c379a0000000000000000000000000000000000000000000000000000000008152600401611c4090613a8f565b60405180910390fd5b611c5684848484036119f8565b5b50505050565b600073ffffffffffffffffffffffffffffffffffffffff168373ffffffffffffffffffffffffffffffffffffffff161415611ccd576040517f08c379a0000000000000000000000000000000000000000000000000000000008152600401611cc490613bcf565b60405180910390fd5b600073ffffffffffffffffffffffffffffffffffffffff168273ffffffffffffffffffffffffffffffffffffffff161415611d3d576040517f08c379a0000000000000000000000000000000000000000000000000000000008152600401611d349061396f565b60405180910390fd5b611d48838383612834565b60008060008573ffffffffffffffffffffffffffffffffffffffff1673ffffffffffffffffffffffffffffffffffffffff16815260200190815260200160002054905081811015611dce576040517f08c379a0000000000000000000000000000000000000000000000000000000008152600401611dc590613acf565b60405180910390fd5b8181036000808673ffffffffffffffffffffffffffffffffffffffff1673ffffffffffffffffffffffffffffffffffffffff16815260200190815260200160002081905550816000808573ffffffffffffffffffffffffffffffffffffffff1673ffffffffffffffffffffffffffffffffffffffff1681526020019081526020016000206000828254611e619190613d4b565b925050819055508273ffffffffffffffffffffffffffffffffffffffff168473ffffffffffffffffffffffffffffffffffffffff167fddf252ad1be2c89b69c2b068fc378daa952ba7f163c4a11628f55a4df523b3ef84604051611ec59190613caa565b60405180910390a3611ed884848461288c565b50505050565b60007f000000000000000000000000000000000000000000000000000000000000000073ffffffffffffffffffffffffffffffffffffffff163073ffffffffffffffffffffffffffffffffffffffff16148015611f5a57507f000000000000000000000000000000000000000000000000000000000000000046145b15611f87577f00000000000000000000000000000000000000000000000000000000000000009050611ff5565b611ff27f00000000000000000000000000000000000000000000000000000000000000007f00000000000000000000000000000000000000000000000000000000000000007f0000000000000000000000000000000000000000000000000000000000000000612a95565b90505b90565b6000808380549050905060005b8181101561209d5760006120198284612acf565b905084868281548110612055577f4e487b7100000000000000000000000000000000000000000000000000000000600052603260045260246000fd5b9060005260206000200160000160009054906101000a900463ffffffff1663ffffffff16111561208757809250612097565b6001816120949190613d4b565b91505b50612005565b6000821461212557846001836120b39190613f9d565b815481106120ea577f4e487b7100000000000000000000000000000000000000000000000000000000600052603260045260246000fd5b9060005260206000200160000160049054906101000a90047bffffffffffffffffffffffffffffffffffffffffffffffffffffffff16612128565b60005b7bffffffffffffffffffffffffffffffffffffffffffffffffffffffff169250505092915050565b612158610bae565b612197576040517f08c379a000000000000000000000000000000000000000000000000000000000815260040161218e906139af565b60405180910390fd5b6000600560006101000a81548160ff0219169083151502179055507f5db9ee0a495bf2e6ff9c91a7834c1ba4fdd244a5e8aa4e537bd38aeae4b073aa6121db6119f0565b6040516121e8919061379e565b60405180910390a1565b60006121fd83610b31565b9050600061220a84610c19565b905082600760008673ffffffffffffffffffffffffffffffffffffffff1673ffffffffffffffffffffffffffffffffffffffff16815260200190815260200160002060006101000a81548173ffffffffffffffffffffffffffffffffffffffff021916908373ffffffffffffffffffffffffffffffffffffffff1602179055508273ffffffffffffffffffffffffffffffffffffffff168273ffffffffffffffffffffffffffffffffffffffff168573ffffffffffffffffffffffffffffffffffffffff167f3134e8a2e6d97e929a7e54011ea5485d7d196dd5f0ba4d4ef95803e8e3fc257f60405160405180910390a461230682848361289c565b50505050565b6000600560019054906101000a900473ffffffffffffffffffffffffffffffffffffffff16905081600560016101000a81548173ffffffffffffffffffffffffffffffffffffffff021916908373ffffffffffffffffffffffffffffffffffffffff1602179055508173ffffffffffffffffffffffffffffffffffffffff168173ffffffffffffffffffffffffffffffffffffffff167f8be0079c531659141344cd1fd0a4f28419497f9722a3daafe3b4186f6b6457e060405160405180910390a35050565b600081600001549050919050565b6123e8610bae565b15612428576040517f08c379a000000000000000000000000000000000000000000000000000000000815260040161241f90613b0f565b60405180910390fd5b6001600560006101000a81548160ff0219169083151502179055507f62e78cea01bee320cd4e420270b5ea74000d11b0c9f74754ebdbfc544b05a25861246c6119f0565b604051612479919061379e565b60405180910390a1565b6000612496612490611ede565b83612af5565b9050919050565b60008060006124ae87878787612b28565b915091506124bb81612c35565b8192505050949350505050565b600080600660008473ffffffffffffffffffffffffffffffffffffffff1673ffffffffffffffffffffffffffffffffffffffff1681526020019081526020016000209050612515816123d2565b915061252081612f86565b50919050565b60007bffffffffffffffffffffffffffffffffffffffffffffffffffffffff905090565b600080600085805490509050600081146125de578560018261256c9190613f9d565b815481106125a3577f4e487b7100000000000000000000000000000000000000000000000000000000600052603260045260246000fd5b9060005260206000200160000160049054906101000a90047bffffffffffffffffffffffffffffffffffffffffffffffffffffffff166125e1565b60005b7bffffffffffffffffffffffffffffffffffffffffffffffffffffffff16925061260f83858763ffffffff16565b91506000811180156126885750438660018361262b9190613f9d565b81548110612662577f4e487b7100000000000000000000000000000000000000000000000000000000600052603260045260246000fd5b9060005260206000200160000160009054906101000a900463ffffffff1663ffffffff16145b1561273b57612696826118e7565b866001836126a49190613f9d565b815481106126db577f4e487b7100000000000000000000000000000000000000000000000000000000600052603260045260246000fd5b9060005260206000200160000160046101000a8154817bffffffffffffffffffffffffffffffffffffffffffffffffffffffff02191690837bffffffffffffffffffffffffffffffffffffffffffffffffffffffff16021790555061282b565b85604051806040016040528061275043611952565b63ffffffff168152602001612764856118e7565b7bffffffffffffffffffffffffffffffffffffffffffffffffffffffff168152509080600181540180825580915050600190039060005260206000200160009091909190915060008201518160000160006101000a81548163ffffffff021916908363ffffffff16021790555060208201518160000160046101000a8154817bffffffffffffffffffffffffffffffffffffffffffffffffffffffff02191690837bffffffffffffffffffffffffffffffffffffffffffffffffffffffff16021790555050505b50935093915050565b61283c610bae565b1561287c576040517f08c379a000000000000000000000000000000000000000000000000000000000815260040161287390613b0f565b60405180910390fd5b6128878383836119a5565b505050565b6128978383836119aa565b505050565b8173ffffffffffffffffffffffffffffffffffffffff168373ffffffffffffffffffffffffffffffffffffffff16141580156128d85750600081115b15612a9057600073ffffffffffffffffffffffffffffffffffffffff168373ffffffffffffffffffffffffffffffffffffffff16146129b65760008061295f600860008773ffffffffffffffffffffffffffffffffffffffff1673ffffffffffffffffffffffffffffffffffffffff1681526020019081526020016000206119da8561254a565b915091508473ffffffffffffffffffffffffffffffffffffffff167fdec2bacdd2f05b59de34da9b523dff8be42e5e38e818c82fdb0bae774387a72483836040516129ab929190613cc5565b60405180910390a250505b600073ffffffffffffffffffffffffffffffffffffffff168273ffffffffffffffffffffffffffffffffffffffff1614612a8f57600080612a38600860008673ffffffffffffffffffffffffffffffffffffffff1673ffffffffffffffffffffffffffffffffffffffff1681526020019081526020016000206118d18561254a565b915091508373ffffffffffffffffffffffffffffffffffffffff167fdec2bacdd2f05b59de34da9b523dff8be42e5e38e818c82fdb0bae774387a7248383604051612a84929190613cc5565b60405180910390a250505b5b505050565b60008383834630604051602001612ab0959493929190613895565b6040516020818303038152906040528051906020012090509392505050565b60006002828418612ae09190613da1565b828416612aed9190613d4b565b905092915050565b60008282604051602001612b0a929190613767565b60405160208183030381529060405280519060200120905092915050565b6000807f7fffffffffffffffffffffffffffffff5d576e7357a4501ddfe92f46681b20a08360001c1115612b63576000600391509150612c2c565b601b8560ff1614158015612b7b5750601c8560ff1614155b15612b8d576000600491509150612c2c565b600060018787878760405160008152602001604052604051612bb294939291906138e8565b6020604051602081039080840390855afa158015612bd4573d6000803e3d6000fd5b505050602060405103519050600073ffffffffffffffffffffffffffffffffffffffff168173ffffffffffffffffffffffffffffffffffffffff161415612c2357600060019250925050612c2c565b80600092509250505b94509492505050565b60006004811115612c6f577f4e487b7100000000000000000000000000000000000000000000000000000000600052602160045260246000fd5b816004811115612ca8577f4e487b7100000000000000000000000000000000000000000000000000000000600052602160045260246000fd5b1415612cb357612f83565b60016004811115612ced577f4e487b7100000000000000000000000000000000000000000000000000000000600052602160045260246000fd5b816004811115612d26577f4e487b7100000000000000000000000000000000000000000000000000000000600052602160045260246000fd5b1415612d67576040517f08c379a0000000000000000000000000000000000000000000000000000000008152600401612d5e9061394f565b60405180910390fd5b60026004811115612da1577f4e487b7100000000000000000000000000000000000000000000000000000000600052602160045260246000fd5b816004811115612dda577f4e487b7100000000000000000000000000000000000000000000000000000000600052602160045260246000fd5b1415612e1b576040517f08c379a0000000000000000000000000000000000000000000000000000000008152600401612e1290613a0f565b60405180910390fd5b60036004811115612e55577f4e487b7100000000000000000000000000000000000000000000000000000000600052602160045260246000fd5b816004811115612e8e577f4e487b7100000000000000000000000000000000000000000000000000000000600052602160045260246000fd5b1415612ecf576040517f08c379a0000000000000000000000000000000000000000000000000000000008152600401612ec690613aef565b60405180910390fd5b600480811115612f08577f4e487b7100000000000000000000000000000000000000000000000000000000600052602160045260246000fd5b816004811115612f41577f4e487b7100000000000000000000000000000000000000000000000000000000600052602160045260246000fd5b1415612f82576040517f08c379a0000000000000000000000000000000000000000000000000000000008152600401612f7990613b2f565b60405180910390fd5b5b50565b6001816000016000828254019250508190555050565b6040518060400160405280600063ffffffff16815260200160007bffffffffffffffffffffffffffffffffffffffffffffffffffffffff1681525090565b600081359050612fe98161479d565b92915050565b600081359050612ffe816147b4565b92915050565b600081359050613013816147cb565b92915050565b600081359050613028816147e2565b92915050565b60008135905061303d816147f9565b92915050565b60006020828403121561305557600080fd5b600061306384828501612fda565b91505092915050565b6000806040838503121561307f57600080fd5b600061308d85828601612fda565b925050602061309e85828601612fda565b9150509250929050565b6000806000606084860312156130bd57600080fd5b60006130cb86828701612fda565b93505060206130dc86828701612fda565b92505060406130ed86828701613004565b9150509250925092565b600080600080600080600060e0888a03121561311257600080fd5b60006131208a828b01612fda565b97505060206131318a828b01612fda565b96505060406131428a828b01613004565b95505060606131538a828b01613004565b94505060806131648a828b0161302e565b93505060a06131758a828b01612fef565b92505060c06131868a828b01612fef565b91505092959891949750929550565b600080604083850312156131a857600080fd5b60006131b685828601612fda565b92505060206131c785828601613004565b9150509250929050565b60008060008060008060c087890312156131ea57600080fd5b60006131f889828a01612fda565b965050602061320989828a01613004565b955050604061321a89828a01613004565b945050606061322b89828a0161302e565b935050608061323c89828a01612fef565b92505060a061324d89828a01612fef565b9150509295509295509295565b6000806040838503121561326d57600080fd5b600061327b85828601612fda565b925050602061328c85828601613019565b9150509250929050565b6000602082840312156132a857600080fd5b60006132b684828501613004565b91505092915050565b6132c881613fd1565b82525050565b6132d781613fe3565b82525050565b6132e681613fef565b82525050565b6132fd6132f882613fef565b6140cd565b82525050565b600061330e82613d24565b6133188185613d2f565b9350613328818560208601614068565b61333181614164565b840191505092915050565b6000613349601883613d2f565b915061335482614182565b602082019050919050565b600061336c602383613d2f565b9150613377826141ab565b604082019050919050565b600061338f601f83613d2f565b915061339a826141fa565b602082019050919050565b60006133b2601483613d2f565b91506133bd82614223565b602082019050919050565b60006133d5601983613d2f565b91506133e08261424c565b602082019050919050565b60006133f8601d83613d2f565b915061340382614275565b602082019050919050565b600061341b601f83613d2f565b91506134268261429e565b602082019050919050565b600061343e601983613d2f565b9150613449826142c7565b602082019050919050565b6000613461602683613d2f565b915061346c826142f0565b604082019050919050565b6000613484602283613d2f565b915061348f8261433f565b604082019050919050565b60006134a7600283613d40565b91506134b28261438e565b600282019050919050565b60006134ca601d83613d2f565b91506134d5826143b7565b602082019050919050565b60006134ed601d83613d2f565b91506134f8826143e0565b602082019050919050565b6000613510602683613d2f565b915061351b82614409565b604082019050919050565b6000613533602283613d2f565b915061353e82614458565b604082019050919050565b6000613556601083613d2f565b9150613561826144a7565b602082019050919050565b6000613579602283613d2f565b9150613584826144d0565b604082019050919050565b600061359c601e83613d2f565b91506135a78261451f565b602082019050919050565b60006135bf603083613d2f565b91506135ca82614548565b604082019050919050565b60006135e2602083613d2f565b91506135ed82614597565b602082019050919050565b6000613605602783613d2f565b9150613610826145c0565b604082019050919050565b6000613628602583613d2f565b91506136338261460f565b604082019050919050565b600061364b602683613d2f565b91506136568261465e565b604082019050919050565b600061366e602483613d2f565b9150613679826146ad565b604082019050919050565b6000613691601b83613d2f565b915061369c826146fc565b602082019050919050565b60006136b4602583613d2f565b91506136bf82614725565b604082019050919050565b60006136d7601f83613d2f565b91506136e282614774565b602082019050919050565b604082016000820151613703600085018261373a565b506020820151613716602085018261371c565b50505050565b61372581614019565b82525050565b61373481614041565b82525050565b6137438161404b565b82525050565b6137528161404b565b82525050565b6137618161405b565b82525050565b60006137728261349a565b915061377e82856132ec565b60208201915061378e82846132ec565b6020820191508190509392505050565b60006020820190506137b360008301846132bf565b92915050565b60006020820190506137ce60008301846132ce565b92915050565b60006020820190506137e960008301846132dd565b92915050565b600060c08201905061380460008301896132dd565b61381160208301886132bf565b61381e60408301876132bf565b61382b606083018661372b565b613838608083018561372b565b61384560a083018461372b565b979650505050505050565b600060808201905061386560008301876132dd565b61387260208301866132bf565b61387f604083018561372b565b61388c606083018461372b565b95945050505050565b600060a0820190506138aa60008301886132dd565b6138b760208301876132dd565b6138c460408301866132dd565b6138d1606083018561372b565b6138de60808301846132bf565b9695505050505050565b60006080820190506138fd60008301876132dd565b61390a6020830186613758565b61391760408301856132dd565b61392460608301846132dd565b95945050505050565b600060208201905081810360008301526139478184613303565b905092915050565b600060208201905081810360008301526139688161333c565b9050919050565b600060208201905081810360008301526139888161335f565b9050919050565b600060208201905081810360008301526139a881613382565b9050919050565b600060208201905081810360008301526139c8816133a5565b9050919050565b600060208201905081810360008301526139e8816133c8565b9050919050565b60006020820190508181036000830152613a08816133eb565b9050919050565b60006020820190508181036000830152613a288161340e565b9050919050565b60006020820190508181036000830152613a4881613431565b9050919050565b60006020820190508181036000830152613a6881613454565b9050919050565b60006020820190508181036000830152613a8881613477565b9050919050565b60006020820190508181036000830152613aa8816134bd565b9050919050565b60006020820190508181036000830152613ac8816134e0565b9050919050565b60006020820190508181036000830152613ae881613503565b9050919050565b60006020820190508181036000830152613b0881613526565b9050919050565b60006020820190508181036000830152613b2881613549565b9050919050565b60006020820190508181036000830152613b488161356c565b9050919050565b60006020820190508181036000830152613b688161358f565b9050919050565b60006020820190508181036000830152613b88816135b2565b9050919050565b60006020820190508181036000830152613ba8816135d5565b9050919050565b60006020820190508181036000830152613bc8816135f8565b9050919050565b60006020820190508181036000830152613be88161361b565b9050919050565b60006020820190508181036000830152613c088161363e565b9050919050565b60006020820190508181036000830152613c2881613661565b9050919050565b60006020820190508181036000830152613c4881613684565b9050919050565b60006020820190508181036000830152613c68816136a7565b9050919050565b60006020820190508181036000830152613c88816136ca565b9050919050565b6000604082019050613ca460008301846136ed565b92915050565b6000602082019050613cbf600083018461372b565b92915050565b6000604082019050613cda600083018561372b565b613ce7602083018461372b565b9392505050565b6000602082019050613d036000830184613749565b92915050565b6000602082019050613d1e6000830184613758565b92915050565b600081519050919050565b600082825260208201905092915050565b600081905092915050565b6000613d5682614041565b9150613d6183614041565b9250827fffffffffffffffffffffffffffffffffffffffffffffffffffffffffffffffff03821115613d9657613d956140d7565b5b828201905092915050565b6000613dac82614041565b9150613db783614041565b925082613dc757613dc6614106565b5b828204905092915050565b6000808291508390505b6001851115613e1c57808604811115613df857613df76140d7565b5b6001851615613e075780820291505b8081029050613e1585614175565b9450613ddc565b94509492505050565b6000613e3082614041565b9150613e3b8361405b565b9250613e687fffffffffffffffffffffffffffffffffffffffffffffffffffffffffffffffff8484613e70565b905092915050565b600082613e805760019050613f3c565b81613e8e5760009050613f3c565b8160018114613ea45760028114613eae57613edd565b6001915050613f3c565b60ff841115613ec057613ebf6140d7565b5b8360020a915084821115613ed757613ed66140d7565b5b50613f3c565b5060208310610133831016604e8410600b8410161715613f125782820a905083811115613f0d57613f0c6140d7565b5b613f3c565b613f1f8484846001613dd2565b92509050818404811115613f3657613f356140d7565b5b81810290505b9392505050565b6000613f4e82614041565b9150613f5983614041565b9250817fffffffffffffffffffffffffffffffffffffffffffffffffffffffffffffffff0483118215151615613f9257613f916140d7565b5b828202905092915050565b6000613fa882614041565b9150613fb383614041565b925082821015613fc657613fc56140d7565b5b828203905092915050565b6000613fdc82613ff9565b9050919050565b60008115159050919050565b6000819050919050565b600073ffffffffffffffffffffffffffffffffffffffff82169050919050565b60007bffffffffffffffffffffffffffffffffffffffffffffffffffffffff82169050919050565b6000819050919050565b600063ffffffff82169050919050565b600060ff82169050919050565b60005b8381101561408657808201518184015260208101905061406b565b83811115614095576000848401525b50505050565b600060028204905060018216806140b357607f821691505b602082108114156140c7576140c6614135565b5b50919050565b6000819050919050565b7f4e487b7100000000000000000000000000000000000000000000000000000000600052601160045260246000fd5b7f4e487b7100000000000000000000000000000000000000000000000000000000600052601260045260246000fd5b7f4e487b7100000000000000000000000000000000000000000000000000000000600052602260045260246000fd5b6000601f19601f8301169050919050565b60008160011c9050919050565b7f45434453413a20696e76616c6964207369676e61747572650000000000000000600082015250565b7f45524332303a207472616e7366657220746f20746865207a65726f206164647260008201527f6573730000000000000000000000000000000000000000000000000000000000602082015250565b7f4552433230566f7465733a20626c6f636b206e6f7420796574206d696e656400600082015250565b7f5061757361626c653a206e6f7420706175736564000000000000000000000000600082015250565b7f414d4f554e545f455843454544535f4d41585f535550504c5900000000000000600082015250565b7f4552433230566f7465733a207369676e61747572652065787069726564000000600082015250565b7f45434453413a20696e76616c6964207369676e6174757265206c656e67746800600082015250565b7f4552433230566f7465733a20696e76616c6964206e6f6e636500000000000000600082015250565b7f4f776e61626c653a206e6577206f776e657220697320746865207a65726f206160008201527f6464726573730000000000000000000000000000000000000000000000000000602082015250565b7f45524332303a20617070726f766520746f20746865207a65726f20616464726560008201527f7373000000000000000000000000000000000000000000000000000000000000602082015250565b7f1901000000000000000000000000000000000000000000000000000000000000600082015250565b7f45524332303a20696e73756666696369656e7420616c6c6f77616e6365000000600082015250565b7f45524332305065726d69743a206578706972656420646561646c696e65000000600082015250565b7f45524332303a207472616e7366657220616d6f756e742065786365656473206260008201527f616c616e63650000000000000000000000000000000000000000000000000000602082015250565b7f45434453413a20696e76616c6964207369676e6174757265202773272076616c60008201527f7565000000000000000000000000000000000000000000000000000000000000602082015250565b7f5061757361626c653a2070617573656400000000000000000000000000000000600082015250565b7f45434453413a20696e76616c6964207369676e6174757265202776272076616c60008201527f7565000000000000000000000000000000000000000000000000000000000000602082015250565b7f45524332305065726d69743a20696e76616c6964207369676e61747572650000600082015250565b7f4552433230566f7465733a20746f74616c20737570706c79207269736b73206f60008201527f766572666c6f77696e6720766f74657300000000000000000000000000000000602082015250565b7f4f776e61626c653a2063616c6c6572206973206e6f7420746865206f776e6572600082015250565b7f53616665436173743a2076616c756520646f65736e27742066697420696e203260008201527f3234206269747300000000000000000000000000000000000000000000000000602082015250565b7f45524332303a207472616e736665722066726f6d20746865207a65726f20616460008201527f6472657373000000000000000000000000000000000000000000000000000000602082015250565b7f53616665436173743a2076616c756520646f65736e27742066697420696e203360008201527f3220626974730000000000000000000000000000000000000000000000000000602082015250565b7f45524332303a20617070726f76652066726f6d20746865207a65726f2061646460008201527f7265737300000000000000000000000000000000000000000000000000000000602082015250565b7f4d494e494d554d5f544f4b454e5f50524943455f4e4f545f4d45540000000000600082015250565b7f45524332303a2064656372656173656420616c6c6f77616e63652062656c6f7760008201527f207a65726f000000000000000000000000000000000000000000000000000000602082015250565b7f45524332303a206d696e7420746f20746865207a65726f206164647265737300600082015250565b6147a681613fd1565b81146147b157600080fd5b50565b6147bd81613fef565b81146147c857600080fd5b50565b6147d481614041565b81146147df57600080fd5b50565b6147eb8161404b565b81146147f657600080fd5b50565b6148028161405b565b811461480d57600080fd5b5056fea26469706673582212201e1ad209d7d93a2640ab6a9cb92dc67090b61c7967ca23caa72a1da67e8ad73c64736f6c6343000804003360806040526001600360146101000a81548160ff02191690831515021790555030600560006101000a81548173ffffffffffffffffffffffffffffffffffffffff021916908373ffffffffffffffffffffffffffffffffffffffff160217905550604051806020016040528060008152506008908051906020019062000087929190620003fc565b506040518060200160405280600081525060099080519060200190620000af929190620003fc565b50633b9aca00600a556000600b55348015620000ca57600080fd5b5060405162005b1438038062005b148339818101604052810190620000f091906200051e565b604051806020016040528060008152506200011181620001f360201b60201c565b5062000132620001266200020f60201b60201c565b6200021760201b60201c565b33600460006101000a81548173ffffffffffffffffffffffffffffffffffffffff021916908373ffffffffffffffffffffffffffffffffffffffff16021790555081600790805190602001906200018b929190620003fc565b508060069080519060200190620001a4929190620003fc565b50620001eb6040518060400160405280600781526020017f697066733a2f2f00000000000000000000000000000000000000000000000000815250620002dd60201b60201c565b5050620007f4565b80600290805190602001906200020b929190620003fc565b5050565b600033905090565b6000600360009054906101000a900473ffffffffffffffffffffffffffffffffffffffff16905081600360006101000a81548173ffffffffffffffffffffffffffffffffffffffff021916908373ffffffffffffffffffffffffffffffffffffffff1602179055508173ffffffffffffffffffffffffffffffffffffffff168173ffffffffffffffffffffffffffffffffffffffff167f8be0079c531659141344cd1fd0a4f28419497f9722a3daafe3b4186f6b6457e060405160405180910390a35050565b620002ed6200020f60201b60201c565b73ffffffffffffffffffffffffffffffffffffffff1662000313620003d260201b60201c565b73ffffffffffffffffffffffffffffffffffffffff16146200036c576040517f08c379a000000000000000000000000000000000000000000000000000000000815260040162000363906200061d565b60405180910390fd5b6200037d81620001f360201b60201c565b806008908051906020019062000395929190620003fc565b507f199e933997358e1789d8b56ea8c551befeb05ce2fe3fe506199f1230f5a591b481604051620003c79190620005f9565b60405180910390a150565b6000600360009054906101000a900473ffffffffffffffffffffffffffffffffffffffff16905090565b8280546200040a90620006f0565b90600052602060002090601f0160209004810192826200042e57600085556200047a565b82601f106200044957805160ff19168380011785556200047a565b828001600101855582156200047a579182015b82811115620004795782518255916020019190600101906200045c565b5b5090506200048991906200048d565b5090565b5b80821115620004a85760008160009055506001016200048e565b5090565b6000620004c3620004bd8462000668565b6200063f565b905082815260208101848484011115620004dc57600080fd5b620004e9848285620006ba565b509392505050565b600082601f8301126200050357600080fd5b815162000515848260208601620004ac565b91505092915050565b600080604083850312156200053257600080fd5b600083015167ffffffffffffffff8111156200054d57600080fd5b6200055b85828601620004f1565b925050602083015167ffffffffffffffff8111156200057957600080fd5b6200058785828601620004f1565b9150509250929050565b60006200059e826200069e565b620005aa8185620006a9565b9350620005bc818560208601620006ba565b620005c781620007ba565b840191505092915050565b6000620005e1602083620006a9565b9150620005ee82620007cb565b602082019050919050565b6000602082019050818103600083015262000615818462000591565b905092915050565b600060208201905081810360008301526200063881620005d2565b9050919050565b60006200064b6200065e565b905062000659828262000726565b919050565b6000604051905090565b600067ffffffffffffffff8211156200068657620006856200078b565b5b6200069182620007ba565b9050602081019050919050565b600081519050919050565b600082825260208201905092915050565b60005b83811015620006da578082015181840152602081019050620006bd565b83811115620006ea576000848401525b50505050565b600060028204905060018216806200070957607f821691505b6020821081141562000720576200071f6200075c565b5b50919050565b6200073182620007ba565b810181811067ffffffffffffffff821117156200075357620007526200078b565b5b80604052505050565b7f4e487b7100000000000000000000000000000000000000000000000000000000600052602260045260246000fd5b7f4e487b7100000000000000000000000000000000000000000000000000000000600052604160045260246000fd5b6000601f19601f8301169050919050565b7f4f776e61626c653a2063616c6c6572206973206e6f7420746865206f776e6572600082015250565b61531080620008046000396000f3fe6080604052600436106101b55760003560e01c80636ff97f1d116100ec578063caa0f92a1161008a578063e985e9c511610064578063e985e9c514610618578063f1fffdcb14610655578063f242432a14610680578063f2fde38b146106a9576101b5565b8063caa0f92a14610597578063d547cfb7146105c2578063e8a3d485146105ed576101b5565b80638da5cb5b116100c65780638da5cb5b146104ef578063938e3d7b1461051a57806395d89b4114610543578063a22cb4651461056e576101b5565b80636ff97f1d14610482578063715018a6146104ad5780637e1c0c09146104c4576101b5565b80632eb2c2d6116101595780634e1273f4116101335780634e1273f4146103bc5780634f64b2be146103f95780635c975abb1461043b5780636289fa6114610466576101b5565b80632eb2c2d61461032d57806330176e131461035657806339c7639c1461037f576101b5565b806306fdde031161019557806306fdde03146102715780630e89341c1461029c57806316c38b3c146102d957806318160ddd14610302576101b5565b8062923f9e146101ba578062fdd58e146101f757806301ffc9a714610234575b600080fd5b3480156101c657600080fd5b506101e160048036038101906101dc9190613bcd565b6106d2565b6040516101ee9190614462565b60405180910390f35b34801561020357600080fd5b5061021e60048036038101906102199190613a69565b610944565b60405161022b9190614805565b60405180910390f35b34801561024057600080fd5b5061025b60048036038101906102569190613b3a565b610a0d565b6040516102689190614462565b60405180910390f35b34801561027d57600080fd5b50610286610aef565b604051610293919061447d565b60405180910390f35b3480156102a857600080fd5b506102c360048036038101906102be9190613bcd565b610b7d565b6040516102d0919061447d565b60405180910390f35b3480156102e557600080fd5b5061030060048036038101906102fb9190613b11565b610c52565b005b34801561030e57600080fd5b50610317610d78565b6040516103249190614805565b60405180910390f35b34801561033957600080fd5b50610354600480360381019061034f91906138df565b610d7e565b005b34801561036257600080fd5b5061037d60048036038101906103789190613b8c565b610e1f565b005b34801561038b57600080fd5b506103a660048036038101906103a19190613bcd565b610ef5565b6040516103b39190614462565b60405180910390f35b3480156103c857600080fd5b506103e360048036038101906103de9190613aa5565b610f63565b6040516103f09190614409565b60405180910390f35b34801561040557600080fd5b50610420600480360381019061041b9190613bcd565b611114565b604051610432969594939291906144d6565b60405180910390f35b34801561044757600080fd5b506104506112c0565b60405161045d9190614462565b60405180910390f35b610480600480360381019061047b9190613bf6565b6112d3565b005b34801561048e57600080fd5b50610497611361565b6040516104a491906143e7565b60405180910390f35b3480156104b957600080fd5b506104c26116a9565b005b3480156104d057600080fd5b506104d9611731565b6040516104e69190614805565b60405180910390f35b3480156104fb57600080fd5b50610504611737565b604051610511919061430a565b60405180910390f35b34801561052657600080fd5b50610541600480360381019061053c9190613b8c565b611761565b005b34801561054f57600080fd5b5061055861182e565b604051610565919061447d565b60405180910390f35b34801561057a57600080fd5b5061059560048036038101906105909190613a2d565b6118bc565b005b3480156105a357600080fd5b506105ac6118d2565b6040516105b99190614805565b60405180910390f35b3480156105ce57600080fd5b506105d76118e8565b6040516105e4919061447d565b60405180910390f35b3480156105f957600080fd5b50610602611976565b60405161060f919061447d565b60405180910390f35b34801561062457600080fd5b5061063f600480360381019061063a91906138a3565b611a04565b60405161064c9190614462565b60405180910390f35b34801561066157600080fd5b5061066a611a98565b604051610677919061430a565b60405180910390f35b34801561068c57600080fd5b506106a760048036038101906106a2919061399e565b611abe565b005b3480156106b557600080fd5b506106d060048036038101906106cb919061387a565b611ec9565b005b600080600c60008481526020019081526020016000206040518060c001604052908160008201805461070390614b21565b80601f016020809104026020016040519081016040528092919081815260200182805461072f90614b21565b801561077c5780601f106107515761010080835404028352916020019161077c565b820191906000526020600020905b81548152906001019060200180831161075f57829003601f168201915b5050505050815260200160018201805461079590614b21565b80601f01602080910402602001604051908101604052809291908181526020018280546107c190614b21565b801561080e5780601f106107e35761010080835404028352916020019161080e565b820191906000526020600020905b8154815290600101906020018083116107f157829003601f168201915b505050505081526020016002820160009054906101000a900473ffffffffffffffffffffffffffffffffffffffff1673ffffffffffffffffffffffffffffffffffffffff1673ffffffffffffffffffffffffffffffffffffffff1681526020016003820160009054906101000a900473ffffffffffffffffffffffffffffffffffffffff1673ffffffffffffffffffffffffffffffffffffffff1673ffffffffffffffffffffffffffffffffffffffff1681526020016004820160009054906101000a900473ffffffffffffffffffffffffffffffffffffffff1673ffffffffffffffffffffffffffffffffffffffff1673ffffffffffffffffffffffffffffffffffffffff168152602001600582015481525050905060008160a0015111801561093c5750828160a00151145b915050919050565b60008073ffffffffffffffffffffffffffffffffffffffff168373ffffffffffffffffffffffffffffffffffffffff1614156109b5576040517f08c379a00000000000000000000000000000000000000000000000000000000081526004016109ac906145a5565b60405180910390fd5b60008083815260200190815260200160002060008473ffffffffffffffffffffffffffffffffffffffff1673ffffffffffffffffffffffffffffffffffffffff16815260200190815260200160002054905092915050565b60007fd9b67a26000000000000000000000000000000000000000000000000000000007bffffffffffffffffffffffffffffffffffffffffffffffffffffffff1916827bffffffffffffffffffffffffffffffffffffffffffffffffffffffff19161480610ad857507f0e89341c000000000000000000000000000000000000000000000000000000007bffffffffffffffffffffffffffffffffffffffffffffffffffffffff1916827bffffffffffffffffffffffffffffffffffffffffffffffffffffffff1916145b80610ae85750610ae782611fc1565b5b9050919050565b60078054610afc90614b21565b80601f0160208091040260200160405190810160405280929190818152602001828054610b2890614b21565b8015610b755780601f10610b4a57610100808354040283529160200191610b75565b820191906000526020600020905b815481529060010190602001808311610b5857829003601f168201915b505050505081565b6060610b88826106d2565b610ba357604051806020016040528060008152509050610c4d565b610c4a600c60008481526020019081526020016000206000018054610bc790614b21565b80601f0160208091040260200160405190810160405280929190818152602001828054610bf390614b21565b8015610c405780601f10610c1557610100808354040283529160200191610c40565b820191906000526020600020905b815481529060010190602001808311610c2357829003601f168201915b505050505061202b565b90505b919050565b610c5a612057565b73ffffffffffffffffffffffffffffffffffffffff16610c78611737565b73ffffffffffffffffffffffffffffffffffffffff1614610cce576040517f08c379a0000000000000000000000000000000000000000000000000000000008152600401610cc5906146e5565b60405180910390fd5b600360149054906101000a900460ff1615158115151415610d24576040517f08c379a0000000000000000000000000000000000000000000000000000000008152600401610d1b906146a5565b60405180910390fd5b80600360146101000a81548160ff0219169083151502179055507f3c70af01296aef045b2f5c9d3c30b05d4428fd257145b9c7fcd76418e65b598081604051610d6d9190614462565b60405180910390a150565b600a5481565b610d86612057565b73ffffffffffffffffffffffffffffffffffffffff168573ffffffffffffffffffffffffffffffffffffffff161480610dcc5750610dcb85610dc6612057565b611a04565b5b610e0b576040517f08c379a0000000000000000000000000000000000000000000000000000000008152600401610e0290614685565b60405180910390fd5b610e18858585858561205f565b5050505050565b610e27612057565b73ffffffffffffffffffffffffffffffffffffffff16610e45611737565b73ffffffffffffffffffffffffffffffffffffffff1614610e9b576040517f08c379a0000000000000000000000000000000000000000000000000000000008152600401610e92906146e5565b60405180910390fd5b610ea4816123bf565b8060089080519060200190610eba9291906134fa565b507f199e933997358e1789d8b56ea8c551befeb05ce2fe3fe506199f1230f5a591b481604051610eea919061447d565b60405180910390a150565b60003373ffffffffffffffffffffffffffffffffffffffff16600c600084815260200190815260200160002060040160009054906101000a900473ffffffffffffffffffffffffffffffffffffffff1673ffffffffffffffffffffffffffffffffffffffff16149050919050565b60608151835114610fa9576040517f08c379a0000000000000000000000000000000000000000000000000000000008152600401610fa090614785565b60405180910390fd5b6000835167ffffffffffffffff811115610fec577f4e487b7100000000000000000000000000000000000000000000000000000000600052604160045260246000fd5b60405190808252806020026020018201604052801561101a5781602001602082028036833780820191505090505b50905060005b8451811015611109576110b3858281518110611065577f4e487b7100000000000000000000000000000000000000000000000000000000600052603260045260246000fd5b60200260200101518583815181106110a6577f4e487b7100000000000000000000000000000000000000000000000000000000600052603260045260246000fd5b6020026020010151610944565b8282815181106110ec577f4e487b7100000000000000000000000000000000000000000000000000000000600052603260045260246000fd5b6020026020010181815250508061110290614b84565b9050611020565b508091505092915050565b600c60205280600052604060002060009150905080600001805461113790614b21565b80601f016020809104026020016040519081016040528092919081815260200182805461116390614b21565b80156111b05780601f10611185576101008083540402835291602001916111b0565b820191906000526020600020905b81548152906001019060200180831161119357829003601f168201915b5050505050908060010180546111c590614b21565b80601f01602080910402602001604051908101604052809291908181526020018280546111f190614b21565b801561123e5780601f106112135761010080835404028352916020019161123e565b820191906000526020600020905b81548152906001019060200180831161122157829003601f168201915b5050505050908060020160009054906101000a900473ffffffffffffffffffffffffffffffffffffffff16908060030160009054906101000a900473ffffffffffffffffffffffffffffffffffffffff16908060040160009054906101000a900473ffffffffffffffffffffffffffffffffffffffff16908060050154905086565b600360149054906101000a900460ff1681565b6112db612057565b73ffffffffffffffffffffffffffffffffffffffff166112f9611737565b73ffffffffffffffffffffffffffffffffffffffff161461134f576040517f08c379a0000000000000000000000000000000000000000000000000000000008152600401611346906146e5565b60405180910390fd5b61135b848484846123d9565b50505050565b60606000600b5467ffffffffffffffff8111156113a7577f4e487b7100000000000000000000000000000000000000000000000000000000600052604160045260246000fd5b6040519080825280602002602001820160405280156113e057816020015b6113cd613580565b8152602001906001900390816113c55790505b50905060005b600b548110156116a157600c60006001836114019190614a03565b81526020019081526020016000206040518060c001604052908160008201805461142a90614b21565b80601f016020809104026020016040519081016040528092919081815260200182805461145690614b21565b80156114a35780601f10611478576101008083540402835291602001916114a3565b820191906000526020600020905b81548152906001019060200180831161148657829003601f168201915b505050505081526020016001820180546114bc90614b21565b80601f01602080910402602001604051908101604052809291908181526020018280546114e890614b21565b80156115355780601f1061150a57610100808354040283529160200191611535565b820191906000526020600020905b81548152906001019060200180831161151857829003601f168201915b505050505081526020016002820160009054906101000a900473ffffffffffffffffffffffffffffffffffffffff1673ffffffffffffffffffffffffffffffffffffffff1673ffffffffffffffffffffffffffffffffffffffff1681526020016003820160009054906101000a900473ffffffffffffffffffffffffffffffffffffffff1673ffffffffffffffffffffffffffffffffffffffff1673ffffffffffffffffffffffffffffffffffffffff1681526020016004820160009054906101000a900473ffffffffffffffffffffffffffffffffffffffff1673ffffffffffffffffffffffffffffffffffffffff1673ffffffffffffffffffffffffffffffffffffffff168152602001600582015481525050828281518110611683577f4e487b7100000000000000000000000000000000000000000000000000000000600052603260045260246000fd5b6020026020010181905250808061169990614b84565b9150506113e6565b508091505090565b6116b1612057565b73ffffffffffffffffffffffffffffffffffffffff166116cf611737565b73ffffffffffffffffffffffffffffffffffffffff1614611725576040517f08c379a000000000000000000000000000000000000000000000000000000000815260040161171c906146e5565b60405180910390fd5b61172f600061294f565b565b600b5481565b6000600360009054906101000a900473ffffffffffffffffffffffffffffffffffffffff16905090565b611769612057565b73ffffffffffffffffffffffffffffffffffffffff16611787611737565b73ffffffffffffffffffffffffffffffffffffffff16146117dd576040517f08c379a00000000000000000000000000000000000000000000000000000000081526004016117d4906146e5565b60405180910390fd5b80600990805190602001906117f39291906134fa565b507f5ca9f750836b0b7efdace104f07b5c9f0df0650c0fd24f5163e99044ae36ea5281604051611823919061447d565b60405180910390a150565b6006805461183b90614b21565b80601f016020809104026020016040519081016040528092919081815260200182805461186790614b21565b80156118b45780601f10611889576101008083540402835291602001916118b4565b820191906000526020600020905b81548152906001019060200180831161189757829003601f168201915b505050505081565b6118ce6118c7612057565b8383612a15565b5050565b60006001600b546118e39190614a03565b905090565b600880546118f590614b21565b80601f016020809104026020016040519081016040528092919081815260200182805461192190614b21565b801561196e5780601f106119435761010080835404028352916020019161196e565b820191906000526020600020905b81548152906001019060200180831161195157829003601f168201915b505050505081565b6009805461198390614b21565b80601f01602080910402602001604051908101604052809291908181526020018280546119af90614b21565b80156119fc5780601f106119d1576101008083540402835291602001916119fc565b820191906000526020600020905b8154815290600101906020018083116119df57829003601f168201915b505050505081565b6000600160008473ffffffffffffffffffffffffffffffffffffffff1673ffffffffffffffffffffffffffffffffffffffff16815260200190815260200160002060008373ffffffffffffffffffffffffffffffffffffffff1673ffffffffffffffffffffffffffffffffffffffff16815260200190815260200160002060009054906101000a900460ff16905092915050565b600460009054906101000a900473ffffffffffffffffffffffffffffffffffffffff1681565b611acb8585858585612b82565b6000600c60008581526020019081526020016000206040518060c0016040529081600082018054611afb90614b21565b80601f0160208091040260200160405190810160405280929190818152602001828054611b2790614b21565b8015611b745780601f10611b4957610100808354040283529160200191611b74565b820191906000526020600020905b815481529060010190602001808311611b5757829003601f168201915b50505050508152602001600182018054611b8d90614b21565b80601f0160208091040260200160405190810160405280929190818152602001828054611bb990614b21565b8015611c065780601f10611bdb57610100808354040283529160200191611c06565b820191906000526020600020905b815481529060010190602001808311611be957829003601f168201915b505050505081526020016002820160009054906101000a900473ffffffffffffffffffffffffffffffffffffffff1673ffffffffffffffffffffffffffffffffffffffff1673ffffffffffffffffffffffffffffffffffffffff1681526020016003820160009054906101000a900473ffffffffffffffffffffffffffffffffffffffff1673ffffffffffffffffffffffffffffffffffffffff1673ffffffffffffffffffffffffffffffffffffffff1681526020016004820160009054906101000a900473ffffffffffffffffffffffffffffffffffffffff1673ffffffffffffffffffffffffffffffffffffffff1673ffffffffffffffffffffffffffffffffffffffff16815260200160058201548152505090508060800151816040019073ffffffffffffffffffffffffffffffffffffffff16908173ffffffffffffffffffffffffffffffffffffffff168152505084816080019073ffffffffffffffffffffffffffffffffffffffff16908173ffffffffffffffffffffffffffffffffffffffff168152505080600c60008681526020019081526020016000206000820151816000019080519060200190611dc19291906134fa565b506020820151816001019080519060200190611dde9291906134fa565b5060408201518160020160006101000a81548173ffffffffffffffffffffffffffffffffffffffff021916908373ffffffffffffffffffffffffffffffffffffffff16021790555060608201518160030160006101000a81548173ffffffffffffffffffffffffffffffffffffffff021916908373ffffffffffffffffffffffffffffffffffffffff16021790555060808201518160040160006101000a81548173ffffffffffffffffffffffffffffffffffffffff021916908373ffffffffffffffffffffffffffffffffffffffff16021790555060a08201518160050155905050505050505050565b611ed1612057565b73ffffffffffffffffffffffffffffffffffffffff16611eef611737565b73ffffffffffffffffffffffffffffffffffffffff1614611f45576040517f08c379a0000000000000000000000000000000000000000000000000000000008152600401611f3c906146e5565b60405180910390fd5b600073ffffffffffffffffffffffffffffffffffffffff168173ffffffffffffffffffffffffffffffffffffffff161415611fb5576040517f08c379a0000000000000000000000000000000000000000000000000000000008152600401611fac906145c5565b60405180910390fd5b611fbe8161294f565b50565b60007f01ffc9a7000000000000000000000000000000000000000000000000000000007bffffffffffffffffffffffffffffffffffffffffffffffffffffffff1916827bffffffffffffffffffffffffffffffffffffffffffffffffffffffff1916149050919050565b60606008826040516020016120419291906142e6565b6040516020818303038152906040529050919050565b600033905090565b81518351146120a3576040517f08c379a000000000000000000000000000000000000000000000000000000000815260040161209a906147a5565b60405180910390fd5b600073ffffffffffffffffffffffffffffffffffffffff168473ffffffffffffffffffffffffffffffffffffffff161415612113576040517f08c379a000000000000000000000000000000000000000000000000000000000815260040161210a90614665565b60405180910390fd5b600061211d612057565b905061212d818787878787612c23565b60005b845181101561232a576000858281518110612174577f4e487b7100000000000000000000000000000000000000000000000000000000600052603260045260246000fd5b6020026020010151905060008583815181106121b9577f4e487b7100000000000000000000000000000000000000000000000000000000600052603260045260246000fd5b60200260200101519050600080600084815260200190815260200160002060008b73ffffffffffffffffffffffffffffffffffffffff1673ffffffffffffffffffffffffffffffffffffffff1681526020019081526020016000205490508181101561225a576040517f08c379a0000000000000000000000000000000000000000000000000000000008152600401612251906146c5565b60405180910390fd5b81810360008085815260200190815260200160002060008c73ffffffffffffffffffffffffffffffffffffffff1673ffffffffffffffffffffffffffffffffffffffff168152602001908152602001600020819055508160008085815260200190815260200160002060008b73ffffffffffffffffffffffffffffffffffffffff1673ffffffffffffffffffffffffffffffffffffffff168152602001908152602001600020600082825461230f9190614a03565b925050819055505050508061232390614b84565b9050612130565b508473ffffffffffffffffffffffffffffffffffffffff168673ffffffffffffffffffffffffffffffffffffffff168273ffffffffffffffffffffffffffffffffffffffff167f4a39dc06d4c0dbc64b70af90fd698a233a518aa5d07e595d983b8c0526c8f7fb87876040516123a192919061442b565b60405180910390a46123b7818787878787612c2b565b505050505050565b80600290805190602001906123d59291906134fa565b5050565b600360149054906101000a900460ff1615612429576040517f08c379a0000000000000000000000000000000000000000000000000000000008152600401612420906145e5565b60405180910390fd5b60011515612436856106d2565b15151415612479576040517f08c379a000000000000000000000000000000000000000000000000000000000815260040161247090614625565b60405180910390fd5b60011515600e8360405161248d91906142cf565b908152602001604051809103902060009054906101000a900460ff16151514156124ec576040517f08c379a00000000000000000000000000000000000000000000000000000000081526004016124e3906147e5565b60405180910390fd5b6001600b546124fb9190614a03565b841461253c576040517f08c379a000000000000000000000000000000000000000000000000000000000815260040161253390614725565b60405180910390fd5b600082511415612581576040517f08c379a000000000000000000000000000000000000000000000000000000000815260040161257890614745565b60405180910390fd5b6000815114156125c6576040517f08c379a00000000000000000000000000000000000000000000000000000000081526004016125bd90614585565b60405180910390fd5b60011515600d826040516125da91906142cf565b908152602001604051809103902060009054906101000a900460ff1615151415612639576040517f08c379a000000000000000000000000000000000000000000000000000000000815260040161263090614705565b60405180910390fd5b600a5484111561267e576040517f08c379a000000000000000000000000000000000000000000000000000000000815260040161267590614605565b60405180910390fd5b61269a8385600160405180602001604052806000815250612e12565b83600b819055506001600e836040516126b391906142cf565b908152602001604051809103902060006101000a81548160ff0219169083151502179055506001600d826040516126ea91906142cf565b908152602001604051809103902060006101000a81548160ff02191690831515021790555060006040518060c00160405280848152602001838152602001600073ffffffffffffffffffffffffffffffffffffffff1681526020013373ffffffffffffffffffffffffffffffffffffffff1681526020018573ffffffffffffffffffffffffffffffffffffffff16815260200186815250905080600c600087815260200190815260200160002060008201518160000190805190602001906127b39291906134fa565b5060208201518160010190805190602001906127d09291906134fa565b5060408201518160020160006101000a81548173ffffffffffffffffffffffffffffffffffffffff021916908373ffffffffffffffffffffffffffffffffffffffff16021790555060608201518160030160006101000a81548173ffffffffffffffffffffffffffffffffffffffff021916908373ffffffffffffffffffffffffffffffffffffffff16021790555060808201518160040160006101000a81548173ffffffffffffffffffffffffffffffffffffffff021916908373ffffffffffffffffffffffffffffffffffffffff16021790555060a08201518160050155905050847fa109ba539900bf1b633f956d63c96fc89b814c7287f7aa50a9216d0b556572076128de8561202b565b6040516128eb919061447d565b60405180910390a2806080015173ffffffffffffffffffffffffffffffffffffffff16857fc2f71934c9fa401acb377735eaaf77040e19379c58b7963abdbd7a3ed621eec0858560405161294092919061449f565b60405180910390a35050505050565b6000600360009054906101000a900473ffffffffffffffffffffffffffffffffffffffff16905081600360006101000a81548173ffffffffffffffffffffffffffffffffffffffff021916908373ffffffffffffffffffffffffffffffffffffffff1602179055508173ffffffffffffffffffffffffffffffffffffffff168173ffffffffffffffffffffffffffffffffffffffff167f8be0079c531659141344cd1fd0a4f28419497f9722a3daafe3b4186f6b6457e060405160405180910390a35050565b8173ffffffffffffffffffffffffffffffffffffffff168373ffffffffffffffffffffffffffffffffffffffff161415612a84576040517f08c379a0000000000000000000000000000000000000000000000000000000008152600401612a7b90614765565b60405180910390fd5b80600160008573ffffffffffffffffffffffffffffffffffffffff1673ffffffffffffffffffffffffffffffffffffffff16815260200190815260200160002060008473ffffffffffffffffffffffffffffffffffffffff1673ffffffffffffffffffffffffffffffffffffffff16815260200190815260200160002060006101000a81548160ff0219169083151502179055508173ffffffffffffffffffffffffffffffffffffffff168373ffffffffffffffffffffffffffffffffffffffff167f17307eab39ab6107e8899845ad3d59bd9653f200f220920489ca2b5937696c3183604051612b759190614462565b60405180910390a3505050565b612b8a612057565b73ffffffffffffffffffffffffffffffffffffffff168573ffffffffffffffffffffffffffffffffffffffff161480612bd05750612bcf85612bca612057565b611a04565b5b612c0f576040517f08c379a0000000000000000000000000000000000000000000000000000000008152600401612c0690614645565b60405180910390fd5b612c1c8585858585612fa8565b5050505050565b505050505050565b612c4a8473ffffffffffffffffffffffffffffffffffffffff1661322a565b15612e0a578373ffffffffffffffffffffffffffffffffffffffff1663bc197c8187878686866040518663ffffffff1660e01b8152600401612c90959493929190614325565b602060405180830381600087803b158015612caa57600080fd5b505af1925050508015612cdb57506040513d601f19601f82011682018060405250810190612cd89190613b63565b60015b612d8157612ce7614c5a565b806308c379a01415612d445750612cfc6151e8565b80612d075750612d46565b806040517f08c379a0000000000000000000000000000000000000000000000000000000008152600401612d3b919061447d565b60405180910390fd5b505b6040517f08c379a0000000000000000000000000000000000000000000000000000000008152600401612d7890614545565b60405180910390fd5b63bc197c8160e01b7bffffffffffffffffffffffffffffffffffffffffffffffffffffffff1916817bffffffffffffffffffffffffffffffffffffffffffffffffffffffff191614612e08576040517f08c379a0000000000000000000000000000000000000000000000000000000008152600401612dff90614565565b60405180910390fd5b505b505050505050565b600073ffffffffffffffffffffffffffffffffffffffff168473ffffffffffffffffffffffffffffffffffffffff161415612e82576040517f08c379a0000000000000000000000000000000000000000000000000000000008152600401612e79906147c5565b60405180910390fd5b6000612e8c612057565b9050612ead81600087612e9e8861324d565b612ea78861324d565b87612c23565b8260008086815260200190815260200160002060008773ffffffffffffffffffffffffffffffffffffffff1673ffffffffffffffffffffffffffffffffffffffff1681526020019081526020016000206000828254612f0c9190614a03565b925050819055508473ffffffffffffffffffffffffffffffffffffffff16600073ffffffffffffffffffffffffffffffffffffffff168273ffffffffffffffffffffffffffffffffffffffff167fc3d58168c5ae7397731d063d5bbf3d657854427343f4c083240f7aacaa2d0f628787604051612f8a929190614820565b60405180910390a4612fa181600087878787613313565b5050505050565b600073ffffffffffffffffffffffffffffffffffffffff168473ffffffffffffffffffffffffffffffffffffffff161415613018576040517f08c379a000000000000000000000000000000000000000000000000000000000815260040161300f90614665565b60405180910390fd5b6000613022612057565b90506130428187876130338861324d565b61303c8861324d565b87612c23565b600080600086815260200190815260200160002060008873ffffffffffffffffffffffffffffffffffffffff1673ffffffffffffffffffffffffffffffffffffffff168152602001908152602001600020549050838110156130d9576040517f08c379a00000000000000000000000000000000000000000000000000000000081526004016130d0906146c5565b60405180910390fd5b83810360008087815260200190815260200160002060008973ffffffffffffffffffffffffffffffffffffffff1673ffffffffffffffffffffffffffffffffffffffff168152602001908152602001600020819055508360008087815260200190815260200160002060008873ffffffffffffffffffffffffffffffffffffffff1673ffffffffffffffffffffffffffffffffffffffff168152602001908152602001600020600082825461318e9190614a03565b925050819055508573ffffffffffffffffffffffffffffffffffffffff168773ffffffffffffffffffffffffffffffffffffffff168373ffffffffffffffffffffffffffffffffffffffff167fc3d58168c5ae7397731d063d5bbf3d657854427343f4c083240f7aacaa2d0f62888860405161320b929190614820565b60405180910390a4613221828888888888613313565b50505050505050565b6000808273ffffffffffffffffffffffffffffffffffffffff163b119050919050565b60606000600167ffffffffffffffff811115613292577f4e487b7100000000000000000000000000000000000000000000000000000000600052604160045260246000fd5b6040519080825280602002602001820160405280156132c05781602001602082028036833780820191505090505b50905082816000815181106132fe577f4e487b7100000000000000000000000000000000000000000000000000000000600052603260045260246000fd5b60200260200101818152505080915050919050565b6133328473ffffffffffffffffffffffffffffffffffffffff1661322a565b156134f2578373ffffffffffffffffffffffffffffffffffffffff1663f23a6e6187878686866040518663ffffffff1660e01b815260040161337895949392919061438d565b602060405180830381600087803b15801561339257600080fd5b505af19250505080156133c357506040513d601f19601f820116820180604052508101906133c09190613b63565b60015b613469576133cf614c5a565b806308c379a0141561342c57506133e46151e8565b806133ef575061342e565b806040517f08c379a0000000000000000000000000000000000000000000000000000000008152600401613423919061447d565b60405180910390fd5b505b6040517f08c379a000000000000000000000000000000000000000000000000000000000815260040161346090614545565b60405180910390fd5b63f23a6e6160e01b7bffffffffffffffffffffffffffffffffffffffffffffffffffffffff1916817bffffffffffffffffffffffffffffffffffffffffffffffffffffffff1916146134f0576040517f08c379a00000000000000000000000000000000000000000000000000000000081526004016134e790614565565b60405180910390fd5b505b505050505050565b82805461350690614b21565b90600052602060002090601f016020900481019282613528576000855561356f565b82601f1061354157805160ff191683800117855561356f565b8280016001018555821561356f579182015b8281111561356e578251825591602001919060010190613553565b5b50905061357c91906135f8565b5090565b6040518060c001604052806060815260200160608152602001600073ffffffffffffffffffffffffffffffffffffffff168152602001600073ffffffffffffffffffffffffffffffffffffffff168152602001600073ffffffffffffffffffffffffffffffffffffffff168152602001600081525090565b5b808211156136115760008160009055506001016135f9565b5090565b60006136286136238461486e565b614849565b9050808382526020820190508285602086028201111561364757600080fd5b60005b85811015613677578161365d8882613769565b84526020840193506020830192505060018101905061364a565b5050509392505050565b600061369461368f8461489a565b614849565b905080838252602082019050828560208602820111156136b357600080fd5b60005b858110156136e357816136c98882613865565b8452602084019350602083019250506001810190506136b6565b5050509392505050565b60006137006136fb846148c6565b614849565b90508281526020810184848401111561371857600080fd5b613723848285614adf565b509392505050565b600061373e613739846148f7565b614849565b90508281526020810184848401111561375657600080fd5b613761848285614adf565b509392505050565b6000813590506137788161527e565b92915050565b600082601f83011261378f57600080fd5b813561379f848260208601613615565b91505092915050565b600082601f8301126137b957600080fd5b81356137c9848260208601613681565b91505092915050565b6000813590506137e181615295565b92915050565b6000813590506137f6816152ac565b92915050565b60008151905061380b816152ac565b92915050565b600082601f83011261382257600080fd5b81356138328482602086016136ed565b91505092915050565b600082601f83011261384c57600080fd5b813561385c84826020860161372b565b91505092915050565b600081359050613874816152c3565b92915050565b60006020828403121561388c57600080fd5b600061389a84828501613769565b91505092915050565b600080604083850312156138b657600080fd5b60006138c485828601613769565b92505060206138d585828601613769565b9150509250929050565b600080600080600060a086880312156138f757600080fd5b600061390588828901613769565b955050602061391688828901613769565b945050604086013567ffffffffffffffff81111561393357600080fd5b61393f888289016137a8565b935050606086013567ffffffffffffffff81111561395c57600080fd5b613968888289016137a8565b925050608086013567ffffffffffffffff81111561398557600080fd5b61399188828901613811565b9150509295509295909350565b600080600080600060a086880312156139b657600080fd5b60006139c488828901613769565b95505060206139d588828901613769565b94505060406139e688828901613865565b93505060606139f788828901613865565b925050608086013567ffffffffffffffff811115613a1457600080fd5b613a2088828901613811565b9150509295509295909350565b60008060408385031215613a4057600080fd5b6000613a4e85828601613769565b9250506020613a5f858286016137d2565b9150509250929050565b60008060408385031215613a7c57600080fd5b6000613a8a85828601613769565b9250506020613a9b85828601613865565b9150509250929050565b60008060408385031215613ab857600080fd5b600083013567ffffffffffffffff811115613ad257600080fd5b613ade8582860161377e565b925050602083013567ffffffffffffffff811115613afb57600080fd5b613b07858286016137a8565b9150509250929050565b600060208284031215613b2357600080fd5b6000613b31848285016137d2565b91505092915050565b600060208284031215613b4c57600080fd5b6000613b5a848285016137e7565b91505092915050565b600060208284031215613b7557600080fd5b6000613b83848285016137fc565b91505092915050565b600060208284031215613b9e57600080fd5b600082013567ffffffffffffffff811115613bb857600080fd5b613bc48482850161383b565b91505092915050565b600060208284031215613bdf57600080fd5b6000613bed84828501613865565b91505092915050565b60008060008060808587031215613c0c57600080fd5b6000613c1a87828801613865565b9450506020613c2b87828801613769565b935050604085013567ffffffffffffffff811115613c4857600080fd5b613c548782880161383b565b925050606085013567ffffffffffffffff811115613c7157600080fd5b613c7d8782880161383b565b91505092959194509250565b6000613c958383614221565b905092915050565b6000613ca983836142b1565b60208301905092915050565b613cbe81614a6b565b82525050565b613ccd81614a6b565b82525050565b613cdc81614a59565b82525050565b6000613ced8261495d565b613cf781856149a3565b935083602082028501613d0985614928565b8060005b85811015613d455784840389528151613d268582613c89565b9450613d3183614989565b925060208a01995050600181019050613d0d565b50829750879550505050505092915050565b6000613d6282614968565b613d6c81856149b4565b9350613d7783614938565b8060005b83811015613da8578151613d8f8882613c9d565b9750613d9a83614996565b925050600181019050613d7b565b5085935050505092915050565b613dbe81614a7d565b82525050565b6000613dcf82614973565b613dd981856149c5565b9350613de9818560208601614aee565b613df281614c7c565b840191505092915050565b6000613e088261497e565b613e1281856149d6565b9350613e22818560208601614aee565b613e2b81614c7c565b840191505092915050565b6000613e418261497e565b613e4b81856149e7565b9350613e5b818560208601614aee565b613e6481614c7c565b840191505092915050565b6000613e7a8261497e565b613e8481856149f8565b9350613e94818560208601614aee565b80840191505092915050565b60008154613ead81614b21565b613eb781866149f8565b94506001821660008114613ed25760018114613ee357613f16565b60ff19831686528186019350613f16565b613eec85614948565b60005b83811015613f0e57815481890152600182019150602081019050613eef565b838801955050505b50505092915050565b6000613f2c6034836149e7565b9150613f3782614c9a565b604082019050919050565b6000613f4f6028836149e7565b9150613f5a82614ce9565b604082019050919050565b6000613f72600d836149e7565b9150613f7d82614d38565b602082019050919050565b6000613f95602b836149e7565b9150613fa082614d61565b604082019050919050565b6000613fb86026836149e7565b9150613fc382614db0565b604082019050919050565b6000613fdb6018836149e7565b9150613fe682614dff565b602082019050919050565b6000613ffe6011836149e7565b915061400982614e28565b602082019050919050565b60006140216014836149e7565b915061402c82614e51565b602082019050919050565b60006140446029836149e7565b915061404f82614e7a565b604082019050919050565b60006140676025836149e7565b915061407282614ec9565b604082019050919050565b600061408a6032836149e7565b915061409582614f18565b604082019050919050565b60006140ad6012836149e7565b91506140b882614f67565b602082019050919050565b60006140d0602a836149e7565b91506140db82614f90565b604082019050919050565b60006140f36020836149e7565b91506140fe82614fdf565b602082019050919050565b60006141166013836149e7565b915061412182615008565b602082019050919050565b60006141396012836149e7565b915061414482615031565b602082019050919050565b600061415c6016836149e7565b91506141678261505a565b602082019050919050565b600061417f6029836149e7565b915061418a82615083565b604082019050919050565b60006141a26029836149e7565b91506141ad826150d2565b604082019050919050565b60006141c56028836149e7565b91506141d082615121565b604082019050919050565b60006141e86021836149e7565b91506141f382615170565b604082019050919050565b600061420b6013836149e7565b9150614216826151bf565b602082019050919050565b600060c083016000830151848203600086015261423e8282613dfd565b915050602083015184820360208601526142588282613dfd565b915050604083015161426d6040860182613cb5565b5060608301516142806060860182613cb5565b5060808301516142936080860182613cb5565b5060a08301516142a660a08601826142b1565b508091505092915050565b6142ba81614ad5565b82525050565b6142c981614ad5565b82525050565b60006142db8284613e6f565b915081905092915050565b60006142f28285613ea0565b91506142fe8284613e6f565b91508190509392505050565b600060208201905061431f6000830184613cd3565b92915050565b600060a08201905061433a6000830188613cd3565b6143476020830187613cd3565b81810360408301526143598186613d57565b9050818103606083015261436d8185613d57565b905081810360808301526143818184613dc4565b90509695505050505050565b600060a0820190506143a26000830188613cd3565b6143af6020830187613cd3565b6143bc60408301866142c0565b6143c960608301856142c0565b81810360808301526143db8184613dc4565b90509695505050505050565b600060208201905081810360008301526144018184613ce2565b905092915050565b600060208201905081810360008301526144238184613d57565b905092915050565b600060408201905081810360008301526144458185613d57565b905081810360208301526144598184613d57565b90509392505050565b60006020820190506144776000830184613db5565b92915050565b600060208201905081810360008301526144978184613e36565b905092915050565b600060408201905081810360008301526144b98185613e36565b905081810360208301526144cd8184613e36565b90509392505050565b600060c08201905081810360008301526144f08189613e36565b905081810360208301526145048188613e36565b90506145136040830187613cc4565b6145206060830186613cc4565b61452d6080830185613cc4565b61453a60a08301846142c0565b979650505050505050565b6000602082019050818103600083015261455e81613f1f565b9050919050565b6000602082019050818103600083015261457e81613f42565b9050919050565b6000602082019050818103600083015261459e81613f65565b9050919050565b600060208201905081810360008301526145be81613f88565b9050919050565b600060208201905081810360008301526145de81613fab565b9050919050565b600060208201905081810360008301526145fe81613fce565b9050919050565b6000602082019050818103600083015261461e81613ff1565b9050919050565b6000602082019050818103600083015261463e81614014565b9050919050565b6000602082019050818103600083015261465e81614037565b9050919050565b6000602082019050818103600083015261467e8161405a565b9050919050565b6000602082019050818103600083015261469e8161407d565b9050919050565b600060208201905081810360008301526146be816140a0565b9050919050565b600060208201905081810360008301526146de816140c3565b9050919050565b600060208201905081810360008301526146fe816140e6565b9050919050565b6000602082019050818103600083015261471e81614109565b9050919050565b6000602082019050818103600083015261473e8161412c565b9050919050565b6000602082019050818103600083015261475e8161414f565b9050919050565b6000602082019050818103600083015261477e81614172565b9050919050565b6000602082019050818103600083015261479e81614195565b9050919050565b600060208201905081810360008301526147be816141b8565b9050919050565b600060208201905081810360008301526147de816141db565b9050919050565b600060208201905081810360008301526147fe816141fe565b9050919050565b600060208201905061481a60008301846142c0565b92915050565b600060408201905061483560008301856142c0565b61484260208301846142c0565b9392505050565b6000614853614864565b905061485f8282614b53565b919050565b6000604051905090565b600067ffffffffffffffff82111561488957614888614c2b565b5b602082029050602081019050919050565b600067ffffffffffffffff8211156148b5576148b4614c2b565b5b602082029050602081019050919050565b600067ffffffffffffffff8211156148e1576148e0614c2b565b5b6148ea82614c7c565b9050602081019050919050565b600067ffffffffffffffff82111561491257614911614c2b565b5b61491b82614c7c565b9050602081019050919050565b6000819050602082019050919050565b6000819050602082019050919050565b60008190508160005260206000209050919050565b600081519050919050565b600081519050919050565b600081519050919050565b600081519050919050565b6000602082019050919050565b6000602082019050919050565b600082825260208201905092915050565b600082825260208201905092915050565b600082825260208201905092915050565b600082825260208201905092915050565b600082825260208201905092915050565b600081905092915050565b6000614a0e82614ad5565b9150614a1983614ad5565b9250827fffffffffffffffffffffffffffffffffffffffffffffffffffffffffffffffff03821115614a4e57614a4d614bcd565b5b828201905092915050565b6000614a6482614ab5565b9050919050565b6000614a7682614ab5565b9050919050565b60008115159050919050565b60007fffffffff0000000000000000000000000000000000000000000000000000000082169050919050565b600073ffffffffffffffffffffffffffffffffffffffff82169050919050565b6000819050919050565b82818337600083830152505050565b60005b83811015614b0c578082015181840152602081019050614af1565b83811115614b1b576000848401525b50505050565b60006002820490506001821680614b3957607f821691505b60208210811415614b4d57614b4c614bfc565b5b50919050565b614b5c82614c7c565b810181811067ffffffffffffffff82111715614b7b57614b7a614c2b565b5b80604052505050565b6000614b8f82614ad5565b91507fffffffffffffffffffffffffffffffffffffffffffffffffffffffffffffffff821415614bc257614bc1614bcd565b5b600182019050919050565b7f4e487b7100000000000000000000000000000000000000000000000000000000600052601160045260246000fd5b7f4e487b7100000000000000000000000000000000000000000000000000000000600052602260045260246000fd5b7f4e487b7100000000000000000000000000000000000000000000000000000000600052604160045260246000fd5b600060033d1115614c795760046000803e614c76600051614c8d565b90505b90565b6000601f19601f8301169050919050565b60008160e01c9050919050565b7f455243313135353a207472616e7366657220746f206e6f6e204552433131353560008201527f526563656976657220696d706c656d656e746572000000000000000000000000602082015250565b7f455243313135353a204552433131353552656365697665722072656a6563746560008201527f6420746f6b656e73000000000000000000000000000000000000000000000000602082015250565b7f4e616d6520726571756972656400000000000000000000000000000000000000600082015250565b7f455243313135353a2062616c616e636520717565727920666f7220746865207a60008201527f65726f2061646472657373000000000000000000000000000000000000000000602082015250565b7f4f776e61626c653a206e6577206f776e657220697320746865207a65726f206160008201527f6464726573730000000000000000000000000000000000000000000000000000602082015250565b7f4f6e6c79206e6f74207768656e206e6f74207061757365640000000000000000600082015250565b7f416c6c20746f6b656e73206d696e746564000000000000000000000000000000600082015250565b7f546f6b656e20616c726561647920657869737473000000000000000000000000600082015250565b7f455243313135353a2063616c6c6572206973206e6f74206f776e6572206e6f7260008201527f20617070726f7665640000000000000000000000000000000000000000000000602082015250565b7f455243313135353a207472616e7366657220746f20746865207a65726f20616460008201527f6472657373000000000000000000000000000000000000000000000000000000602082015250565b7f455243313135353a207472616e736665722063616c6c6572206973206e6f742060008201527f6f776e6572206e6f7220617070726f7665640000000000000000000000000000602082015250565b7f4e65772076616c75652072657175697265640000000000000000000000000000600082015250565b7f455243313135353a20696e73756666696369656e742062616c616e636520666f60008201527f72207472616e7366657200000000000000000000000000000000000000000000602082015250565b7f4f776e61626c653a2063616c6c6572206973206e6f7420746865206f776e6572600082015250565b7f4e616d6520616c72656164792065786973747300000000000000000000000000600082015250565b7f546f6b656e20494420696e636f72726563740000000000000000000000000000600082015250565b7f4d65746164617461204861736820726571756972656400000000000000000000600082015250565b7f455243313135353a2073657474696e6720617070726f76616c2073746174757360008201527f20666f722073656c660000000000000000000000000000000000000000000000602082015250565b7f455243313135353a206163636f756e747320616e6420696473206c656e67746860008201527f206d69736d617463680000000000000000000000000000000000000000000000602082015250565b7f455243313135353a2069647320616e6420616d6f756e7473206c656e6774682060008201527f6d69736d61746368000000000000000000000000000000000000000000000000602082015250565b7f455243313135353a206d696e7420746f20746865207a65726f2061646472657360008201527f7300000000000000000000000000000000000000000000000000000000000000602082015250565b7f4861736820616c72656164792065786973747300000000000000000000000000600082015250565b600060443d10156151f85761527b565b615200614864565b60043d036004823e80513d602482011167ffffffffffffffff8211171561522857505061527b565b808201805167ffffffffffffffff811115615246575050505061527b565b80602083010160043d03850181111561526357505050505061527b565b61527282602001850186614b53565b82955050505050505b90565b61528781614a59565b811461529257600080fd5b50565b61529e81614a7d565b81146152a957600080fd5b50565b6152b581614a89565b81146152c057600080fd5b50565b6152cc81614ad5565b81146152d757600080fd5b5056fea26469706673582212203b7fc02abb953688c9760faae6dea20bd72575d358d79501304a491f15c6b5fe64736f6c634300080400336101606040523480156200001257600080fd5b50604051620053ea380380620053ea83398181016040528101906200003891906200057d565b60048260016166466000878062000054620001ee60201b60201c565b60008280519060200120905060008280519060200120905060007f8b73c3c69bb8fe3d512ecc4cf759cc79239f7b179b0ffacaa9a75d522b39400f90508260e081815250508161010081815250504660a08181525050620000bd8184846200022b60201b60201c565b608081815250503073ffffffffffffffffffffffffffffffffffffffff1660c08173ffffffffffffffffffffffffffffffffffffffff1660601b8152505080610120818152505050505050508060009080519060200190620001219291906200042d565b505062000134836200026760201b60201c565b6200014582620002ae60201b60201c565b62000156816200033b60201b60201c565b5050508073ffffffffffffffffffffffffffffffffffffffff166101408173ffffffffffffffffffffffffffffffffffffffff1660601b8152505050620001a3816200038260201b60201c565b5080600760006101000a81548173ffffffffffffffffffffffffffffffffffffffff021916908373ffffffffffffffffffffffffffffffffffffffff16021790555050505062000a24565b60606040518060400160405280600181526020017f3100000000000000000000000000000000000000000000000000000000000000815250905090565b60008383834630604051602001620002489594939291906200066d565b6040516020818303038152906040528051906020012090509392505050565b7fc565b045403dc03c2eea82b81a0465edad9e2e7fc4d97e11421c209da93d7a93600254826040516200029c9291906200070e565b60405180910390a18060028190555050565b60008111620002f4576040517f08c379a0000000000000000000000000000000000000000000000000000000008152600401620002eb90620006ec565b60405180910390fd5b7f7e3f7f0708a84de9203036abaa450dccc85ad5ff52f78c170f3edb55cf5e882860035482604051620003299291906200070e565b60405180910390a18060038190555050565b7fccb45da8d5717e6c4544694297c4ba5cf151d455c9bb0ed4fc7a38411bc0546160045482604051620003709291906200070e565b60405180910390a18060048190555050565b620003926200042460201b60201c565b811115620003d7576040517f08c379a0000000000000000000000000000000000000000000000000000000008152600401620003ce90620006ca565b60405180910390fd5b60006006549050816006819055507f0553476bf02ef2726e8ce5ced78d63e26e602e4a2257b1f559418e24b46339978183604051620004189291906200070e565b60405180910390a15050565b60006064905090565b8280546200043b9062000851565b90600052602060002090601f0160209004810192826200045f5760008555620004ab565b82601f106200047a57805160ff1916838001178555620004ab565b82800160010185558215620004ab579182015b82811115620004aa5782518255916020019190600101906200048d565b5b509050620004ba9190620004be565b5090565b5b80821115620004d9576000816000905550600101620004bf565b5090565b6000620004f4620004ee8462000764565b6200073b565b9050828152602081018484840111156200050d57600080fd5b6200051a8482856200081b565b509392505050565b6000815190506200053381620009f0565b92915050565b6000815190506200054a8162000a0a565b92915050565b600082601f8301126200056257600080fd5b815162000574848260208601620004dd565b91505092915050565b6000806000606084860312156200059357600080fd5b600084015167ffffffffffffffff811115620005ae57600080fd5b620005bc8682870162000550565b9350506020620005cf8682870162000539565b9250506040620005e28682870162000522565b9150509250925092565b620005f781620007ab565b82525050565b6200060881620007bf565b82525050565b60006200061d6043836200079a565b91506200062a826200092c565b606082019050919050565b6000620006446027836200079a565b91506200065182620009a1565b604082019050919050565b620006678162000811565b82525050565b600060a082019050620006846000830188620005fd565b620006936020830187620005fd565b620006a26040830186620005fd565b620006b160608301856200065c565b620006c06080830184620005ec565b9695505050505050565b60006020820190508181036000830152620006e5816200060e565b9050919050565b60006020820190508181036000830152620007078162000635565b9050919050565b60006040820190506200072560008301856200065c565b6200073460208301846200065c565b9392505050565b6000620007476200075a565b905062000755828262000887565b919050565b6000604051905090565b600067ffffffffffffffff821115620007825762000781620008ec565b5b6200078d826200091b565b9050602081019050919050565b600082825260208201905092915050565b6000620007b882620007f1565b9050919050565b6000819050919050565b6000620007d682620007ab565b9050919050565b6000620007ea82620007ab565b9050919050565b600073ffffffffffffffffffffffffffffffffffffffff82169050919050565b6000819050919050565b60005b838110156200083b5780820151818401526020810190506200081e565b838111156200084b576000848401525b50505050565b600060028204905060018216806200086a57607f821691505b60208210811415620008815762000880620008bd565b5b50919050565b62000892826200091b565b810181811067ffffffffffffffff82111715620008b457620008b3620008ec565b5b80604052505050565b7f4e487b7100000000000000000000000000000000000000000000000000000000600052602260045260246000fd5b7f4e487b7100000000000000000000000000000000000000000000000000000000600052604160045260246000fd5b6000601f19601f8301169050919050565b7f476f7665726e6f72566f74657351756f72756d4672616374696f6e3a2071756f60008201527f72756d4e756d657261746f72206f7665722071756f72756d44656e6f6d696e6160208201527f746f720000000000000000000000000000000000000000000000000000000000604082015250565b7f476f7665726e6f7253657474696e67733a20766f74696e6720706572696f642060008201527f746f6f206c6f7700000000000000000000000000000000000000000000000000602082015250565b620009fb81620007c9565b811462000a0757600080fd5b50565b62000a1581620007dd565b811462000a2157600080fd5b50565b60805160a05160c05160601c60e05161010051610120516101405160601c61495762000a93600039600081816115c701528181611c940152611d9e01526000611f7501526000611fb701526000611f9601526000611ecb01526000611f2101526000611f4a01526149576000f3fe6080604052600436106101c65760003560e01c80637b3c71d3116100f7578063c59057e411610095578063eb9019d411610064578063eb9019d414610709578063ece40cc114610746578063f8ce560a1461076f578063fc0c546a146107ac5761020c565b8063c59057e41461064d578063dd4e2ba51461068a578063deaaa7cc146106b5578063ea0217cf146106e05761020c565b8063a7713a70116100d1578063a7713a7014610591578063b58131b0146105bc578063c01f9e37146105e7578063c28bc2fa146106245761020c565b80637b3c71d3146104ec5780637d5e81e21461052957806397c3d334146105665761020c565b80633bccf4fd11610164578063544ffc9c1161013e578063544ffc9c1461041c57806354fd4d501461045b578063567813881461048657806370b0f660146104c35761020c565b80633bccf4fd146103655780633e4f49e6146103a257806343859632146103df5761020c565b806306fdde03116101a057806306fdde03146102a25780632656227d146102cd5780632d63f693146102fd5780633932abb11461033a5761020c565b806301ffc9a71461021157806302a251a31461024e57806306f3f9e6146102795761020c565b3661020c573073ffffffffffffffffffffffffffffffffffffffff166101ea6107d7565b73ffffffffffffffffffffffffffffffffffffffff161461020a57600080fd5b005b600080fd5b34801561021d57600080fd5b5061023860048036038101906102339190612e2f565b6107df565b6040516102459190613719565b60405180910390f35b34801561025a57600080fd5b50610263610859565b6040516102709190613ad6565b60405180910390f35b34801561028557600080fd5b506102a0600480360381019061029b9190612e58565b610868565b005b3480156102ae57600080fd5b506102b76108f0565b6040516102c49190613854565b60405180910390f35b6102e760048036038101906102e29190612cc1565b610982565b6040516102f49190613ad6565b60405180910390f35b34801561030957600080fd5b50610324600480360381019061031f9190612e58565b610b4d565b6040516103319190613ad6565b60405180910390f35b34801561034657600080fd5b5061034f610bbb565b60405161035c9190613ad6565b60405180910390f35b34801561037157600080fd5b5061038c60048036038101906103879190612f8e565b610bca565b6040516103999190613ad6565b60405180910390f35b3480156103ae57600080fd5b506103c960048036038101906103c49190612e58565b610c54565b6040516103d69190613839565b60405180910390f35b3480156103eb57600080fd5b5061040660048036038101906104019190612eaa565b610d69565b6040516104139190613719565b60405180910390f35b34801561042857600080fd5b50610443600480360381019061043e9190612e58565b610dd4565b60405161045293929190613bca565b60405180910390f35b34801561046757600080fd5b50610470610e0c565b60405161047d9190613854565b60405180910390f35b34801561049257600080fd5b506104ad60048036038101906104a89190612ee6565b610e49565b6040516104ba9190613ad6565b60405180910390f35b3480156104cf57600080fd5b506104ea60048036038101906104e59190612e58565b610e7a565b005b3480156104f857600080fd5b50610513600480360381019061050e9190612f22565b610f02565b6040516105209190613ad6565b60405180910390f35b34801561053557600080fd5b50610550600480360381019061054b9190612d6c565b610f6a565b60405161055d9190613ad6565b60405180910390f35b34801561057257600080fd5b5061057b611290565b6040516105889190613ad6565b60405180910390f35b34801561059d57600080fd5b506105a6611299565b6040516105b39190613ad6565b60405180910390f35b3480156105c857600080fd5b506105d16112a3565b6040516105de9190613ad6565b60405180910390f35b3480156105f357600080fd5b5061060e60048036038101906106099190612e58565b6112b2565b60405161061b9190613ad6565b60405180910390f35b34801561063057600080fd5b5061064b60048036038101906106469190612c55565b611320565b005b34801561065957600080fd5b50610674600480360381019061066f9190612cc1565b6113f2565b6040516106819190613ad6565b60405180910390f35b34801561069657600080fd5b5061069f61142e565b6040516106ac9190613854565b60405180910390f35b3480156106c157600080fd5b506106ca61146b565b6040516106d79190613734565b60405180910390f35b3480156106ec57600080fd5b5061070760048036038101906107029190612e58565b61148f565b005b34801561071557600080fd5b50610730600480360381019061072b9190612c19565b611517565b60405161073d9190613ad6565b60405180910390f35b34801561075257600080fd5b5061076d60048036038101906107689190612e58565b61152b565b005b34801561077b57600080fd5b5061079660048036038101906107919190612e58565b6115b3565b6040516107a39190613ad6565b60405180910390f35b3480156107b857600080fd5b506107c16115c5565b6040516107ce919061381e565b60405180910390f35b600030905090565b60007fbf26d897000000000000000000000000000000000000000000000000000000007bffffffffffffffffffffffffffffffffffffffffffffffffffffffff1916827bffffffffffffffffffffffffffffffffffffffffffffffffffffffff191614806108525750610851826115e9565b5b9050919050565b6000610863611653565b905090565b6108706107d7565b73ffffffffffffffffffffffffffffffffffffffff1661088e61165d565b73ffffffffffffffffffffffffffffffffffffffff16146108e4576040517f08c379a00000000000000000000000000000000000000000000000000000000081526004016108db90613896565b60405180910390fd5b6108ed81611665565b50565b6060600080546108ff9061412a565b80601f016020809104026020016040519081016040528092919081815260200182805461092b9061412a565b80156109785780601f1061094d57610100808354040283529160200191610978565b820191906000526020600020905b81548152906001019060200180831161095b57829003601f168201915b5050505050905090565b600080610991868686866113f2565b9050600061099e82610c54565b9050600460078111156109da577f4e487b7100000000000000000000000000000000000000000000000000000000600052602160045260246000fd5b816007811115610a13577f4e487b7100000000000000000000000000000000000000000000000000000000600052602160045260246000fd5b1480610a8f575060056007811115610a54577f4e487b7100000000000000000000000000000000000000000000000000000000600052602160045260246000fd5b816007811115610a8d577f4e487b7100000000000000000000000000000000000000000000000000000000600052602160045260246000fd5b145b610ace576040517f08c379a0000000000000000000000000000000000000000000000000000000008152600401610ac590613a36565b60405180910390fd5b600180600084815260200190815260200160002060020160006101000a81548160ff0219169083151502179055507f712ae1383f79ac853f8d882153778e0260ef8f03b504e2866e0593e04d2b291f82604051610b2b9190613ad6565b60405180910390a1610b4082888888886116fa565b8192505050949350505050565b6000610baa600160008481526020019081526020016000206000016040518060200160405290816000820160009054906101000a900467ffffffffffffffff1667ffffffffffffffff1667ffffffffffffffff168152505061187b565b67ffffffffffffffff169050919050565b6000610bc5611889565b905090565b600080610c2b610c237f150214d74d59b7d1e90c73fc22ef3d991dd0a76b046543d4d80ab92d2a50328f8989604051602001610c08939291906137a2565b60405160208183030381529060405280519060200120611893565b8686866118ad565b9050610c48878288604051806020016040528060008152506118d8565b91505095945050505050565b6000806001600084815260200190815260200160002090508060020160009054906101000a900460ff1615610c8d576007915050610d64565b8060020160019054906101000a900460ff1615610cae576002915050610d64565b6000610cb984610b4d565b90506000811415610cff576040517f08c379a0000000000000000000000000000000000000000000000000000000008152600401610cf690613a56565b60405180910390fd5b438110610d1157600092505050610d64565b6000610d1c856112b2565b9050438110610d315760019350505050610d64565b610d3a85611a78565b8015610d4b5750610d4a85611abf565b5b15610d5c5760049350505050610d64565b600393505050505b919050565b60006005600084815260200190815260200160002060030160008373ffffffffffffffffffffffffffffffffffffffff1673ffffffffffffffffffffffffffffffffffffffff16815260200190815260200160002060009054906101000a900460ff16905092915050565b600080600080600560008681526020019081526020016000209050806000015481600101548260020154935093509350509193909250565b60606040518060400160405280600181526020017f3100000000000000000000000000000000000000000000000000000000000000815250905090565b600080610e5461165d565b9050610e71848285604051806020016040528060008152506118d8565b91505092915050565b610e826107d7565b73ffffffffffffffffffffffffffffffffffffffff16610ea061165d565b73ffffffffffffffffffffffffffffffffffffffff1614610ef6576040517f08c379a0000000000000000000000000000000000000000000000000000000008152600401610eed90613896565b60405180910390fd5b610eff81611aea565b50565b600080610f0d61165d565b9050610f5f86828787878080601f016020809104026020016040519081016040528093929190818152602001838380828437600081840152601f19601f820116905080830192505050505050506118d8565b915050949350505050565b6000610f746112a3565b610f8a33600143610f859190613fba565b611517565b1015610fcb576040517f08c379a0000000000000000000000000000000000000000000000000000000008152600401610fc2906138d6565b60405180910390fd5b6000610fe086868686805190602001206113f2565b90508451865114611026576040517f08c379a000000000000000000000000000000000000000000000000000000000815260040161101d90613916565b60405180910390fd5b835186511461106a576040517f08c379a000000000000000000000000000000000000000000000000000000000815260040161106190613916565b60405180910390fd5b60008651116110ae576040517f08c379a00000000000000000000000000000000000000000000000000000000081526004016110a5906139d6565b60405180910390fd5b600060016000838152602001908152602001600020905061110e816000016040518060200160405290816000820160009054906101000a900467ffffffffffffffff1667ffffffffffffffff1667ffffffffffffffff1681525050611b2f565b61114d576040517f08c379a000000000000000000000000000000000000000000000000000000000815260040161114490613a96565b60405180910390fd5b600061115f61115a610bbb565b611b49565b61116843611b49565b6111729190613ef1565b90506000611186611181610859565b611b49565b826111919190613ef1565b90506111a98284600001611ba090919063ffffffff16565b6111bf8184600101611ba090919063ffffffff16565b7f7d84a6263ae0d98d3329bd7b46bb4e8d6f98cd35a7adb45c274c8b7fd5ebd5e0846111e961165d565b8b8b8d5167ffffffffffffffff81111561122c577f4e487b7100000000000000000000000000000000000000000000000000000000600052604160045260246000fd5b60405190808252806020026020018201604052801561125f57816020015b606081526020019060019003908161124a5790505b508c88888e60405161127999989796959493929190613af1565b60405180910390a183945050505050949350505050565b60006064905090565b6000600654905090565b60006112ad611bcf565b905090565b600061130f600160008481526020019081526020016000206001016040518060200160405290816000820160009054906101000a900467ffffffffffffffff1667ffffffffffffffff1667ffffffffffffffff168152505061187b565b67ffffffffffffffff169050919050565b6113286107d7565b73ffffffffffffffffffffffffffffffffffffffff1661134661165d565b73ffffffffffffffffffffffffffffffffffffffff161461139c576040517f08c379a000000000000000000000000000000000000000000000000000000000815260040161139390613896565b60405180910390fd5b6113eb8483838080601f016020809104026020016040519081016040528093929190818152602001838380828437600081840152601f19601f8201169050808301925050505050505085611bd9565b5050505050565b60008484848460405160200161140b94939291906136bf565b6040516020818303038152906040528051906020012060001c9050949350505050565b60606040518060400160405280602081526020017f737570706f72743d627261766f2671756f72756d3d666f722c6162737461696e815250905090565b7f150214d74d59b7d1e90c73fc22ef3d991dd0a76b046543d4d80ab92d2a50328f81565b6114976107d7565b73ffffffffffffffffffffffffffffffffffffffff166114b561165d565b73ffffffffffffffffffffffffffffffffffffffff161461150b576040517f08c379a000000000000000000000000000000000000000000000000000000000815260040161150290613896565b60405180910390fd5b61151481611c08565b50565b60006115238383611c90565b905092915050565b6115336107d7565b73ffffffffffffffffffffffffffffffffffffffff1661155161165d565b73ffffffffffffffffffffffffffffffffffffffff16146115a7576040517f08c379a000000000000000000000000000000000000000000000000000000000815260040161159e90613896565b60405180910390fd5b6115b081611d45565b50565b60006115be82611d8a565b9050919050565b7f000000000000000000000000000000000000000000000000000000000000000081565b60007f01ffc9a7000000000000000000000000000000000000000000000000000000007bffffffffffffffffffffffffffffffffffffffffffffffffffffffff1916827bffffffffffffffffffffffffffffffffffffffffffffffffffffffff1916149050919050565b6000600354905090565b600033905090565b61166d611290565b8111156116af576040517f08c379a00000000000000000000000000000000000000000000000000000000081526004016116a6906138b6565b60405180910390fd5b60006006549050816006819055507f0553476bf02ef2726e8ce5ced78d63e26e602e4a2257b1f559418e24b463399781836040516116ee929190613ba1565b60405180910390a15050565b60006040518060600160405280602781526020016148d260279139905060005b85518110156118725760008087838151811061175f577f4e487b7100000000000000000000000000000000000000000000000000000000600052603260045260246000fd5b602002602001015173ffffffffffffffffffffffffffffffffffffffff168784815181106117b6577f4e487b7100000000000000000000000000000000000000000000000000000000600052603260045260246000fd5b60200260200101518785815181106117f7577f4e487b7100000000000000000000000000000000000000000000000000000000600052603260045260246000fd5b602002602001015160405161180c9190613648565b60006040518083038185875af1925050503d8060008114611849576040519150601f19603f3d011682016040523d82523d6000602084013e61184e565b606091505b509150915061185e828286611e60565b5050508061186b9061418d565b905061171a565b50505050505050565b600081600001519050919050565b6000600254905090565b60006118a66118a0611ec7565b83611fe1565b9050919050565b60008060006118be87878787612014565b915091506118cb81612121565b8192505050949350505050565b6000806001600087815260200190815260200160002090506001600781111561192a577f4e487b7100000000000000000000000000000000000000000000000000000000600052602160045260246000fd5b61193387610c54565b600781111561196b577f4e487b7100000000000000000000000000000000000000000000000000000000600052602160045260246000fd5b146119ab576040517f08c379a00000000000000000000000000000000000000000000000000000000081526004016119a2906139b6565b60405180910390fd5b6000611a09866119fa846000016040518060200160405290816000820160009054906101000a900467ffffffffffffffff1667ffffffffffffffff1667ffffffffffffffff168152505061187b565b67ffffffffffffffff16611517565b9050611a1787878784612472565b8573ffffffffffffffffffffffffffffffffffffffff167fb8e138887d0aa13bab447e82de9d5c1777041ecd21ca36ba824ff1e6c07ddda488878488604051611a639493929190613c01565b60405180910390a28092505050949350505050565b60008060056000848152602001908152602001600020905080600201548160010154611aa49190613e9b565b611ab5611ab085610b4d565b6115b3565b1115915050919050565b6000806005600084815260200190815260200160002090508060000154816001015411915050919050565b7fc565b045403dc03c2eea82b81a0465edad9e2e7fc4d97e11421c209da93d7a9360025482604051611b1d929190613ba1565b60405180910390a18060028190555050565b600080826000015167ffffffffffffffff16149050919050565b600067ffffffffffffffff8016821115611b98576040517f08c379a0000000000000000000000000000000000000000000000000000000008152600401611b8f90613a16565b60405180910390fd5b819050919050565b808260000160006101000a81548167ffffffffffffffff021916908367ffffffffffffffff1602179055505050565b6000600454905090565b6060611bff8484846040518060600160405280602981526020016148f9602991396126ea565b90509392505050565b60008111611c4b576040517f08c379a0000000000000000000000000000000000000000000000000000000008152600401611c4290613936565b60405180910390fd5b7f7e3f7f0708a84de9203036abaa450dccc85ad5ff52f78c170f3edb55cf5e882860035482604051611c7e929190613ba1565b60405180910390a18060038190555050565b60007f000000000000000000000000000000000000000000000000000000000000000073ffffffffffffffffffffffffffffffffffffffff16633a46b1a884846040518363ffffffff1660e01b8152600401611ced929190613696565b60206040518083038186803b158015611d0557600080fd5b505afa158015611d19573d6000803e3d6000fd5b505050506040513d601f19601f82011682018060405250810190611d3d9190612e81565b905092915050565b7fccb45da8d5717e6c4544694297c4ba5cf151d455c9bb0ed4fc7a38411bc0546160045482604051611d78929190613ba1565b60405180910390a18060048190555050565b6000611d94611290565b611d9c611299565b7f000000000000000000000000000000000000000000000000000000000000000073ffffffffffffffffffffffffffffffffffffffff16638e539e8c856040518263ffffffff1660e01b8152600401611df59190613ad6565b60206040518083038186803b158015611e0d57600080fd5b505afa158015611e21573d6000803e3d6000fd5b505050506040513d601f19601f82011682018060405250810190611e459190612e81565b611e4f9190613f60565b611e599190613f2f565b9050919050565b60608315611e7057829050611ec0565b600083511115611e835782518084602001fd5b816040517f08c379a0000000000000000000000000000000000000000000000000000000008152600401611eb79190613854565b60405180910390fd5b9392505050565b60007f000000000000000000000000000000000000000000000000000000000000000073ffffffffffffffffffffffffffffffffffffffff163073ffffffffffffffffffffffffffffffffffffffff16148015611f4357507f000000000000000000000000000000000000000000000000000000000000000046145b15611f70577f00000000000000000000000000000000000000000000000000000000000000009050611fde565b611fdb7f00000000000000000000000000000000000000000000000000000000000000007f00000000000000000000000000000000000000000000000000000000000000007f00000000000000000000000000000000000000000000000000000000000000006127fe565b90505b90565b60008282604051602001611ff692919061365f565b60405160208183030381529060405280519060200120905092915050565b6000807f7fffffffffffffffffffffffffffffff5d576e7357a4501ddfe92f46681b20a08360001c111561204f576000600391509150612118565b601b8560ff16141580156120675750601c8560ff1614155b15612079576000600491509150612118565b60006001878787876040516000815260200160405260405161209e94939291906137d9565b6020604051602081039080840390855afa1580156120c0573d6000803e3d6000fd5b505050602060405103519050600073ffffffffffffffffffffffffffffffffffffffff168173ffffffffffffffffffffffffffffffffffffffff16141561210f57600060019250925050612118565b80600092509250505b94509492505050565b6000600481111561215b577f4e487b7100000000000000000000000000000000000000000000000000000000600052602160045260246000fd5b816004811115612194577f4e487b7100000000000000000000000000000000000000000000000000000000600052602160045260246000fd5b141561219f5761246f565b600160048111156121d9577f4e487b7100000000000000000000000000000000000000000000000000000000600052602160045260246000fd5b816004811115612212577f4e487b7100000000000000000000000000000000000000000000000000000000600052602160045260246000fd5b1415612253576040517f08c379a000000000000000000000000000000000000000000000000000000000815260040161224a90613876565b60405180910390fd5b6002600481111561228d577f4e487b7100000000000000000000000000000000000000000000000000000000600052602160045260246000fd5b8160048111156122c6577f4e487b7100000000000000000000000000000000000000000000000000000000600052602160045260246000fd5b1415612307576040517f08c379a00000000000000000000000000000000000000000000000000000000081526004016122fe906138f6565b60405180910390fd5b60036004811115612341577f4e487b7100000000000000000000000000000000000000000000000000000000600052602160045260246000fd5b81600481111561237a577f4e487b7100000000000000000000000000000000000000000000000000000000600052602160045260246000fd5b14156123bb576040517f08c379a00000000000000000000000000000000000000000000000000000000081526004016123b290613956565b60405180910390fd5b6004808111156123f4577f4e487b7100000000000000000000000000000000000000000000000000000000600052602160045260246000fd5b81600481111561242d577f4e487b7100000000000000000000000000000000000000000000000000000000600052602160045260246000fd5b141561246e576040517f08c379a0000000000000000000000000000000000000000000000000000000008152600401612465906139f6565b60405180910390fd5b5b50565b60006005600086815260200190815260200160002090508060030160008573ffffffffffffffffffffffffffffffffffffffff1673ffffffffffffffffffffffffffffffffffffffff16815260200190815260200160002060009054906101000a900460ff1615612518576040517f08c379a000000000000000000000000000000000000000000000000000000000815260040161250f90613976565b60405180910390fd5b60018160030160008673ffffffffffffffffffffffffffffffffffffffff1673ffffffffffffffffffffffffffffffffffffffff16815260200190815260200160002060006101000a81548160ff021916908315150217905550600060028111156125ac577f4e487b7100000000000000000000000000000000000000000000000000000000600052602160045260246000fd5b60ff168360ff1614156125d957818160000160008282546125cd9190613e9b565b925050819055506126e3565b60016002811115612613577f4e487b7100000000000000000000000000000000000000000000000000000000600052602160045260246000fd5b60ff168360ff16141561264057818160010160008282546126349190613e9b565b925050819055506126e2565b600280811115612679577f4e487b7100000000000000000000000000000000000000000000000000000000600052602160045260246000fd5b60ff168360ff1614156126a6578181600201600082825461269a9190613e9b565b925050819055506126e1565b6040517f08c379a00000000000000000000000000000000000000000000000000000000081526004016126d890613a76565b60405180910390fd5b5b5b5050505050565b60608247101561272f576040517f08c379a000000000000000000000000000000000000000000000000000000000815260040161272690613996565b60405180910390fd5b61273885612838565b612777576040517f08c379a000000000000000000000000000000000000000000000000000000000815260040161276e90613ab6565b60405180910390fd5b6000808673ffffffffffffffffffffffffffffffffffffffff1685876040516127a09190613648565b60006040518083038185875af1925050503d80600081146127dd576040519150601f19603f3d011682016040523d82523d6000602084013e6127e2565b606091505b50915091506127f2828286611e60565b92505050949350505050565b6000838383463060405160200161281995949392919061374f565b6040516020818303038152906040528051906020012090509392505050565b6000808273ffffffffffffffffffffffffffffffffffffffff163b119050919050565b600061286e61286984613c72565b613c4d565b9050808382526020820190508285602086028201111561288d57600080fd5b60005b858110156128bd57816128a38882612a35565b845260208401935060208301925050600181019050612890565b5050509392505050565b60006128da6128d584613c9e565b613c4d565b905080838252602082019050828560208602820111156128f957600080fd5b60005b8581101561294357813567ffffffffffffffff81111561291b57600080fd5b8086016129288982612b3c565b855260208501945060208401935050506001810190506128fc565b5050509392505050565b600061296061295b84613cca565b613c4d565b9050808382526020820190508285602086028201111561297f57600080fd5b60005b858110156129af57816129958882612bda565b845260208401935060208301925050600181019050612982565b5050509392505050565b60006129cc6129c784613cf6565b613c4d565b9050828152602081018484840111156129e457600080fd5b6129ef8482856140e8565b509392505050565b6000612a0a612a0584613d27565b613c4d565b905082815260208101848484011115612a2257600080fd5b612a2d8482856140e8565b509392505050565b600081359050612a448161485e565b92915050565b600082601f830112612a5b57600080fd5b8135612a6b84826020860161285b565b91505092915050565b600082601f830112612a8557600080fd5b8135612a958482602086016128c7565b91505092915050565b600082601f830112612aaf57600080fd5b8135612abf84826020860161294d565b91505092915050565b600081359050612ad781614875565b92915050565b600081359050612aec8161488c565b92915050565b60008083601f840112612b0457600080fd5b8235905067ffffffffffffffff811115612b1d57600080fd5b602083019150836001820283011115612b3557600080fd5b9250929050565b600082601f830112612b4d57600080fd5b8135612b5d8482602086016129b9565b91505092915050565b60008083601f840112612b7857600080fd5b8235905067ffffffffffffffff811115612b9157600080fd5b602083019150836001820283011115612ba957600080fd5b9250929050565b600082601f830112612bc157600080fd5b8135612bd18482602086016129f7565b91505092915050565b600081359050612be9816148a3565b92915050565b600081519050612bfe816148a3565b92915050565b600081359050612c13816148ba565b92915050565b60008060408385031215612c2c57600080fd5b6000612c3a85828601612a35565b9250506020612c4b85828601612bda565b9150509250929050565b60008060008060608587031215612c6b57600080fd5b6000612c7987828801612a35565b9450506020612c8a87828801612bda565b935050604085013567ffffffffffffffff811115612ca757600080fd5b612cb387828801612af2565b925092505092959194509250565b60008060008060808587031215612cd757600080fd5b600085013567ffffffffffffffff811115612cf157600080fd5b612cfd87828801612a4a565b945050602085013567ffffffffffffffff811115612d1a57600080fd5b612d2687828801612a9e565b935050604085013567ffffffffffffffff811115612d4357600080fd5b612d4f87828801612a74565b9250506060612d6087828801612ac8565b91505092959194509250565b60008060008060808587031215612d8257600080fd5b600085013567ffffffffffffffff811115612d9c57600080fd5b612da887828801612a4a565b945050602085013567ffffffffffffffff811115612dc557600080fd5b612dd187828801612a9e565b935050604085013567ffffffffffffffff811115612dee57600080fd5b612dfa87828801612a74565b925050606085013567ffffffffffffffff811115612e1757600080fd5b612e2387828801612bb0565b91505092959194509250565b600060208284031215612e4157600080fd5b6000612e4f84828501612add565b91505092915050565b600060208284031215612e6a57600080fd5b6000612e7884828501612bda565b91505092915050565b600060208284031215612e9357600080fd5b6000612ea184828501612bef565b91505092915050565b60008060408385031215612ebd57600080fd5b6000612ecb85828601612bda565b9250506020612edc85828601612a35565b9150509250929050565b60008060408385031215612ef957600080fd5b6000612f0785828601612bda565b9250506020612f1885828601612c04565b9150509250929050565b60008060008060608587031215612f3857600080fd5b6000612f4687828801612bda565b9450506020612f5787828801612c04565b935050604085013567ffffffffffffffff811115612f7457600080fd5b612f8087828801612b66565b925092505092959194509250565b600080600080600060a08688031215612fa657600080fd5b6000612fb488828901612bda565b9550506020612fc588828901612c04565b9450506040612fd688828901612c04565b9350506060612fe788828901612ac8565b9250506080612ff888828901612ac8565b9150509295509295909350565b6000613011838361305d565b60208301905092915050565b60006130298383613256565b905092915050565b600061303d83836132de565b905092915050565b6000613051838361360c565b60208301905092915050565b61306681613fee565b82525050565b61307581613fee565b82525050565b600061308682613d98565b6130908185613e0e565b935061309b83613d58565b8060005b838110156130cc5781516130b38882613005565b97506130be83613dda565b92505060018101905061309f565b5085935050505092915050565b60006130e482613da3565b6130ee8185613e1f565b93508360208202850161310085613d68565b8060005b8581101561313c578484038952815161311d858261301d565b945061312883613de7565b925060208a01995050600181019050613104565b50829750879550505050505092915050565b600061315982613dae565b6131638185613e30565b93508360208202850161317585613d78565b8060005b858110156131b157848403895281516131928582613031565b945061319d83613df4565b925060208a01995050600181019050613179565b50829750879550505050505092915050565b60006131ce82613db9565b6131d88185613e41565b93506131e383613d88565b8060005b838110156132145781516131fb8882613045565b975061320683613e01565b9250506001810190506131e7565b5085935050505092915050565b61322a81614000565b82525050565b6132398161400c565b82525050565b61325061324b8261400c565b6141d6565b82525050565b600061326182613dc4565b61326b8185613e52565b935061327b8185602086016140f7565b613284816142cb565b840191505092915050565b600061329a82613dc4565b6132a48185613e63565b93506132b48185602086016140f7565b80840191505092915050565b6132c9816140a0565b82525050565b6132d8816140c4565b82525050565b60006132e982613dcf565b6132f38185613e6e565b93506133038185602086016140f7565b61330c816142cb565b840191505092915050565b600061332282613dcf565b61332c8185613e7f565b935061333c8185602086016140f7565b613345816142cb565b840191505092915050565b600061335d601883613e7f565b9150613368826142dc565b602082019050919050565b6000613380601883613e7f565b915061338b82614305565b602082019050919050565b60006133a3604383613e7f565b91506133ae8261432e565b606082019050919050565b60006133c6604383613e7f565b91506133d1826143a3565b606082019050919050565b60006133e9601f83613e7f565b91506133f482614418565b602082019050919050565b600061340c600283613e90565b915061341782614441565b600282019050919050565b600061342f602183613e7f565b915061343a8261446a565b604082019050919050565b6000613452602783613e7f565b915061345d826144b9565b604082019050919050565b6000613475602283613e7f565b915061348082614508565b604082019050919050565b6000613498602783613e7f565b91506134a382614557565b604082019050919050565b60006134bb602683613e7f565b91506134c6826145a6565b604082019050919050565b60006134de602383613e7f565b91506134e9826145f5565b604082019050919050565b6000613501601883613e7f565b915061350c82614644565b602082019050919050565b6000613524602283613e7f565b915061352f8261466d565b604082019050919050565b6000613547602683613e7f565b9150613552826146bc565b604082019050919050565b600061356a602183613e7f565b91506135758261470b565b604082019050919050565b600061358d601d83613e7f565b91506135988261475a565b602082019050919050565b60006135b0603583613e7f565b91506135bb82614783565b604082019050919050565b60006135d3602183613e7f565b91506135de826147d2565b604082019050919050565b60006135f6601d83613e7f565b915061360182614821565b602082019050919050565b61361581614075565b82525050565b61362481614075565b82525050565b613633816140d6565b82525050565b61364281614093565b82525050565b6000613654828461328f565b915081905092915050565b600061366a826133ff565b9150613676828561323f565b602082019150613686828461323f565b6020820191508190509392505050565b60006040820190506136ab600083018561306c565b6136b8602083018461361b565b9392505050565b600060808201905081810360008301526136d9818761307b565b905081810360208301526136ed81866131c3565b9050818103604083015261370181856130d9565b90506137106060830184613230565b95945050505050565b600060208201905061372e6000830184613221565b92915050565b60006020820190506137496000830184613230565b92915050565b600060a0820190506137646000830188613230565b6137716020830187613230565b61377e6040830186613230565b61378b606083018561361b565b613798608083018461306c565b9695505050505050565b60006060820190506137b76000830186613230565b6137c4602083018561361b565b6137d16040830184613639565b949350505050565b60006080820190506137ee6000830187613230565b6137fb6020830186613639565b6138086040830185613230565b6138156060830184613230565b95945050505050565b600060208201905061383360008301846132c0565b92915050565b600060208201905061384e60008301846132cf565b92915050565b6000602082019050818103600083015261386e8184613317565b905092915050565b6000602082019050818103600083015261388f81613350565b9050919050565b600060208201905081810360008301526138af81613373565b9050919050565b600060208201905081810360008301526138cf81613396565b9050919050565b600060208201905081810360008301526138ef816133b9565b9050919050565b6000602082019050818103600083015261390f816133dc565b9050919050565b6000602082019050818103600083015261392f81613422565b9050919050565b6000602082019050818103600083015261394f81613445565b9050919050565b6000602082019050818103600083015261396f81613468565b9050919050565b6000602082019050818103600083015261398f8161348b565b9050919050565b600060208201905081810360008301526139af816134ae565b9050919050565b600060208201905081810360008301526139cf816134d1565b9050919050565b600060208201905081810360008301526139ef816134f4565b9050919050565b60006020820190508181036000830152613a0f81613517565b9050919050565b60006020820190508181036000830152613a2f8161353a565b9050919050565b60006020820190508181036000830152613a4f8161355d565b9050919050565b60006020820190508181036000830152613a6f81613580565b9050919050565b60006020820190508181036000830152613a8f816135a3565b9050919050565b60006020820190508181036000830152613aaf816135c6565b9050919050565b60006020820190508181036000830152613acf816135e9565b9050919050565b6000602082019050613aeb600083018461361b565b92915050565b600061012082019050613b07600083018c61361b565b613b14602083018b61306c565b8181036040830152613b26818a61307b565b90508181036060830152613b3a81896131c3565b90508181036080830152613b4e818861314e565b905081810360a0830152613b6281876130d9565b9050613b7160c083018661362a565b613b7e60e083018561362a565b818103610100830152613b918184613317565b90509a9950505050505050505050565b6000604082019050613bb6600083018561361b565b613bc3602083018461361b565b9392505050565b6000606082019050613bdf600083018661361b565b613bec602083018561361b565b613bf9604083018461361b565b949350505050565b6000608082019050613c16600083018761361b565b613c236020830186613639565b613c30604083018561361b565b8181036060830152613c428184613317565b905095945050505050565b6000613c57613c68565b9050613c63828261415c565b919050565b6000604051905090565b600067ffffffffffffffff821115613c8d57613c8c61429c565b5b602082029050602081019050919050565b600067ffffffffffffffff821115613cb957613cb861429c565b5b602082029050602081019050919050565b600067ffffffffffffffff821115613ce557613ce461429c565b5b602082029050602081019050919050565b600067ffffffffffffffff821115613d1157613d1061429c565b5b613d1a826142cb565b9050602081019050919050565b600067ffffffffffffffff821115613d4257613d4161429c565b5b613d4b826142cb565b9050602081019050919050565b6000819050602082019050919050565b6000819050602082019050919050565b6000819050602082019050919050565b6000819050602082019050919050565b600081519050919050565b600081519050919050565b600081519050919050565b600081519050919050565b600081519050919050565b600081519050919050565b6000602082019050919050565b6000602082019050919050565b6000602082019050919050565b6000602082019050919050565b600082825260208201905092915050565b600082825260208201905092915050565b600082825260208201905092915050565b600082825260208201905092915050565b600082825260208201905092915050565b600081905092915050565b600082825260208201905092915050565b600082825260208201905092915050565b600081905092915050565b6000613ea682614075565b9150613eb183614075565b9250827fffffffffffffffffffffffffffffffffffffffffffffffffffffffffffffffff03821115613ee657613ee56141e0565b5b828201905092915050565b6000613efc8261407f565b9150613f078361407f565b92508267ffffffffffffffff03821115613f2457613f236141e0565b5b828201905092915050565b6000613f3a82614075565b9150613f4583614075565b925082613f5557613f5461420f565b5b828204905092915050565b6000613f6b82614075565b9150613f7683614075565b9250817fffffffffffffffffffffffffffffffffffffffffffffffffffffffffffffffff0483118215151615613faf57613fae6141e0565b5b828202905092915050565b6000613fc582614075565b9150613fd083614075565b925082821015613fe357613fe26141e0565b5b828203905092915050565b6000613ff982614055565b9050919050565b60008115159050919050565b6000819050919050565b60007fffffffff0000000000000000000000000000000000000000000000000000000082169050919050565b60008190506140508261484a565b919050565b600073ffffffffffffffffffffffffffffffffffffffff82169050919050565b6000819050919050565b600067ffffffffffffffff82169050919050565b600060ff82169050919050565b60006140ab826140b2565b9050919050565b60006140bd82614055565b9050919050565b60006140cf82614042565b9050919050565b60006140e18261407f565b9050919050565b82818337600083830152505050565b60005b838110156141155780820151818401526020810190506140fa565b83811115614124576000848401525b50505050565b6000600282049050600182168061414257607f821691505b602082108114156141565761415561426d565b5b50919050565b614165826142cb565b810181811067ffffffffffffffff821117156141845761418361429c565b5b80604052505050565b600061419882614075565b91507fffffffffffffffffffffffffffffffffffffffffffffffffffffffffffffffff8214156141cb576141ca6141e0565b5b600182019050919050565b6000819050919050565b7f4e487b7100000000000000000000000000000000000000000000000000000000600052601160045260246000fd5b7f4e487b7100000000000000000000000000000000000000000000000000000000600052601260045260246000fd5b7f4e487b7100000000000000000000000000000000000000000000000000000000600052602160045260246000fd5b7f4e487b7100000000000000000000000000000000000000000000000000000000600052602260045260246000fd5b7f4e487b7100000000000000000000000000000000000000000000000000000000600052604160045260246000fd5b6000601f19601f8301169050919050565b7f45434453413a20696e76616c6964207369676e61747572650000000000000000600082015250565b7f476f7665726e6f723a206f6e6c79476f7665726e616e63650000000000000000600082015250565b7f476f7665726e6f72566f74657351756f72756d4672616374696f6e3a2071756f60008201527f72756d4e756d657261746f72206f7665722071756f72756d44656e6f6d696e6160208201527f746f720000000000000000000000000000000000000000000000000000000000604082015250565b7f476f7665726e6f72436f6d7061746962696c697479427261766f3a2070726f7060008201527f6f73657220766f7465732062656c6f772070726f706f73616c2074687265736860208201527f6f6c640000000000000000000000000000000000000000000000000000000000604082015250565b7f45434453413a20696e76616c6964207369676e6174757265206c656e67746800600082015250565b7f1901000000000000000000000000000000000000000000000000000000000000600082015250565b7f476f7665726e6f723a20696e76616c69642070726f706f73616c206c656e677460008201527f6800000000000000000000000000000000000000000000000000000000000000602082015250565b7f476f7665726e6f7253657474696e67733a20766f74696e6720706572696f642060008201527f746f6f206c6f7700000000000000000000000000000000000000000000000000602082015250565b7f45434453413a20696e76616c6964207369676e6174757265202773272076616c60008201527f7565000000000000000000000000000000000000000000000000000000000000602082015250565b7f476f7665726e6f72566f74696e6753696d706c653a20766f746520616c72656160008201527f6479206361737400000000000000000000000000000000000000000000000000602082015250565b7f416464726573733a20696e73756666696369656e742062616c616e636520666f60008201527f722063616c6c0000000000000000000000000000000000000000000000000000602082015250565b7f476f7665726e6f723a20766f7465206e6f742063757272656e746c792061637460008201527f6976650000000000000000000000000000000000000000000000000000000000602082015250565b7f476f7665726e6f723a20656d7074792070726f706f73616c0000000000000000600082015250565b7f45434453413a20696e76616c6964207369676e6174757265202776272076616c60008201527f7565000000000000000000000000000000000000000000000000000000000000602082015250565b7f53616665436173743a2076616c756520646f65736e27742066697420696e203660008201527f3420626974730000000000000000000000000000000000000000000000000000602082015250565b7f476f7665726e6f723a2070726f706f73616c206e6f742073756363657373667560008201527f6c00000000000000000000000000000000000000000000000000000000000000602082015250565b7f476f7665726e6f723a20756e6b6e6f776e2070726f706f73616c206964000000600082015250565b7f476f7665726e6f72566f74696e6753696d706c653a20696e76616c696420766160008201527f6c756520666f7220656e756d20566f7465547970650000000000000000000000602082015250565b7f476f7665726e6f723a2070726f706f73616c20616c726561647920657869737460008201527f7300000000000000000000000000000000000000000000000000000000000000602082015250565b7f416464726573733a2063616c6c20746f206e6f6e2d636f6e7472616374000000600082015250565b6008811061485b5761485a61423e565b5b50565b61486781613fee565b811461487257600080fd5b50565b61487e8161400c565b811461488957600080fd5b50565b61489581614016565b81146148a057600080fd5b50565b6148ac81614075565b81146148b757600080fd5b50565b6148c381614093565b81146148ce57600080fd5b5056fe476f7665726e6f723a2063616c6c20726576657274656420776974686f7574206d657373616765416464726573733a206c6f772d6c6576656c2063616c6c20776974682076616c7565206661696c6564a26469706673582212204b055023ad62ddf19648e36f8b72e8f2b6d9cf69c7b977662586376eb1aaf9d764736f6c63430008040033",
  "linkReferences": {},
  "deployedLinkReferences": {}
}